{
    "contractName": "ProvObject",
    "abi": [
        {
            "constant": true,
            "inputs": [
                {
                    "internalType": "string",
                    "name": "_objectHash",
                    "type": "string"
                }
            ],
            "name": "getObject",
            "outputs": [
                {
                    "components": [
                        {
                            "components": [
                                {
                                    "internalType": "string",
                                    "name": "propType",
                                    "type": "string"
                                },
                                {
                                    "internalType": "string",
                                    "name": "propValue",
                                    "type": "string"
                                }
                            ],
                            "internalType": "struct ProvObject.ObjectProperties[]",
                            "name": "properties",
                            "type": "tuple[]"
                        },
                        {
                            "internalType": "string",
                            "name": "category",
                            "type": "string"
                        },
                        {
                            "internalType": "string",
                            "name": "format",
                            "type": "string"
                        },
                        {
                            "internalType": "string[]",
                            "name": "events",
                            "type": "string[]"
                        },
                        {
                            "internalType": "string[]",
                            "name": "agents",
                            "type": "string[]"
                        },
                        {
                            "internalType": "bool",
                            "name": "isValid",
                            "type": "bool"
                        }
                    ],
                    "internalType": "struct ProvObject.ObjectData",
                    "name": "",
                    "type": "tuple"
                }
            ],
            "payable": false,
            "stateMutability": "view",
            "type": "function"
        },
        {
            "constant": true,
            "inputs": [
                {
                    "internalType": "uint256",
                    "name": "_index",
                    "type": "uint256"
                }
            ],
            "name": "getObject",
            "outputs": [
                {
                    "internalType": "string",
                    "name": "",
                    "type": "string"
                }
            ],
            "payable": false,
            "stateMutability": "view",
            "type": "function"
        },
        {
            "constant": true,
            "inputs": [
                {
                    "internalType": "string",
                    "name": "_propType",
                    "type": "string"
                }
            ],
            "name": "getPropertyTypeExists",
            "outputs": [
                {
                    "internalType": "bool",
                    "name": "",
                    "type": "bool"
                }
            ],
            "payable": false,
            "stateMutability": "view",
            "type": "function"
        },
        {
            "constant": true,
            "inputs": [
                {
                    "internalType": "string",
                    "name": "_objectHash",
                    "type": "string"
                },
                {
                    "internalType": "string",
                    "name": "_propType",
                    "type": "string"
                },
                {
                    "internalType": "string",
                    "name": "_propValue",
                    "type": "string"
                }
            ],
            "name": "getObjectPropertiesExists",
            "outputs": [
                {
                    "internalType": "bool",
                    "name": "",
                    "type": "bool"
                }
            ],
            "payable": false,
            "stateMutability": "view",
            "type": "function"
        },
        {
            "constant": true,
            "inputs": [
                {
                    "internalType": "string",
                    "name": "_objectHash",
                    "type": "string"
                }
            ],
            "name": "getObjectCategoryAndFormat",
            "outputs": [
                {
                    "internalType": "string",
                    "name": "",
                    "type": "string"
                },
                {
                    "internalType": "string",
                    "name": "",
                    "type": "string"
                }
            ],
            "payable": false,
            "stateMutability": "view",
            "type": "function"
        },
        {
            "constant": false,
            "inputs": [
                {
                    "internalType": "string",
                    "name": "_objectHash",
                    "type": "string"
                },
                {
                    "internalType": "string",
                    "name": "_propType",
                    "type": "string"
                },
                {
                    "internalType": "string",
                    "name": "_propValue",
                    "type": "string"
                }
            ],
            "name": "setProperties",
            "outputs": [],
            "payable": false,
            "stateMutability": "nonpayable",
            "type": "function"
        },
        {
            "constant": true,
            "inputs": [
                {
                    "internalType": "string",
                    "name": "s1",
                    "type": "string"
                },
                {
                    "internalType": "string",
                    "name": "s2",
                    "type": "string"
                }
            ],
            "name": "equal",
            "outputs": [
                {
                    "internalType": "bool",
                    "name": "",
                    "type": "bool"
                }
            ],
            "payable": false,
            "stateMutability": "pure",
            "type": "function"
        },
        {
            "constant": false,
            "inputs": [
                {
                    "internalType": "string",
                    "name": "_objectHash",
                    "type": "string"
                },
                {
                    "internalType": "string",
                    "name": "_eventId",
                    "type": "string"
                }
            ],
            "name": "setEvent",
            "outputs": [],
            "payable": false,
            "stateMutability": "nonpayable",
            "type": "function"
        },
        {
            "constant": true,
            "inputs": [
                {
                    "internalType": "string",
                    "name": "_objectHash",
                    "type": "string"
                }
            ],
            "name": "getObjectExists",
            "outputs": [
                {
                    "internalType": "bool",
                    "name": "",
                    "type": "bool"
                }
            ],
            "payable": false,
            "stateMutability": "view",
            "type": "function"
        },
        {
            "constant": true,
            "inputs": [
                {
                    "internalType": "string",
                    "name": "_objectHash",
                    "type": "string"
                }
            ],
            "name": "getNumAgents",
            "outputs": [
                {
                    "internalType": "uint256",
                    "name": "",
                    "type": "uint256"
                }
            ],
            "payable": false,
            "stateMutability": "view",
            "type": "function"
        },
        {
            "constant": true,
            "inputs": [
                {
                    "internalType": "string",
                    "name": "_objectHash",
                    "type": "string"
                },
                {
                    "internalType": "string",
                    "name": "_eventId",
                    "type": "string"
                }
            ],
            "name": "getObjectEventExists",
            "outputs": [
                {
                    "internalType": "bool",
                    "name": "",
                    "type": "bool"
                }
            ],
            "payable": false,
            "stateMutability": "view",
            "type": "function"
        },
        {
            "constant": false,
            "inputs": [
                {
                    "internalType": "string",
                    "name": "_propType",
                    "type": "string"
                }
            ],
            "name": "setPropertyType",
            "outputs": [],
            "payable": false,
            "stateMutability": "nonpayable",
            "type": "function"
        },
        {
            "constant": true,
            "inputs": [
                {
                    "internalType": "string",
                    "name": "_objectHash",
                    "type": "string"
                },
                {
                    "internalType": "string",
                    "name": "_agentId",
                    "type": "string"
                }
            ],
            "name": "getObjectAgentExists",
            "outputs": [
                {
                    "internalType": "bool",
                    "name": "",
                    "type": "bool"
                }
            ],
            "payable": false,
            "stateMutability": "view",
            "type": "function"
        },
        {
            "constant": true,
            "inputs": [
                {
                    "internalType": "string",
                    "name": "_objectHash",
                    "type": "string"
                },
                {
                    "internalType": "uint256",
                    "name": "_eventIndex",
                    "type": "uint256"
                }
            ],
            "name": "getEvent",
            "outputs": [
                {
                    "internalType": "string",
                    "name": "",
                    "type": "string"
                },
                {
                    "internalType": "string",
                    "name": "",
                    "type": "string"
                }
            ],
            "payable": false,
            "stateMutability": "view",
            "type": "function"
        },
        {
            "constant": true,
            "inputs": [],
            "name": "getNumObject",
            "outputs": [
                {
                    "internalType": "uint256",
                    "name": "",
                    "type": "uint256"
                }
            ],
            "payable": false,
            "stateMutability": "view",
            "type": "function"
        },
        {
            "constant": true,
            "inputs": [
                {
                    "internalType": "string",
                    "name": "_objectHash",
                    "type": "string"
                }
            ],
            "name": "getObjectPropertiesLength",
            "outputs": [
                {
                    "internalType": "uint256",
                    "name": "",
                    "type": "uint256"
                }
            ],
            "payable": false,
            "stateMutability": "view",
            "type": "function"
        },
        {
            "constant": true,
            "inputs": [
                {
                    "internalType": "string",
                    "name": "_objectHash",
                    "type": "string"
                }
            ],
            "name": "getNumEvents",
            "outputs": [
                {
                    "internalType": "uint256",
                    "name": "",
                    "type": "uint256"
                }
            ],
            "payable": false,
            "stateMutability": "view",
            "type": "function"
        },
        {
            "constant": true,
            "inputs": [
                {
                    "internalType": "string",
                    "name": "_objectHash",
                    "type": "string"
                },
                {
                    "internalType": "uint256",
                    "name": "_agentIndex",
                    "type": "uint256"
                }
            ],
            "name": "getAgent",
            "outputs": [
                {
                    "internalType": "string",
                    "name": "",
                    "type": "string"
                },
                {
                    "internalType": "string",
                    "name": "",
                    "type": "string"
                }
            ],
            "payable": false,
            "stateMutability": "view",
            "type": "function"
        },
        {
            "constant": false,
            "inputs": [
                {
                    "internalType": "string",
                    "name": "_objectHash",
                    "type": "string"
                },
                {
                    "internalType": "string",
                    "name": "_agentId",
                    "type": "string"
                }
            ],
            "name": "setAgent",
            "outputs": [],
            "payable": false,
            "stateMutability": "nonpayable",
            "type": "function"
        },
        {
            "constant": true,
            "inputs": [
                {
                    "internalType": "uint256",
                    "name": "",
                    "type": "uint256"
                }
            ],
            "name": "objects",
            "outputs": [
                {
                    "internalType": "string",
                    "name": "",
                    "type": "string"
                }
            ],
            "payable": false,
            "stateMutability": "view",
            "type": "function"
        },
        {
            "constant": true,
            "inputs": [
                {
                    "internalType": "string",
                    "name": "_objectHash",
                    "type": "string"
                },
                {
                    "internalType": "uint256",
                    "name": "_propertiesIndex",
                    "type": "uint256"
                }
            ],
            "name": "getObjectPropertiesLength",
            "outputs": [
                {
                    "internalType": "string",
                    "name": "",
                    "type": "string"
                },
                {
                    "internalType": "string",
                    "name": "",
                    "type": "string"
                }
            ],
            "payable": false,
            "stateMutability": "view",
            "type": "function"
        },
        {
            "constant": false,
            "inputs": [
                {
                    "internalType": "string",
                    "name": "_objectHash",
                    "type": "string"
                },
                {
                    "internalType": "string",
                    "name": "_category",
                    "type": "string"
                },
                {
                    "internalType": "string",
                    "name": "_format",
                    "type": "string"
                }
            ],
            "name": "setObject",
            "outputs": [],
            "payable": false,
            "stateMutability": "nonpayable",
            "type": "function"
        },
        {
            "anonymous": false,
            "inputs": [
                {
                    "indexed": false,
                    "internalType": "string",
                    "name": "_objectHash",
                    "type": "string"
                },
                {
                    "indexed": false,
                    "internalType": "string",
                    "name": "_category",
                    "type": "string"
                },
                {
                    "indexed": false,
                    "internalType": "string",
                    "name": "_format",
                    "type": "string"
                }
            ],
            "name": "ObjectSet",
            "type": "event"
        },
        {
            "anonymous": false,
            "inputs": [
                {
                    "indexed": false,
                    "internalType": "string",
                    "name": "_propType",
                    "type": "string"
                }
            ],
            "name": "ObjectSetPropertyType",
            "type": "event"
        },
        {
            "anonymous": false,
            "inputs": [
                {
                    "indexed": false,
                    "internalType": "string",
                    "name": "_objectHash",
                    "type": "string"
                },
                {
                    "indexed": false,
                    "internalType": "string",
                    "name": "_propType",
                    "type": "string"
                },
                {
                    "indexed": false,
                    "internalType": "string",
                    "name": "_propValue",
                    "type": "string"
                }
            ],
            "name": "ObjectSetProperties",
            "type": "event"
        },
        {
            "anonymous": false,
            "inputs": [
                {
                    "indexed": false,
                    "internalType": "string",
                    "name": "_objectHash",
                    "type": "string"
                },
                {
                    "indexed": false,
                    "internalType": "string",
                    "name": "_eventId",
                    "type": "string"
                }
            ],
            "name": "ObjectSetEvent",
            "type": "event"
        },
        {
            "anonymous": false,
            "inputs": [
                {
                    "indexed": false,
                    "internalType": "string",
                    "name": "_objectHash",
                    "type": "string"
                },
                {
                    "indexed": false,
                    "internalType": "string",
                    "name": "_agentId",
                    "type": "string"
                }
            ],
            "name": "ObjectSetAgent",
            "type": "event"
        }
    ],
    "bytecode": "608060405234801561001057600080fd5b50612102806100206000396000f3fe608060405234801561001057600080fd5b50600436106101425760003560e01c8063a2e07f9b116100b8578063db54a8141161007c578063db54a814146102b9578063e7fca0a3146102cc578063e864fe58146102df578063ed175850146102f2578063f337a4e714610305578063fb135c8d1461031857610142565b8063a2e07f9b14610265578063a91623f114610278578063c4a8a6701461028b578063c82e31621461029e578063cd4d4d2e146102a657610142565b80634421263d1161010a5780634421263d146101e457806346bdca9a146101f9578063500b8a471461020c5780635d4ab0421461021f5780637221eaf8146102325780638d83cff71461025257610142565b80630153ea911461014757806328316b39146101705780633594baf2146101905780634002a2e7146101b0578063404e58f0146101c3575b600080fd5b61015a6101553660046118ae565b61032b565b6040516101679190611fc2565b60405180910390f35b61018361017e366004611a27565b6107d8565b6040516101679190611ede565b6101a361019e3660046118ae565b610881565b6040516101679190611ed0565b6101a36101be36600461194c565b610949565b6101d66101d13660046118ae565b610b37565b604051610167929190611eef565b6101f76101f236600461194c565b610c9b565b005b6101a36102073660046118e3565b610d8d565b6101f761021a3660046118e3565b610de7565b6101a361022d3660046118ae565b610e97565b6102456102403660046118ae565b610ec6565b6040516101679190611fd3565b6101a36102603660046118e3565b610ef2565b6101f76102733660046118ae565b611030565b6101a36102863660046118e3565b6110d5565b6101d66102993660046119e0565b6111c8565b61024561129c565b6102456102b43660046118ae565b6112a3565b6102456102c73660046118ae565b6112cc565b6101d66102da3660046119e0565b6112f8565b6101f76102ed3660046118e3565b611328565b610183610300366004611a27565b6113cc565b6101d66103133660046119e0565b611472565b6101f761032636600461194c565b6115e7565b610333611734565b6003826040516103439190611eb8565b908152604080519182900360209081018320805460e09281028501830190935260c084018381529092849284919060009085015b828210156104d55760008481526020908190206040805160028681029093018054600181161561010002600019011693909304601f81018590049094028101606090810183529181018481529093849284919084018282801561041b5780601f106103f05761010080835404028352916020019161041b565b820191906000526020600020905b8154815290600101906020018083116103fe57829003601f168201915b50505050508152602001600182018054600181600116156101000203166002900480601f0160208091040260200160405190810160405280929190818152602001828054600181600116156101000203166002900480156104bd5780601f10610492576101008083540402835291602001916104bd565b820191906000526020600020905b8154815290600101906020018083116104a057829003601f168201915b50505050508152505081526020019060010190610377565b505050508152602001600182018054600181600116156101000203166002900480601f0160208091040260200160405190810160405280929190818152602001828054600181600116156101000203166002900480156105765780601f1061054b57610100808354040283529160200191610576565b820191906000526020600020905b81548152906001019060200180831161055957829003601f168201915b5050509183525050600282810180546040805160206001841615610100026000190190931694909404601f810183900483028501830190915280845293810193908301828280156106085780601f106105dd57610100808354040283529160200191610608565b820191906000526020600020905b8154815290600101906020018083116105eb57829003601f168201915b5050505050815260200160038201805480602002602001604051908101604052809291908181526020016000905b828210156106e15760008481526020908190208301805460408051601f60026000196101006001871615020190941693909304928301859004850281018501909152818152928301828280156106cd5780601f106106a2576101008083540402835291602001916106cd565b820191906000526020600020905b8154815290600101906020018083116106b057829003601f168201915b505050505081526020019060010190610636565b50505050815260200160048201805480602002602001604051908101604052809291908181526020016000905b828210156107b95760008481526020908190208301805460408051601f60026000196101006001871615020190941693909304928301859004850281018501909152818152928301828280156107a55780601f1061077a576101008083540402835291602001916107a5565b820191906000526020600020905b81548152906001019060200180831161078857829003601f168201915b50505050508152602001906001019061070e565b505050908252506005919091015460ff16151560209091015292915050565b6060600282815481106107e757fe5b600091825260209182902001805460408051601f60026000196101006001871615020190941693909304928301859004850281018501909152818152928301828280156108755780601f1061084a57610100808354040283529160200191610875565b820191906000526020600020905b81548152906001019060200180831161085857829003601f168201915b50505050509050919050565b600080805b60015481101561094257600054600180546001600160a01b03909216916346bdca9a918791859081106108b557fe5b906000526020600020016040518363ffffffff1660e01b81526004016108dc929190611f4d565b60206040518083038186803b1580156108f457600080fd5b505afa158015610908573d6000803e3d6000fd5b505050506040513d601f19601f8201168201806040525061092c9190810190611888565b1561093a5760019150610942565b600101610886565b5092915050565b600080805b60038660405161095e9190611eb8565b90815260405190819003602001902054811015610b2e5761097d61176c565b60038760405161098d9190611eb8565b908152602001604051809103902060000182815481106109a957fe5b60009182526020918290206040805160029384029092018054600181161561010002600019011693909304601f81018590049094028201606090810182529082018481529193849291849190840182828015610a465780601f10610a1b57610100808354040283529160200191610a46565b820191906000526020600020905b815481529060010190602001808311610a2957829003601f168201915b50505050508152602001600182018054600181600116156101000203166002900480601f016020809104026020016040519081016040528092919081815260200182805460018160011615610100020316600290048015610ae85780601f10610abd57610100808354040283529160200191610ae8565b820191906000526020600020905b815481529060010190602001808311610acb57829003601f168201915b5050505050815250509050610b01816000015187610d8d565b8015610b165750610b16816020015186610d8d565b15610b25576001925050610b2e565b5060010161094e565b50949350505050565b606080600383604051610b4a9190611eb8565b9081526020016040518091039020600101600384604051610b6b9190611eb8565b90815260408051602092819003830181208454600260018216156101000260001901909116819004601f8101869004860284018601909452838352019290918491830182828015610bfd5780601f10610bd257610100808354040283529160200191610bfd565b820191906000526020600020905b815481529060010190602001808311610be057829003601f168201915b5050845460408051602060026001851615610100026000190190941693909304601f810184900484028201840190925281815295975086945092508401905082828015610c8b5780601f10610c6057610100808354040283529160200191610c8b565b820191906000526020600020905b815481529060010190602001808311610c6e57829003601f168201915b5050505050905091509150915091565b610ca6838383610949565b15610ccc5760405162461bcd60e51b8152600401610cc390611fb2565b60405180910390fd5b610cd461176c565b82815260208101829052604051600390610cef908690611eb8565b908152604051602091819003820190208054600181018083556000928352918390208451805193948694600290940290920192610d2f9284920190611786565b506020828101518051610d489260018501920190611786565b505050507fc8f4639aca483626ff5cc4248d2988e8cca98f19c753b54a9868d7a0c86d27d1848484604051610d7f93929190611f14565b60405180910390a150505050565b600081604051602001610da09190611eb8565b6040516020818303038152906040528051906020012083604051602001610dc79190611eb8565b604051602081830303815290604052805190602001201490505b92915050565b610df18282610ef2565b15610e0e5760405162461bcd60e51b8152600401610cc390611f82565b600382604051610e1e9190611eb8565b9081526040516020918190038201902060030180546001810180835560009283529183902084519293610e58939190920191850190611786565b50507faf6ba4042ae0bec89739af5da5f7bd8c599cd94c911cba42996fc57a4dca11c78282604051610e8b929190611eef565b60405180910390a15050565b6000600382604051610ea99190611eb8565b9081526040519081900360200190206005015460ff169050919050565b6000600382604051610ed89190611eb8565b908152604051908190036020019020600401549050919050565b600080600384604051610f059190611eb8565b9081526040519081900360200190206005015460ff1690506000805b600386604051610f319190611eb8565b9081526040519081900360200190206003015481101561101c576000546040516001600160a01b03909116906346bdca9a908790600390610f73908b90611eb8565b90815260200160405180910390206003018481548110610f8f57fe5b906000526020600020016040518363ffffffff1660e01b8152600401610fb6929190611f4d565b60206040518083038186803b158015610fce57600080fd5b505afa158015610fe2573d6000803e3d6000fd5b505050506040513d601f19601f820116820180604052506110069190810190611888565b15611014576001915061101c565b600101610f21565b508180156110275750805b95945050505050565b61103981610881565b156110565760405162461bcd60e51b8152600401610cc390611fa2565b600180548082018083556000929092528251611099917fb10e2d527612073b26eecdfd717e6a320cf44b4afac2b0732d9fcbe2b7fa0cf601906020850190611786565b50507f961b734c41327bf9cb361abefb818c2fdaa9534dd6eb5a55626e56501f2b6b6e816040516110ca9190611ede565b60405180910390a150565b6000806003846040516110e89190611eb8565b9081526040519081900360200190206005015460ff1690506000805b6003866040516111149190611eb8565b9081526040519081900360200190206003015481101561101c5760038660405161113e9190611eb8565b9081526020016040518091039020600301818154811061115a57fe5b906000526020600020016040516020016111749190611ec4565b604051602081830303815290604052805190602001208560405160200161119b9190611eb8565b6040516020818303038152906040528051906020012014156111c0576001915061101c565b600101611104565b606080836003856040516111dc9190611eb8565b908152602001604051809103902060030184815481106111f857fe5b600091825260209182902001805460408051601f60026000196101006001871615020190941693909304928301859004850281018501909152818152919283919083018282801561128a5780601f1061125f5761010080835404028352916020019161128a565b820191906000526020600020905b81548152906001019060200180831161126d57829003601f168201915b50505050509050915091509250929050565b6002545b90565b60006003826040516112b59190611eb8565b908152604051908190036020019020549050919050565b60006003826040516112de9190611eb8565b908152604051908190036020019020600301549050919050565b6060808360038560405161130c9190611eb8565b908152602001604051809103902060040184815481106111f857fe5b61133282826110d5565b1561134f5760405162461bcd60e51b8152600401610cc390611f92565b60038260405161135f9190611eb8565b9081526040516020918190038201902060030180546001810180835560009283529183902084519293611399939190920191850190611786565b50507fce134c2f6749a7c8c27263fd44938e75a902092c93fbc45a5bbee3f362f9361e8282604051610e8b929190611eef565b600281815481106113d957fe5b600091825260209182902001805460408051601f600260001961010060018716150201909416939093049283018590048502810185019091528181529350909183018282801561146a5780601f1061143f5761010080835404028352916020019161146a565b820191906000526020600020905b81548152906001019060200180831161144d57829003601f168201915b505050505081565b6060806003846040516114859190611eb8565b908152602001604051809103902060000183815481106114a157fe5b90600052602060002090600202016000016003856040516114c29190611eb8565b908152602001604051809103902060000184815481106114de57fe5b9060005260206000209060020201600101818054600181600116156101000203166002900480601f0160208091040260200160405190810160405280929190818152602001828054600181600116156101000203166002900480156115845780601f1061155957610100808354040283529160200191611584565b820191906000526020600020905b81548152906001019060200180831161156757829003601f168201915b5050845460408051602060026001851615610100026000190190941693909304601f81018490048402820184019092528181529597508694509250840190508282801561128a5780601f1061125f5761010080835404028352916020019161128a565b6115f083610e97565b1561160d5760405162461bcd60e51b8152600401610cc390611f72565b600160038460405161161f9190611eb8565b908152604051908190036020018120600501805492151560ff19909316929092179091558290600390611653908690611eb8565b90815260200160405180910390206001019080519060200190611677929190611786565b50806003846040516116899190611eb8565b908152602001604051809103902060020190805190602001906116ad929190611786565b50600280546001810180835560009290925284516116f2917f405787fa12a823e0f2b7631cc41b3ba8828b3321ca811111fa75cd3aa3bb5ace01906020870190611786565b50507f5f1407d55cfb9234116ab0968b1ac0eb46b3a3e00530145812e7a97026f3b1cd83838360405161172793929190611f14565b60405180910390a1505050565b6040518060c0016040528060608152602001606081526020016060815260200160608152602001606081526020016000151581525090565b604051806040016040528060608152602001606081525090565b828054600181600116156101000203166002900490600052602060002090601f016020900481019282601f106117c757805160ff19168380011785556117f4565b828001600101855582156117f4579182015b828111156117f45782518255916020019190600101906117d9565b50611800929150611804565b5090565b6112a091905b80821115611800576000815560010161180a565b8051610de18161209f565b600082601f83011261183a57600080fd5b813561184d61184882612008565b611fe1565b9150808252602083016020830185838301111561186957600080fd5b611874838284612059565b50505092915050565b8035610de1816120b6565b60006020828403121561189a57600080fd5b60006118a6848461181e565b949350505050565b6000602082840312156118c057600080fd5b813567ffffffffffffffff8111156118d757600080fd5b6118a684828501611829565b600080604083850312156118f657600080fd5b823567ffffffffffffffff81111561190d57600080fd5b61191985828601611829565b925050602083013567ffffffffffffffff81111561193657600080fd5b61194285828601611829565b9150509250929050565b60008060006060848603121561196157600080fd5b833567ffffffffffffffff81111561197857600080fd5b61198486828701611829565b935050602084013567ffffffffffffffff8111156119a157600080fd5b6119ad86828701611829565b925050604084013567ffffffffffffffff8111156119ca57600080fd5b6119d686828701611829565b9150509250925092565b600080604083850312156119f357600080fd5b823567ffffffffffffffff811115611a0a57600080fd5b611a1685828601611829565b92505060206119428582860161187d565b600060208284031215611a3957600080fd5b60006118a6848461187d565b6000611a518383611b42565b9392505050565b6000611a518383611e7d565b6000611a6f82612042565b611a798185612046565b935083602082028501611a8b85612030565b8060005b85811015611ac55784840389528151611aa88582611a45565b9450611ab383612030565b60209a909a0199925050600101611a8f565b5091979650505050505050565b6000611add82612042565b611ae78185612046565b935083602082028501611af985612030565b8060005b85811015611ac55784840389528151611b168582611a58565b9450611b2183612030565b60209a909a0199925050600101611afd565b611b3c81612054565b82525050565b6000611b4d82612042565b611b578185612046565b9350611b67818560208601612065565b611b7081612095565b9093019392505050565b6000611b8582612042565b611b8f818561204f565b9350611b9f818560208601612065565b9290920192915050565b600081546001811660008114611bc65760018114611bec57611c2b565b607f6002830416611bd78187612046565b60ff1984168152955050602085019250611c2b565b60028204611bfa8187612046565b9550611c0585612036565b60005b82811015611c2457815488820152600190910190602001611c08565b8701945050505b505092915050565b600081546001811660008114611c505760018114611c7357611c2b565b607f6002830416611c61818761204f565b60ff1984168152955085019250611c2b565b60028204611c81818761204f565b9550611c8c85612036565b60005b82811015611cab57815488820152600190910190602001611c8f565b5050909401949350505050565b6000611cc5601c83612046565b7f746865206f626a65637420697320616c72656164792065786973747300000000815260200192915050565b6000611cfe601b83612046565b7f746865206576656e7420697320616c7265616479206578697374730000000000815260200192915050565b6000611d37601b83612046565b7f746865206167656e7420697320616c7265616479206578697374730000000000815260200192915050565b6000611d70602283612046565b7f7468652070726f70657274795479706520697320616c72656164792065786973815261747360f01b602082015260400192915050565b6000611db4602083612046565b7f7468652070726f7065727469657320697320616c726561647920657869737473815260200192915050565b805160c080845260009190840190611df88282611ad2565b91505060208301518482036020860152611e128282611b42565b91505060408301518482036040860152611e2c8282611b42565b91505060608301518482036060860152611e468282611a64565b91505060808301518482036080860152611e608282611a64565b91505060a0830151611e7560a0860182611b33565b509392505050565b8051604080845260009190840190611e958282611b42565b915050602083015184820360208601526110278282611b42565b611b3c816112a0565b6000611a518284611b7a565b6000611a518284611c33565b60208101610de18284611b33565b60208082528101611a518184611b42565b60408082528101611f008185611b42565b905081810360208301526118a68184611b42565b60608082528101611f258186611b42565b90508181036020830152611f398185611b42565b905081810360408301526110278184611b42565b60408082528101611f5e8185611b42565b905081810360208301526118a68184611ba9565b60208082528101610de181611cb8565b60208082528101610de181611cf1565b60208082528101610de181611d2a565b60208082528101610de181611d63565b60208082528101610de181611da7565b60208082528101611a518184611de0565b60208101610de18284611eaf565b60405181810167ffffffffffffffff8111828210171561200057600080fd5b604052919050565b600067ffffffffffffffff82111561201f57600080fd5b506020601f91909101601f19160190565b60200190565b60009081526020902090565b5190565b90815260200190565b919050565b151590565b82818337506000910152565b60005b83811015612080578181015183820152602001612068565b8381111561208f576000848401525b50505050565b601f01601f191690565b6120a881612054565b81146120b357600080fd5b50565b6120a8816112a056fea365627a7a72315820cd67988c68c0fecd5f5e74498999e98e5561f952a88c5de6d86e0fd44ecc227b6c6578706572696d656e74616cf564736f6c634300050b0040",
    "sourcePath": "c:/DiskF/Truffle/Vue-Dapp/contracts/Object.sol",
    "compiler": {
        "name": "solc",
        "version": "0.5.11+commit.c082d0b4"
    },
    "functionHashes": {
        "equal(string,string)": "46bdca9a",
        "getAgent(string,uint256)": "e7fca0a3",
        "getEvent(string,uint256)": "c4a8a670",
        "getNumAgents(string)": "7221eaf8",
        "getNumEvents(string)": "db54a814",
        "getNumObject()": "c82e3162",
        "getObject(string)": "0153ea91",
        "getObject(uint256)": "28316b39",
        "getObjectAgentExists(string,string)": "a91623f1",
        "getObjectCategoryAndFormat(string)": "404e58f0",
        "getObjectEventExists(string,string)": "8d83cff7",
        "getObjectExists(string)": "5d4ab042",
        "getObjectPropertiesExists(string,string,string)": "4002a2e7",
        "getObjectPropertiesLength(string)": "cd4d4d2e",
        "getObjectPropertiesLength(string,uint256)": "f337a4e7",
        "getPropertyTypeExists(string)": "3594baf2",
        "objects(uint256)": "ed175850",
        "setAgent(string,string)": "e864fe58",
        "setEvent(string,string)": "500b8a47",
        "setObject(string,string,string)": "fb135c8d",
        "setProperties(string,string,string)": "4421263d",
        "setPropertyType(string)": "a2e07f9b"
    },
    "gasEstimates": {
        "creation": {
            "codeDepositCost": "1690000",
            "executionCost": "1778",
            "totalCost": "1691778"
        },
        "external": {
            "equal(string,string)": "infinite",
            "getAgent(string,uint256)": "infinite",
            "getEvent(string,uint256)": "infinite",
            "getNumAgents(string)": "infinite",
            "getNumEvents(string)": "infinite",
            "getNumObject()": "infinite",
            "getObject(string)": "infinite",
            "getObject(uint256)": "infinite",
            "getObjectAgentExists(string,string)": "infinite",
            "getObjectCategoryAndFormat(string)": "infinite",
            "getObjectEventExists(string,string)": "infinite",
            "getObjectExists(string)": "infinite",
            "getObjectPropertiesExists(string,string,string)": "infinite",
            "getObjectPropertiesLength(string)": "infinite",
            "getObjectPropertiesLength(string,uint256)": "infinite",
            "getPropertyTypeExists(string)": "infinite",
            "objects(uint256)": "infinite",
            "setAgent(string,string)": "infinite",
            "setEvent(string,string)": "infinite",
            "setObject(string,string,string)": "infinite",
            "setProperties(string,string,string)": "infinite",
            "setPropertyType(string)": "infinite"
        }
    }
}