{
  "contractName": "ProvAgent",
  "abi": [
    {
      "anonymous": false,
      "inputs": [
        {
          "indexed": false,
          "internalType": "string",
          "name": "_agentId",
          "type": "string"
        },
        {
          "indexed": false,
          "internalType": "string",
          "name": "_name",
          "type": "string"
        },
        {
          "indexed": false,
          "internalType": "string",
          "name": "_agentType",
          "type": "string"
        }
      ],
      "name": "AgentSet",
      "type": "event"
    },
    {
      "anonymous": false,
      "inputs": [
        {
          "indexed": false,
          "internalType": "string",
          "name": "_agentId",
          "type": "string"
        },
        {
          "indexed": false,
          "internalType": "string",
          "name": "_eventId",
          "type": "string"
        }
      ],
      "name": "EventSet",
      "type": "event"
    },
    {
      "anonymous": false,
      "inputs": [
        {
          "indexed": false,
          "internalType": "string",
          "name": "_agentId",
          "type": "string"
        },
        {
          "indexed": false,
          "internalType": "string",
          "name": "_objectHash",
          "type": "string"
        }
      ],
      "name": "ObjectSet",
      "type": "event"
    },
    {
      "constant": false,
      "inputs": [
        {
          "internalType": "string",
          "name": "_agentId",
          "type": "string"
        },
        {
          "internalType": "string",
          "name": "_eventId",
          "type": "string"
        }
      ],
      "name": "setEvent",
      "outputs": [],
      "payable": false,
      "stateMutability": "nonpayable",
      "type": "function"
    },
    {
      "constant": false,
      "inputs": [
        {
          "internalType": "string",
          "name": "_agentId",
          "type": "string"
        },
        {
          "internalType": "string",
          "name": "_objectHash",
          "type": "string"
        }
      ],
      "name": "setObject",
      "outputs": [],
      "payable": false,
      "stateMutability": "nonpayable",
      "type": "function"
    },
    {
      "constant": false,
      "inputs": [
        {
          "internalType": "string",
          "name": "_agentId",
          "type": "string"
        },
        {
          "internalType": "string",
          "name": "_name",
          "type": "string"
        },
        {
          "internalType": "string",
          "name": "_agentType",
          "type": "string"
        }
      ],
      "name": "setAgent",
      "outputs": [],
      "payable": false,
      "stateMutability": "nonpayable",
      "type": "function"
    },
    {
      "constant": true,
      "inputs": [
        {
          "internalType": "string",
          "name": "_agentId",
          "type": "string"
        }
      ],
      "name": "getAgentExists",
      "outputs": [
        {
          "internalType": "bool",
          "name": "",
          "type": "bool"
        }
      ],
      "payable": false,
      "stateMutability": "view",
      "type": "function"
    },
    {
      "constant": true,
      "inputs": [
        {
          "internalType": "string",
          "name": "_agentId",
          "type": "string"
        },
        {
          "internalType": "string",
          "name": "_objectHash",
          "type": "string"
        }
      ],
      "name": "getAgentObjectExists",
      "outputs": [
        {
          "internalType": "bool",
          "name": "",
          "type": "bool"
        }
      ],
      "payable": false,
      "stateMutability": "view",
      "type": "function"
    },
    {
      "constant": true,
      "inputs": [
        {
          "internalType": "string",
          "name": "_agentId",
          "type": "string"
        },
        {
          "internalType": "string",
          "name": "_eventId",
          "type": "string"
        }
      ],
      "name": "getAgentEventExists",
      "outputs": [
        {
          "internalType": "bool",
          "name": "",
          "type": "bool"
        }
      ],
      "payable": false,
      "stateMutability": "view",
      "type": "function"
    },
    {
      "constant": true,
      "inputs": [
        {
          "internalType": "string",
          "name": "_agentId",
          "type": "string"
        },
        {
          "internalType": "uint256",
          "name": "_objectIndex",
          "type": "uint256"
        }
      ],
      "name": "getObject",
      "outputs": [
        {
          "internalType": "string",
          "name": "",
          "type": "string"
        },
        {
          "internalType": "string",
          "name": "",
          "type": "string"
        }
      ],
      "payable": false,
      "stateMutability": "view",
      "type": "function"
    },
    {
      "constant": true,
      "inputs": [
        {
          "internalType": "string",
          "name": "_agentId",
          "type": "string"
        },
        {
          "internalType": "uint256",
          "name": "_eventIndex",
          "type": "uint256"
        }
      ],
      "name": "getEvent",
      "outputs": [
        {
          "internalType": "string",
          "name": "",
          "type": "string"
        },
        {
          "internalType": "string",
          "name": "",
          "type": "string"
        }
      ],
      "payable": false,
      "stateMutability": "view",
      "type": "function"
    },
    {
      "constant": true,
      "inputs": [
        {
          "internalType": "string",
          "name": "_agentId",
          "type": "string"
        }
      ],
      "name": "getAgentType",
      "outputs": [
        {
          "internalType": "string",
          "name": "",
          "type": "string"
        },
        {
          "internalType": "string",
          "name": "",
          "type": "string"
        }
      ],
      "payable": false,
      "stateMutability": "view",
      "type": "function"
    },
    {
      "constant": true,
      "inputs": [
        {
          "internalType": "string",
          "name": "_agentId",
          "type": "string"
        }
      ],
      "name": "getAgentName",
      "outputs": [
        {
          "internalType": "string",
          "name": "",
          "type": "string"
        },
        {
          "internalType": "string",
          "name": "",
          "type": "string"
        }
      ],
      "payable": false,
      "stateMutability": "view",
      "type": "function"
    }
  ],
  "bytecode": "0x608060405234801561001057600080fd5b5061236b806100206000396000f3fe608060405234801561001057600080fd5b506004361061009e5760003560e01c80634750edfa116100665780634750edfa146107bb578063500b8a471461095b5780637f9dfca914610aad578063c4a8a67014610c17578063f78e820014610dc15761009e565b80630867c2f7146100a3578063260eeea3146101f55780632ad9827d1461035f57806333472e1c14610548578063432c237e1461061b575b600080fd5b6101f3600480360360408110156100b957600080fd5b81019080803590602001906401000000008111156100d657600080fd5b8201836020820111156100e857600080fd5b8035906020019184600183028401116401000000008311171561010a57600080fd5b91908080601f016020809104026020016040519081016040528093929190818152602001838380828437600081840152601f19601f8201169050808301925050505050505091929192908035906020019064010000000081111561016d57600080fd5b82018360208201111561017f57600080fd5b803590602001918460018302840111640100000000831117156101a157600080fd5b91908080601f016020809104026020016040519081016040528093929190818152602001838380828437600081840152601f19601f820116905080830192505050505050509192919290505050610f6b565b005b6103456004803603604081101561020b57600080fd5b810190808035906020019064010000000081111561022857600080fd5b82018360208201111561023a57600080fd5b8035906020019184600183028401116401000000008311171561025c57600080fd5b91908080601f016020809104026020016040519081016040528093929190818152602001838380828437600081840152601f19601f820116905080830192505050505050509192919290803590602001906401000000008111156102bf57600080fd5b8201836020820111156102d157600080fd5b803590602001918460018302840111640100000000831117156102f357600080fd5b91908080601f016020809104026020016040519081016040528093929190818152602001838380828437600081840152601f19601f82011690508083019250505050505050919291929050505061119e565b604051808215151515815260200191505060405180910390f35b6105466004803603606081101561037557600080fd5b810190808035906020019064010000000081111561039257600080fd5b8201836020820111156103a457600080fd5b803590602001918460018302840111640100000000831117156103c657600080fd5b91908080601f016020809104026020016040519081016040528093929190818152602001838380828437600081840152601f19601f8201169050808301925050505050505091929192908035906020019064010000000081111561042957600080fd5b82018360208201111561043b57600080fd5b8035906020019184600183028401116401000000008311171561045d57600080fd5b91908080601f016020809104026020016040519081016040528093929190818152602001838380828437600081840152601f19601f820116905080830192505050505050509192919290803590602001906401000000008111156104c057600080fd5b8201836020820111156104d257600080fd5b803590602001918460018302840111640100000000831117156104f457600080fd5b91908080601f016020809104026020016040519081016040528093929190818152602001838380828437600081840152601f19601f8201169050808301925050505050505091929192905050506114bd565b005b6106016004803603602081101561055e57600080fd5b810190808035906020019064010000000081111561057b57600080fd5b82018360208201111561058d57600080fd5b803590602001918460018302840111640100000000831117156105af57600080fd5b91908080601f016020809104026020016040519081016040528093929190818152602001838380828437600081840152601f19601f82011690508083019250505050505050919291929050505061183a565b604051808215151515815260200191505060405180910390f35b6106d46004803603602081101561063157600080fd5b810190808035906020019064010000000081111561064e57600080fd5b82018360208201111561066057600080fd5b8035906020019184600183028401116401000000008311171561068257600080fd5b91908080601f016020809104026020016040519081016040528093929190818152602001838380828437600081840152601f19601f8201169050808301925050505050505091929192905050506118bd565b604051808060200180602001838103835285818151815260200191508051906020019080838360005b838110156107185780820151818401526020810190506106fd565b50505050905090810190601f1680156107455780820380516001836020036101000a031916815260200191505b50838103825284818151815260200191508051906020019080838360005b8381101561077e578082015181840152602081019050610763565b50505050905090810190601f1680156107ab5780820380516001836020036101000a031916815260200191505b5094505050505060405180910390f35b610874600480360360208110156107d157600080fd5b81019080803590602001906401000000008111156107ee57600080fd5b82018360208201111561080057600080fd5b8035906020019184600183028401116401000000008311171561082257600080fd5b91908080601f016020809104026020016040519081016040528093929190818152602001838380828437600081840152601f19601f8201169050808301925050505050505091929192905050506119d2565b604051808060200180602001838103835285818151815260200191508051906020019080838360005b838110156108b857808201518184015260208101905061089d565b50505050905090810190601f1680156108e55780820380516001836020036101000a031916815260200191505b50838103825284818151815260200191508051906020019080838360005b8381101561091e578082015181840152602081019050610903565b50505050905090810190601f16801561094b5780820380516001836020036101000a031916815260200191505b5094505050505060405180910390f35b610aab6004803603604081101561097157600080fd5b810190808035906020019064010000000081111561098e57600080fd5b8201836020820111156109a057600080fd5b803590602001918460018302840111640100000000831117156109c257600080fd5b91908080601f016020809104026020016040519081016040528093929190818152602001838380828437600081840152601f19601f82011690508083019250505050505050919291929080359060200190640100000000811115610a2557600080fd5b820183602082011115610a3757600080fd5b80359060200191846001830284011164010000000083111715610a5957600080fd5b91908080601f016020809104026020016040519081016040528093929190818152602001838380828437600081840152601f19601f820116905080830192505050505050509192919290505050611ae7565b005b610bfd60048036036040811015610ac357600080fd5b8101908080359060200190640100000000811115610ae057600080fd5b820183602082011115610af257600080fd5b80359060200191846001830284011164010000000083111715610b1457600080fd5b91908080601f016020809104026020016040519081016040528093929190818152602001838380828437600081840152601f19601f82011690508083019250505050505050919291929080359060200190640100000000811115610b7757600080fd5b820183602082011115610b8957600080fd5b80359060200191846001830284011164010000000083111715610bab57600080fd5b91908080601f016020809104026020016040519081016040528093929190818152602001838380828437600081840152601f19601f820116905080830192505050505050509192919290505050611d1a565b604051808215151515815260200191505060405180910390f35b610cda60048036036040811015610c2d57600080fd5b8101908080359060200190640100000000811115610c4a57600080fd5b820183602082011115610c5c57600080fd5b80359060200191846001830284011164010000000083111715610c7e57600080fd5b91908080601f016020809104026020016040519081016040528093929190818152602001838380828437600081840152601f19601f82011690508083019250505050505050919291929080359060200190929190505050612039565b604051808060200180602001838103835285818151815260200191508051906020019080838360005b83811015610d1e578082015181840152602081019050610d03565b50505050905090810190601f168015610d4b5780820380516001836020036101000a031916815260200191505b50838103825284818151815260200191508051906020019080838360005b83811015610d84578082015181840152602081019050610d69565b50505050905090810190601f168015610db15780820380516001836020036101000a031916815260200191505b5094505050505060405180910390f35b610e8460048036036040811015610dd757600080fd5b8101908080359060200190640100000000811115610df457600080fd5b820183602082011115610e0657600080fd5b80359060200191846001830284011164010000000083111715610e2857600080fd5b91908080601f016020809104026020016040519081016040528093929190818152602001838380828437600081840152601f19601f82011690508083019250505050505050919291929080359060200190929190505050612165565b604051808060200180602001838103835285818151815260200191508051906020019080838360005b83811015610ec8578082015181840152602081019050610ead565b50505050905090810190601f168015610ef55780820380516001836020036101000a031916815260200191505b50838103825284818151815260200191508051906020019080838360005b83811015610f2e578082015181840152602081019050610f13565b50505050905090810190601f168015610f5b5780820380516001836020036101000a031916815260200191505b5094505050505060405180910390f35b610f75828261119e565b15610fe8576040517f08c379a000000000000000000000000000000000000000000000000000000000815260040180806020018281038252601c8152602001807f746865206f626a65637420697320616c7265616479206578697374730000000081525060200191505060405180910390fd5b6001826040518082805190602001908083835b6020831061101e5780518252602082019150602081019050602083039250610ffb565b6001836020036101000a038019825116818451168082178552505050505050905001915050908152602001604051809103902060000181908060018154018082558091505090600182039060005260206000200160009091929091909150908051906020019061108f929190612291565b50507f3f31b14bc228974210575a00d8a5d0aaaba7983078b639f151447e0327f786358282604051808060200180602001838103835285818151815260200191508051906020019080838360005b838110156110f85780820151818401526020810190506110dd565b50505050905090810190601f1680156111255780820380516001836020036101000a031916815260200191505b50838103825284818151815260200191508051906020019080838360005b8381101561115e578082015181840152602081019050611143565b50505050905090810190601f16801561118b5780820380516001836020036101000a031916815260200191505b5094505050505060405180910390a15050565b600060606001846040518082805190602001908083835b602083106111d857805182526020820191506020810190506020830392506111b5565b6001836020036101000a0380198251168184511680821785525050505050509050019150509081526020016040518091039020600001805480602002602001604051908101604052809291908181526020016000905b828210156112ea578382906000526020600020018054600181600116156101000203166002900480601f0160208091040260200160405190810160405280929190818152602001828054600181600116156101000203166002900480156112d65780601f106112ab576101008083540402835291602001916112d6565b820191906000526020600020905b8154815290600101906020018083116112b957829003601f168201915b50505050508152602001906001019061122e565b505050509050600080905060008090505b82518110156114b1576000809054906101000a900473ffffffffffffffffffffffffffffffffffffffff1673ffffffffffffffffffffffffffffffffffffffff166346bdca9a8685848151811061134e57fe5b60200260200101516040518363ffffffff1660e01b8152600401808060200180602001838103835285818151815260200191508051906020019080838360005b838110156113a957808201518184015260208101905061138e565b50505050905090810190601f1680156113d65780820380516001836020036101000a031916815260200191505b50838103825284818151815260200191508051906020019080838360005b8381101561140f5780820151818401526020810190506113f4565b50505050905090810190601f16801561143c5780820380516001836020036101000a031916815260200191505b5094505050505060206040518083038186803b15801561145b57600080fd5b505afa15801561146f573d6000803e3d6000fd5b505050506040513d602081101561148557600080fd5b8101908080519060200190929190505050156114a457600191506114b1565b80806001019150506112fb565b50809250505092915050565b6114c68361183a565b15611539576040517f08c379a000000000000000000000000000000000000000000000000000000000815260040180806020018281038252601b8152602001807f746865206167656e7420697320616c726561647920657869737473000000000081525060200191505060405180910390fd5b600180846040518082805190602001908083835b60208310611570578051825260208201915060208101905060208303925061154d565b6001836020036101000a038019825116818451168082178552505050505050905001915050908152602001604051809103902060040160006101000a81548160ff021916908315150217905550816001846040518082805190602001908083835b602083106115f457805182526020820191506020810190506020830392506115d1565b6001836020036101000a0380198251168184511680821785525050505050509050019150509081526020016040518091039020600201908051906020019061163d929190612291565b50806001846040518082805190602001908083835b602083106116755780518252602082019150602081019050602083039250611652565b6001836020036101000a038019825116818451168082178552505050505050905001915050908152602001604051809103902060030190805190602001906116be929190612291565b507f5403c4d568bfe3ea0a175d4464ba871e6b4e4b985f4d11247ee749794bdca4d183838360405180806020018060200180602001848103845287818151815260200191508051906020019080838360005b8381101561172b578082015181840152602081019050611710565b50505050905090810190601f1680156117585780820380516001836020036101000a031916815260200191505b50848103835286818151815260200191508051906020019080838360005b83811015611791578082015181840152602081019050611776565b50505050905090810190601f1680156117be5780820380516001836020036101000a031916815260200191505b50848103825285818151815260200191508051906020019080838360005b838110156117f75780820151818401526020810190506117dc565b50505050905090810190601f1680156118245780820380516001836020036101000a031916815260200191505b50965050505050505060405180910390a1505050565b60006001826040518082805190602001908083835b60208310611872578051825260208201915060208101905060208303925061184f565b6001836020036101000a038019825116818451168082178552505050505050905001915050908152602001604051809103902060040160009054906101000a900460ff169050919050565b606080826001846040518082805190602001908083835b602083106118f757805182526020820191506020810190506020830392506118d4565b6001836020036101000a0380198251168184511680821785525050505050509050019150509081526020016040518091039020600301808054600181600116156101000203166002900480601f0160208091040260200160405190810160405280929190818152602001828054600181600116156101000203166002900480156119c25780601f10611997576101008083540402835291602001916119c2565b820191906000526020600020905b8154815290600101906020018083116119a557829003601f168201915b5050505050905091509150915091565b606080826001846040518082805190602001908083835b60208310611a0c57805182526020820191506020810190506020830392506119e9565b6001836020036101000a0380198251168184511680821785525050505050509050019150509081526020016040518091039020600201808054600181600116156101000203166002900480601f016020809104026020016040519081016040528092919081815260200182805460018160011615610100020316600290048015611ad75780601f10611aac57610100808354040283529160200191611ad7565b820191906000526020600020905b815481529060010190602001808311611aba57829003601f168201915b5050505050905091509150915091565b611af18282611d1a565b15611b64576040517f08c379a000000000000000000000000000000000000000000000000000000000815260040180806020018281038252601b8152602001807f746865206576656e7420697320616c726561647920657869737473000000000081525060200191505060405180910390fd5b6001826040518082805190602001908083835b60208310611b9a5780518252602082019150602081019050602083039250611b77565b6001836020036101000a0380198251168184511680821785525050505050509050019150509081526020016040518091039020600101819080600181540180825580915050906001820390600052602060002001600090919290919091509080519060200190611c0b929190612291565b50507fdd7085966adf09f0b4803fe8162960b011798d85aad94ec7bd9cfa7f8f2ff6a18282604051808060200180602001838103835285818151815260200191508051906020019080838360005b83811015611c74578082015181840152602081019050611c59565b50505050905090810190601f168015611ca15780820380516001836020036101000a031916815260200191505b50838103825284818151815260200191508051906020019080838360005b83811015611cda578082015181840152602081019050611cbf565b50505050905090810190601f168015611d075780820380516001836020036101000a031916815260200191505b5094505050505060405180910390a15050565b600060606001846040518082805190602001908083835b60208310611d545780518252602082019150602081019050602083039250611d31565b6001836020036101000a0380198251168184511680821785525050505050509050019150509081526020016040518091039020600101805480602002602001604051908101604052809291908181526020016000905b82821015611e66578382906000526020600020018054600181600116156101000203166002900480601f016020809104026020016040519081016040528092919081815260200182805460018160011615610100020316600290048015611e525780601f10611e2757610100808354040283529160200191611e52565b820191906000526020600020905b815481529060010190602001808311611e3557829003601f168201915b505050505081526020019060010190611daa565b505050509050600080905060008090505b825181101561202d576000809054906101000a900473ffffffffffffffffffffffffffffffffffffffff1673ffffffffffffffffffffffffffffffffffffffff166346bdca9a86858481518110611eca57fe5b60200260200101516040518363ffffffff1660e01b8152600401808060200180602001838103835285818151815260200191508051906020019080838360005b83811015611f25578082015181840152602081019050611f0a565b50505050905090810190601f168015611f525780820380516001836020036101000a031916815260200191505b50838103825284818151815260200191508051906020019080838360005b83811015611f8b578082015181840152602081019050611f70565b50505050905090810190601f168015611fb85780820380516001836020036101000a031916815260200191505b5094505050505060206040518083038186803b158015611fd757600080fd5b505afa158015611feb573d6000803e3d6000fd5b505050506040513d602081101561200157600080fd5b810190808051906020019092919050505015612020576001915061202d565b8080600101915050611e77565b50809250505092915050565b606080836001856040518082805190602001908083835b602083106120735780518252602082019150602081019050602083039250612050565b6001836020036101000a038019825116818451168082178552505050505050905001915050908152602001604051809103902060010184815481106120b457fe5b90600052602060002001808054600181600116156101000203166002900480601f0160208091040260200160405190810160405280929190818152602001828054600181600116156101000203166002900480156121535780601f1061212857610100808354040283529160200191612153565b820191906000526020600020905b81548152906001019060200180831161213657829003601f168201915b50505050509050915091509250929050565b606080836001856040518082805190602001908083835b6020831061219f578051825260208201915060208101905060208303925061217c565b6001836020036101000a038019825116818451168082178552505050505050905001915050908152602001604051809103902060000184815481106121e057fe5b90600052602060002001808054600181600116156101000203166002900480601f01602080910402602001604051908101604052809291908181526020018280546001816001161561010002031660029004801561227f5780601f106122545761010080835404028352916020019161227f565b820191906000526020600020905b81548152906001019060200180831161226257829003601f168201915b50505050509050915091509250929050565b828054600181600116156101000203166002900490600052602060002090601f016020900481019282601f106122d257805160ff1916838001178555612300565b82800160010185558215612300579182015b828111156122ff5782518255916020019190600101906122e4565b5b50905061230d9190612311565b5090565b61233391905b8082111561232f576000816000905550600101612317565b5090565b9056fea265627a7a723158200f0bd1d21faaec400b5ccc47b63fdb8e560281ce63c7aca5811092414a84711864736f6c63430005100032",
  "source": "pragma solidity >=0.4.21 <0.7.0;\nimport \"./Strings.sol\";\n\ncontract Agent {\n    function setEvent(string memory _agentId,string memory _eventId)public;\n    function setObject(string memory _agentId,string memory _objectHash)public;\n    function setAgent(string memory _agentId,string memory _name,string memory _agentType)public;\n\n    function getAgentExists(string memory _agentId)public view returns (bool);\n    function getAgentObjectExists(string memory _agentId, string memory _objectHash)public view returns (bool);\n    function getAgentEventExists(string memory _agentId, string memory _eventId)public view returns (bool);\n\n    function getObject(string memory _agentId, uint256 _objectIndex ) public view returns (string memory, string memory);\n    function getEvent(string memory _agentId, uint256 _eventIndex ) public view returns (string memory, string memory);\n    function getAgentType(string memory _agentId) public view returns (string memory, string memory);\n    function getAgentName(string memory _agentId) public view returns (string memory, string memory);\n}\n\n\ncontract ProvAgent is Agent {\n    Strings st;\n    struct AgentData {\n        string[] objects; //hash\n        string[] events;\n        string name;\n        string agentType;\n        bool isValid;\n    }\n\n\n    mapping(string => AgentData) private provAgents;\n\n    string[] agents;\n\n    event EventSet(string _agentId,string _eventId);\n    event ObjectSet(string _agentId,string _objectHash);\n    event AgentSet(string _agentId,string _name,string _agentType);\n\n    function setEvent(string memory _agentId,string memory _eventId)public {\n        if (getAgentEventExists(_agentId, _eventId)) {\n            revert(\"the event is already exists\");\n        }\n        provAgents[_agentId].events.push(_eventId);\n        emit EventSet(_agentId, _eventId);\n    }\n\n    function setObject(string memory _agentId,string memory _objectHash)public{\n        if (getAgentObjectExists(_agentId, _objectHash)) {\n            revert(\"the object is already exists\");\n        }\n        provAgents[_agentId].objects.push(_objectHash);\n        emit ObjectSet(_agentId,_objectHash);\n\n    }\n    function setAgent(string memory _agentId,string memory _name,string memory _agentType)public{\n        if (getAgentExists(_agentId)) {\n            revert(\"the agent is already exists\");\n        }\n        provAgents[_agentId].isValid = true;\n        provAgents[_agentId].name = _name;\n        provAgents[_agentId].agentType = _agentType;\n        emit AgentSet(_agentId,_name,_agentType);\n\n    }\n\n    function getAgentExists(string memory _agentId)public view returns (bool){\n        return provAgents[_agentId].isValid;\n    }\n    function getAgentObjectExists(string memory _agentId, string memory _objectHash)public view returns (bool){\n        string[] memory array = provAgents[_agentId].objects;\n        bool flag = false;\n        for (uint index = 0; index < array.length; index++) {\n            if(st.equal(_objectHash,array[index])) {\n                flag = true;\n                break;\n            }\n        }\n        return flag;\n    }\n    function getAgentEventExists(string memory _agentId, string memory _eventId)public view returns (bool){\n        string[] memory array = provAgents[_agentId].events;\n        bool flag = false;\n        for (uint index = 0; index < array.length; index++) {\n            if(st.equal(_eventId,array[index])) {\n                flag = true;\n                break;\n            }\n        }\n        return flag;\n    }\n\n    function getObject(string memory _agentId, uint256 _objectIndex ) public view returns (string memory, string memory){\n        return (_agentId,provAgents[_agentId].objects[_objectIndex]);\n\n    }\n    function getEvent(string memory _agentId, uint256 _eventIndex ) public view returns (string memory, string memory){\n        return (_agentId,provAgents[_agentId].events[_eventIndex]);\n    }\n\n    function getAgentType(string memory _agentId) public view returns (string memory, string memory){\n        return (_agentId,provAgents[_agentId].agentType);\n    }\n\n    function getAgentName(string memory _agentId) public view returns (string memory, string memory){\n        return (_agentId,provAgents[_agentId].name);\n    }\n}",
  "sourcePath": "C:\\DiskF\\Truffle\\Vue-Dapp\\contracts\\Agent.sol",
  "compiler": {
    "name": "solc",
    "version": "0.5.16+commit.9c3226ce.Emscripten.clang"
  },
  "schemaVersion": "3.1.0",
  "updatedAt": "2020-04-19T07:41:20.687Z",
  "networkType": "ethereum",
  "devdoc": {
    "methods": {}
  },
  "userdoc": {
    "methods": {}
  }
}