{
  "contractName": "ProvObject",
  "abi": [
    {
      "anonymous": false,
      "inputs": [
        {
          "indexed": false,
          "internalType": "string",
          "name": "_objectHash",
          "type": "string"
        },
        {
          "indexed": false,
          "internalType": "string",
          "name": "_category",
          "type": "string"
        },
        {
          "indexed": false,
          "internalType": "string",
          "name": "_format",
          "type": "string"
        }
      ],
      "name": "ObjectSet",
      "type": "event"
    },
    {
      "anonymous": false,
      "inputs": [
        {
          "indexed": false,
          "internalType": "string",
          "name": "_objectHash",
          "type": "string"
        },
        {
          "indexed": false,
          "internalType": "string",
          "name": "_agentId",
          "type": "string"
        }
      ],
      "name": "ObjectSetAgent",
      "type": "event"
    },
    {
      "anonymous": false,
      "inputs": [
        {
          "indexed": false,
          "internalType": "string",
          "name": "_objectHash",
          "type": "string"
        },
        {
          "indexed": false,
          "internalType": "string",
          "name": "_eventId",
          "type": "string"
        }
      ],
      "name": "ObjectSetEvent",
      "type": "event"
    },
    {
      "anonymous": false,
      "inputs": [
        {
          "indexed": false,
          "internalType": "string",
          "name": "_objectHash",
          "type": "string"
        },
        {
          "indexed": false,
          "internalType": "string",
          "name": "_propType",
          "type": "string"
        },
        {
          "indexed": false,
          "internalType": "string",
          "name": "_propValue",
          "type": "string"
        }
      ],
      "name": "ObjectSetProperties",
      "type": "event"
    },
    {
      "anonymous": false,
      "inputs": [
        {
          "indexed": false,
          "internalType": "string",
          "name": "_propType",
          "type": "string"
        }
      ],
      "name": "ObjectSetPropertyType",
      "type": "event"
    },
    {
      "constant": true,
      "inputs": [
        {
          "internalType": "uint256",
          "name": "",
          "type": "uint256"
        }
      ],
      "name": "objects",
      "outputs": [
        {
          "internalType": "string",
          "name": "",
          "type": "string"
        }
      ],
      "payable": false,
      "stateMutability": "view",
      "type": "function"
    },
    {
      "constant": false,
      "inputs": [
        {
          "internalType": "string",
          "name": "_propType",
          "type": "string"
        }
      ],
      "name": "setPropertyType",
      "outputs": [],
      "payable": false,
      "stateMutability": "nonpayable",
      "type": "function"
    },
    {
      "constant": false,
      "inputs": [
        {
          "internalType": "string",
          "name": "_objectHash",
          "type": "string"
        },
        {
          "internalType": "string",
          "name": "_propType",
          "type": "string"
        },
        {
          "internalType": "string",
          "name": "_propValue",
          "type": "string"
        }
      ],
      "name": "setProperties",
      "outputs": [],
      "payable": false,
      "stateMutability": "nonpayable",
      "type": "function"
    },
    {
      "constant": false,
      "inputs": [
        {
          "internalType": "string",
          "name": "_objectHash",
          "type": "string"
        },
        {
          "internalType": "string",
          "name": "_category",
          "type": "string"
        },
        {
          "internalType": "string",
          "name": "_format",
          "type": "string"
        }
      ],
      "name": "setObject",
      "outputs": [],
      "payable": false,
      "stateMutability": "nonpayable",
      "type": "function"
    },
    {
      "constant": false,
      "inputs": [
        {
          "internalType": "string",
          "name": "_objectHash",
          "type": "string"
        },
        {
          "internalType": "string",
          "name": "_eventId",
          "type": "string"
        }
      ],
      "name": "setEvent",
      "outputs": [],
      "payable": false,
      "stateMutability": "nonpayable",
      "type": "function"
    },
    {
      "constant": false,
      "inputs": [
        {
          "internalType": "string",
          "name": "_objectHash",
          "type": "string"
        },
        {
          "internalType": "string",
          "name": "_agentId",
          "type": "string"
        }
      ],
      "name": "setAgent",
      "outputs": [],
      "payable": false,
      "stateMutability": "nonpayable",
      "type": "function"
    },
    {
      "constant": true,
      "inputs": [
        {
          "internalType": "string",
          "name": "_propType",
          "type": "string"
        }
      ],
      "name": "getPropertyTypeExists",
      "outputs": [
        {
          "internalType": "bool",
          "name": "",
          "type": "bool"
        }
      ],
      "payable": false,
      "stateMutability": "view",
      "type": "function"
    },
    {
      "constant": true,
      "inputs": [
        {
          "internalType": "string",
          "name": "_objectHash",
          "type": "string"
        },
        {
          "internalType": "string",
          "name": "_propType",
          "type": "string"
        },
        {
          "internalType": "string",
          "name": "_propValue",
          "type": "string"
        }
      ],
      "name": "getObjectPropertiesExists",
      "outputs": [
        {
          "internalType": "bool",
          "name": "",
          "type": "bool"
        }
      ],
      "payable": false,
      "stateMutability": "view",
      "type": "function"
    },
    {
      "constant": true,
      "inputs": [
        {
          "internalType": "string",
          "name": "_objectHash",
          "type": "string"
        }
      ],
      "name": "getObjectExists",
      "outputs": [
        {
          "internalType": "bool",
          "name": "",
          "type": "bool"
        }
      ],
      "payable": false,
      "stateMutability": "view",
      "type": "function"
    },
    {
      "constant": true,
      "inputs": [
        {
          "internalType": "string",
          "name": "_objectHash",
          "type": "string"
        },
        {
          "internalType": "string",
          "name": "_eventId",
          "type": "string"
        }
      ],
      "name": "getObjectEventExists",
      "outputs": [
        {
          "internalType": "bool",
          "name": "",
          "type": "bool"
        }
      ],
      "payable": false,
      "stateMutability": "view",
      "type": "function"
    },
    {
      "constant": true,
      "inputs": [
        {
          "internalType": "string",
          "name": "_objectHash",
          "type": "string"
        },
        {
          "internalType": "string",
          "name": "_agentId",
          "type": "string"
        }
      ],
      "name": "getObjectAgentExists",
      "outputs": [
        {
          "internalType": "bool",
          "name": "",
          "type": "bool"
        }
      ],
      "payable": false,
      "stateMutability": "view",
      "type": "function"
    },
    {
      "constant": true,
      "inputs": [
        {
          "internalType": "string",
          "name": "_objectHash",
          "type": "string"
        }
      ],
      "name": "getNumEvents",
      "outputs": [
        {
          "internalType": "uint256",
          "name": "",
          "type": "uint256"
        }
      ],
      "payable": false,
      "stateMutability": "view",
      "type": "function"
    },
    {
      "constant": true,
      "inputs": [
        {
          "internalType": "string",
          "name": "_objectHash",
          "type": "string"
        }
      ],
      "name": "getNumAgents",
      "outputs": [
        {
          "internalType": "uint256",
          "name": "",
          "type": "uint256"
        }
      ],
      "payable": false,
      "stateMutability": "view",
      "type": "function"
    },
    {
      "constant": true,
      "inputs": [],
      "name": "getNumObject",
      "outputs": [
        {
          "internalType": "uint256",
          "name": "",
          "type": "uint256"
        }
      ],
      "payable": false,
      "stateMutability": "view",
      "type": "function"
    },
    {
      "constant": true,
      "inputs": [
        {
          "internalType": "uint256",
          "name": "_index",
          "type": "uint256"
        }
      ],
      "name": "getObject",
      "outputs": [
        {
          "internalType": "string",
          "name": "",
          "type": "string"
        }
      ],
      "payable": false,
      "stateMutability": "view",
      "type": "function"
    },
    {
      "constant": true,
      "inputs": [
        {
          "internalType": "string",
          "name": "_objectHash",
          "type": "string"
        }
      ],
      "name": "getObject",
      "outputs": [
        {
          "components": [
            {
              "components": [
                {
                  "internalType": "string",
                  "name": "propType",
                  "type": "string"
                },
                {
                  "internalType": "string",
                  "name": "propValue",
                  "type": "string"
                }
              ],
              "internalType": "struct ProvObject.ObjectProperties[]",
              "name": "properties",
              "type": "tuple[]"
            },
            {
              "internalType": "string",
              "name": "category",
              "type": "string"
            },
            {
              "internalType": "string",
              "name": "format",
              "type": "string"
            },
            {
              "internalType": "string[]",
              "name": "events",
              "type": "string[]"
            },
            {
              "internalType": "string[]",
              "name": "agents",
              "type": "string[]"
            },
            {
              "internalType": "bool",
              "name": "isValid",
              "type": "bool"
            }
          ],
          "internalType": "struct ProvObject.ObjectData",
          "name": "",
          "type": "tuple"
        }
      ],
      "payable": false,
      "stateMutability": "view",
      "type": "function"
    },
    {
      "constant": true,
      "inputs": [
        {
          "internalType": "string",
          "name": "_objectHash",
          "type": "string"
        }
      ],
      "name": "getObjectPropertiesLength",
      "outputs": [
        {
          "internalType": "uint256",
          "name": "",
          "type": "uint256"
        }
      ],
      "payable": false,
      "stateMutability": "view",
      "type": "function"
    },
    {
      "constant": true,
      "inputs": [
        {
          "internalType": "string",
          "name": "_objectHash",
          "type": "string"
        },
        {
          "internalType": "uint256",
          "name": "_propertiesIndex",
          "type": "uint256"
        }
      ],
      "name": "getObjectPropertiesLength",
      "outputs": [
        {
          "internalType": "string",
          "name": "",
          "type": "string"
        },
        {
          "internalType": "string",
          "name": "",
          "type": "string"
        }
      ],
      "payable": false,
      "stateMutability": "view",
      "type": "function"
    },
    {
      "constant": true,
      "inputs": [
        {
          "internalType": "string",
          "name": "_objectHash",
          "type": "string"
        }
      ],
      "name": "getObjectCategoryAndFormat",
      "outputs": [
        {
          "internalType": "string",
          "name": "",
          "type": "string"
        },
        {
          "internalType": "string",
          "name": "",
          "type": "string"
        }
      ],
      "payable": false,
      "stateMutability": "view",
      "type": "function"
    },
    {
      "constant": true,
      "inputs": [
        {
          "internalType": "string",
          "name": "_objectHash",
          "type": "string"
        },
        {
          "internalType": "uint256",
          "name": "_eventIndex",
          "type": "uint256"
        }
      ],
      "name": "getEvent",
      "outputs": [
        {
          "internalType": "string",
          "name": "",
          "type": "string"
        },
        {
          "internalType": "string",
          "name": "",
          "type": "string"
        }
      ],
      "payable": false,
      "stateMutability": "view",
      "type": "function"
    },
    {
      "constant": true,
      "inputs": [
        {
          "internalType": "string",
          "name": "_objectHash",
          "type": "string"
        },
        {
          "internalType": "uint256",
          "name": "_agentIndex",
          "type": "uint256"
        }
      ],
      "name": "getAgent",
      "outputs": [
        {
          "internalType": "string",
          "name": "",
          "type": "string"
        },
        {
          "internalType": "string",
          "name": "",
          "type": "string"
        }
      ],
      "payable": false,
      "stateMutability": "view",
      "type": "function"
    }
  ],
  "bytecode": "0x608060405234801561001057600080fd5b50612af0806100206000396000f3fe608060405234801561001057600080fd5b50600436106101375760003560e01c8063a2e07f9b116100b8578063db54a8141161007c578063db54a814146103c0578063e7fca0a3146103f0578063e864fe5814610421578063ed1758501461043d578063f337a4e71461046d578063fb135c8d1461049e57610137565b8063a2e07f9b146102f5578063a91623f114610311578063c4a8a67014610341578063c82e316214610372578063cd4d4d2e1461039057610137565b80634421263d116100ff5780634421263d1461022d578063500b8a47146102495780635d4ab042146102655780637221eaf8146102955780638d83cff7146102c557610137565b80630153ea911461013c57806328316b391461016c5780633594baf21461019c5780634002a2e7146101cc578063404e58f0146101fc575b600080fd5b61015660048036036101519190810190611f50565b6104ba565b60405161016391906128b6565b60405180910390f35b610186600480360361018191908101906120e8565b6109c6565b6040516101939190612703565b60405180910390f35b6101b660048036036101b19190810190611f50565b610a7f565b6040516101c391906126c6565b60405180910390f35b6101e660048036036101e19190810190611ffd565b610b80565b6040516101f391906126c6565b60405180910390f35b61021660048036036102119190810190611f50565b610edd565b604051610224929190612725565b60405180910390f35b61024760048036036102429190810190611ffd565b611063565b005b610263600480360361025e9190810190611f91565b611193565b005b61027f600480360361027a9190810190611f50565b611278565b60405161028c91906126c6565b60405180910390f35b6102af60048036036102aa9190810190611f50565b6112b0565b6040516102bc91906128d8565b60405180910390f35b6102df60048036036102da9190810190611f91565b6112de565b6040516102ec91906126c6565b60405180910390f35b61030f600480360361030a9190810190611f50565b61145a565b005b61032b60048036036103269190810190611f91565b61151c565b60405161033891906126c6565b60405180910390f35b61035b60048036036103569190810190612094565b61163b565b604051610369929190612725565b60405180910390f35b61037a61171c565b60405161038791906128d8565b60405180910390f35b6103aa60048036036103a59190810190611f50565b611729565b6040516103b791906128d8565b60405180910390f35b6103da60048036036103d59190810190611f50565b611757565b6040516103e791906128d8565b60405180910390f35b61040a60048036036104059190810190612094565b611785565b604051610418929190612725565b60405180910390f35b61043b60048036036104369190810190611f91565b611866565b005b610457600480360361045291908101906120e8565b61194b565b60405161046491906126e1565b60405180910390f35b61048760048036036104829190810190612094565b611a04565b604051610495929190612725565b60405180910390f35b6104b860048036036104b39190810190611ffd565b611bc4565b005b6104c2611d32565b6003826040516104d29190612698565b90815260200160405180910390206040518060c001604052908160008201805480602002602001604051908101604052809291908181526020016000905b828210156106865783829060005260206000209060020201604051806040016040529081600082018054600181600116156101000203166002900480601f0160208091040260200160405190810160405280929190818152602001828054600181600116156101000203166002900480156105cc5780601f106105a1576101008083540402835291602001916105cc565b820191906000526020600020905b8154815290600101906020018083116105af57829003601f168201915b50505050508152602001600182018054600181600116156101000203166002900480601f01602080910402602001604051908101604052809291908181526020018280546001816001161561010002031660029004801561066e5780601f106106435761010080835404028352916020019161066e565b820191906000526020600020905b81548152906001019060200180831161065157829003601f168201915b50505050508152505081526020019060010190610510565b505050508152602001600182018054600181600116156101000203166002900480601f0160208091040260200160405190810160405280929190818152602001828054600181600116156101000203166002900480156107275780601f106106fc57610100808354040283529160200191610727565b820191906000526020600020905b81548152906001019060200180831161070a57829003601f168201915b50505050508152602001600282018054600181600116156101000203166002900480601f0160208091040260200160405190810160405280929190818152602001828054600181600116156101000203166002900480156107c95780601f1061079e576101008083540402835291602001916107c9565b820191906000526020600020905b8154815290600101906020018083116107ac57829003601f168201915b5050505050815260200160038201805480602002602001604051908101604052809291908181526020016000905b828210156108b3578382906000526020600020018054600181600116156101000203166002900480601f01602080910402602001604051908101604052809291908181526020018280546001816001161561010002031660029004801561089f5780601f106108745761010080835404028352916020019161089f565b820191906000526020600020905b81548152906001019060200180831161088257829003601f168201915b5050505050815260200190600101906107f7565b50505050815260200160048201805480602002602001604051908101604052809291908181526020016000905b8282101561099c578382906000526020600020018054600181600116156101000203166002900480601f0160208091040260200160405190810160405280929190818152602001828054600181600116156101000203166002900480156109885780601f1061095d57610100808354040283529160200191610988565b820191906000526020600020905b81548152906001019060200180831161096b57829003601f168201915b5050505050815260200190600101906108e0565b5050505081526020016005820160009054906101000a900460ff1615151515815250509050919050565b6060600282815481106109d557fe5b906000526020600020018054600181600116156101000203166002900480601f016020809104026020016040519081016040528092919081815260200182805460018160011615610100020316600290048015610a735780601f10610a4857610100808354040283529160200191610a73565b820191906000526020600020905b815481529060010190602001808311610a5657829003601f168201915b50505050509050919050565b6000806000905060008090505b600180549050811015610b76576000809054906101000a900473ffffffffffffffffffffffffffffffffffffffff1673ffffffffffffffffffffffffffffffffffffffff166346bdca9a8560018481548110610ae457fe5b906000526020600020016040518363ffffffff1660e01b8152600401610b0b9291906127a8565b60206040518083038186803b158015610b2357600080fd5b505afa158015610b37573d6000803e3d6000fd5b505050506040513d601f19601f82011682018060405250610b5b9190810190611f27565b15610b695760019150610b76565b8080600101915050610a8c565b5080915050919050565b6000806000905060008090505b600386604051610b9d9190612698565b908152602001604051809103902060000180549050811015610ed157610bc1611d6a565b600387604051610bd19190612698565b90815260200160405180910390206000018281548110610bed57fe5b9060005260206000209060020201604051806040016040529081600082018054600181600116156101000203166002900480601f016020809104026020016040519081016040528092919081815260200182805460018160011615610100020316600290048015610c9f5780601f10610c7457610100808354040283529160200191610c9f565b820191906000526020600020905b815481529060010190602001808311610c8257829003601f168201915b50505050508152602001600182018054600181600116156101000203166002900480601f016020809104026020016040519081016040528092919081815260200182805460018160011615610100020316600290048015610d415780601f10610d1657610100808354040283529160200191610d41565b820191906000526020600020905b815481529060010190602001808311610d2457829003601f168201915b50505050508152505090506000809054906101000a900473ffffffffffffffffffffffffffffffffffffffff1673ffffffffffffffffffffffffffffffffffffffff166346bdca9a8260000151886040518363ffffffff1660e01b8152600401610dac9291906127df565b60206040518083038186803b158015610dc457600080fd5b505afa158015610dd8573d6000803e3d6000fd5b505050506040513d601f19601f82011682018060405250610dfc9190810190611f27565b8015610eb457506000809054906101000a900473ffffffffffffffffffffffffffffffffffffffff1673ffffffffffffffffffffffffffffffffffffffff166346bdca9a8260200151876040518363ffffffff1660e01b8152600401610e639291906127df565b60206040518083038186803b158015610e7b57600080fd5b505afa158015610e8f573d6000803e3d6000fd5b505050506040513d601f19601f82011682018060405250610eb39190810190611f27565b5b15610ec3576001925050610ed1565b508080600101915050610b8d565b50809150509392505050565b606080600383604051610ef09190612698565b9081526020016040518091039020600101600384604051610f119190612698565b9081526020016040518091039020600201818054600181600116156101000203166002900480601f016020809104026020016040519081016040528092919081815260200182805460018160011615610100020316600290048015610fb75780601f10610f8c57610100808354040283529160200191610fb7565b820191906000526020600020905b815481529060010190602001808311610f9a57829003601f168201915b50505050509150808054600181600116156101000203166002900480601f0160208091040260200160405190810160405280929190818152602001828054600181600116156101000203166002900480156110535780601f1061102857610100808354040283529160200191611053565b820191906000526020600020905b81548152906001019060200180831161103657829003601f168201915b5050505050905091509150915091565b61106e838383610b80565b156110ae576040517f08c379a00000000000000000000000000000000000000000000000000000000081526004016110a590612896565b60405180910390fd5b6110b6611d6a565b8281600001819052508181602001819052506003846040516110d89190612698565b908152602001604051809103902060000181908060018154018082558091505090600182039060005260206000209060020201600090919290919091506000820151816000019080519060200190611131929190611d84565b50602082015181600101908051906020019061114e929190611d84565b505050507fc8f4639aca483626ff5cc4248d2988e8cca98f19c753b54a9868d7a0c86d27d18484846040516111859392919061275c565b60405180910390a150505050565b61119d82826112de565b156111dd576040517f08c379a00000000000000000000000000000000000000000000000000000000081526004016111d490612836565b60405180910390fd5b6003826040516111ed9190612698565b9081526020016040518091039020600301819080600181540180825580915050906001820390600052602060002001600090919290919091509080519060200190611239929190611e04565b50507faf6ba4042ae0bec89739af5da5f7bd8c599cd94c911cba42996fc57a4dca11c7828260405161126c929190612725565b60405180910390a15050565b600060038260405161128a9190612698565b908152602001604051809103902060050160009054906101000a900460ff169050919050565b60006003826040516112c29190612698565b9081526020016040518091039020600401805490509050919050565b6000806003846040516112f19190612698565b908152602001604051809103902060050160009054906101000a900460ff169050600080905060008090505b60038660405161132d9190612698565b908152602001604051809103902060030180549050811015611445576000809054906101000a900473ffffffffffffffffffffffffffffffffffffffff1673ffffffffffffffffffffffffffffffffffffffff166346bdca9a866003896040516113979190612698565b908152602001604051809103902060030184815481106113b357fe5b906000526020600020016040518363ffffffff1660e01b81526004016113da9291906127a8565b60206040518083038186803b1580156113f257600080fd5b505afa158015611406573d6000803e3d6000fd5b505050506040513d601f19601f8201168201806040525061142a9190810190611f27565b156114385760019150611445565b808060010191505061131d565b508180156114505750805b9250505092915050565b61146381610a7f565b156114a3576040517f08c379a000000000000000000000000000000000000000000000000000000000815260040161149a90612876565b60405180910390fd5b60018190806001815401808255809150509060018203906000526020600020016000909192909190915090805190602001906114e0929190611e04565b50507f961b734c41327bf9cb361abefb818c2fdaa9534dd6eb5a55626e56501f2b6b6e816040516115119190612703565b60405180910390a150565b60008060038460405161152f9190612698565b908152602001604051809103902060050160009054906101000a900460ff169050600080905060008090505b60038660405161156b9190612698565b908152602001604051809103902060030180549050811015611626576003866040516115979190612698565b908152602001604051809103902060030181815481106115b357fe5b906000526020600020016040516020016115cd91906126af565b60405160208183030381529060405280519060200120856040516020016115f49190612698565b6040516020818303038152906040528051906020012014156116195760019150611626565b808060010191505061155b565b508180156116315750805b9250505092915050565b6060808360038560405161164f9190612698565b9081526020016040518091039020600301848154811061166b57fe5b90600052602060002001808054600181600116156101000203166002900480601f01602080910402602001604051908101604052809291908181526020018280546001816001161561010002031660029004801561170a5780601f106116df5761010080835404028352916020019161170a565b820191906000526020600020905b8154815290600101906020018083116116ed57829003601f168201915b50505050509050915091509250929050565b6000600280549050905090565b600060038260405161173b9190612698565b9081526020016040518091039020600001805490509050919050565b60006003826040516117699190612698565b9081526020016040518091039020600301805490509050919050565b606080836003856040516117999190612698565b908152602001604051809103902060040184815481106117b557fe5b90600052602060002001808054600181600116156101000203166002900480601f0160208091040260200160405190810160405280929190818152602001828054600181600116156101000203166002900480156118545780601f1061182957610100808354040283529160200191611854565b820191906000526020600020905b81548152906001019060200180831161183757829003601f168201915b50505050509050915091509250929050565b611870828261151c565b156118b0576040517f08c379a00000000000000000000000000000000000000000000000000000000081526004016118a790612856565b60405180910390fd5b6003826040516118c09190612698565b908152602001604051809103902060030181908060018154018082558091505090600182039060005260206000200160009091929091909150908051906020019061190c929190611e04565b50507fce134c2f6749a7c8c27263fd44938e75a902092c93fbc45a5bbee3f362f9361e828260405161193f929190612725565b60405180910390a15050565b6002818154811061195857fe5b906000526020600020016000915090508054600181600116156101000203166002900480601f0160208091040260200160405190810160405280929190818152602001828054600181600116156101000203166002900480156119fc5780601f106119d1576101008083540402835291602001916119fc565b820191906000526020600020905b8154815290600101906020018083116119df57829003601f168201915b505050505081565b606080600384604051611a179190612698565b90815260200160405180910390206000018381548110611a3357fe5b9060005260206000209060020201600001600385604051611a549190612698565b90815260200160405180910390206000018481548110611a7057fe5b9060005260206000209060020201600101818054600181600116156101000203166002900480601f016020809104026020016040519081016040528092919081815260200182805460018160011615610100020316600290048015611b165780601f10611aeb57610100808354040283529160200191611b16565b820191906000526020600020905b815481529060010190602001808311611af957829003601f168201915b50505050509150808054600181600116156101000203166002900480601f016020809104026020016040519081016040528092919081815260200182805460018160011615610100020316600290048015611bb25780601f10611b8757610100808354040283529160200191611bb2565b820191906000526020600020905b815481529060010190602001808311611b9557829003601f168201915b50505050509050915091509250929050565b611bcd83611278565b15611c0d576040517f08c379a0000000000000000000000000000000000000000000000000000000008152600401611c0490612816565b60405180910390fd5b6001600384604051611c1f9190612698565b908152602001604051809103902060050160006101000a81548160ff02191690831515021790555081600384604051611c589190612698565b90815260200160405180910390206001019080519060200190611c7c929190611e04565b5080600384604051611c8e9190612698565b90815260200160405180910390206002019080519060200190611cb2929190611e04565b506002839080600181540180825580915050906001820390600052602060002001600090919290919091509080519060200190611cf0929190611e04565b50507f5f1407d55cfb9234116ab0968b1ac0eb46b3a3e00530145812e7a97026f3b1cd838383604051611d259392919061275c565b60405180910390a1505050565b6040518060c0016040528060608152602001606081526020016060815260200160608152602001606081526020016000151581525090565b604051806040016040528060608152602001606081525090565b828054600181600116156101000203166002900490600052602060002090601f016020900481019282601f10611dc557805160ff1916838001178555611df3565b82800160010185558215611df3579182015b82811115611df2578251825591602001919060010190611dd7565b5b509050611e009190611e84565b5090565b828054600181600116156101000203166002900490600052602060002090601f016020900481019282601f10611e4557805160ff1916838001178555611e73565b82800160010185558215611e73579182015b82811115611e72578251825591602001919060010190611e57565b5b509050611e809190611e84565b5090565b611ea691905b80821115611ea2576000816000905550600101611e8a565b5090565b90565b600081519050611eb881612a7f565b92915050565b600082601f830112611ecf57600080fd5b8135611ee2611edd82612920565b6128f3565b91508082526020830160208301858383011115611efe57600080fd5b611f09838284612a2c565b50505092915050565b600081359050611f2181612a96565b92915050565b600060208284031215611f3957600080fd5b6000611f4784828501611ea9565b91505092915050565b600060208284031215611f6257600080fd5b600082013567ffffffffffffffff811115611f7c57600080fd5b611f8884828501611ebe565b91505092915050565b60008060408385031215611fa457600080fd5b600083013567ffffffffffffffff811115611fbe57600080fd5b611fca85828601611ebe565b925050602083013567ffffffffffffffff811115611fe757600080fd5b611ff385828601611ebe565b9150509250929050565b60008060006060848603121561201257600080fd5b600084013567ffffffffffffffff81111561202c57600080fd5b61203886828701611ebe565b935050602084013567ffffffffffffffff81111561205557600080fd5b61206186828701611ebe565b925050604084013567ffffffffffffffff81111561207e57600080fd5b61208a86828701611ebe565b9150509250925092565b600080604083850312156120a757600080fd5b600083013567ffffffffffffffff8111156120c157600080fd5b6120cd85828601611ebe565b92505060206120de85828601611f12565b9150509250929050565b6000602082840312156120fa57600080fd5b600061210884828501611f12565b91505092915050565b600061211d83836122ab565b905092915050565b60006121318383612645565b905092915050565b600061214482612981565b61214e81856129c7565b9350836020820285016121608561294c565b8060005b8581101561219c578484038952815161217d8582612111565b9450612188836129ad565b925060208a01995050600181019050612164565b50829750879550505050505092915050565b60006121b98261298c565b6121c381856129d8565b9350836020820285016121d58561295c565b8060005b8581101561221157848403895281516121f28582612125565b94506121fd836129ba565b925060208a019950506001810190506121d9565b50829750879550505050505092915050565b61222c81612a16565b82525050565b61223b81612a16565b82525050565b600061224c826129a2565b61225681856129fa565b9350612266818560208601612a3b565b61226f81612a6e565b840191505092915050565b6000612285826129a2565b61228f8185612a0b565b935061229f818560208601612a3b565b80840191505092915050565b60006122b682612997565b6122c081856129e9565b93506122d0818560208601612a3b565b6122d981612a6e565b840191505092915050565b60006122ef82612997565b6122f981856129fa565b9350612309818560208601612a3b565b61231281612a6e565b840191505092915050565b60008154600181166000811461233a5760018114612360576123a4565b607f600283041661234b81876129fa565b955060ff1983168652602086019350506123a4565b6002820461236e81876129fa565b95506123798561296c565b60005b8281101561239b5781548189015260018201915060208101905061237c565b80880195505050505b505092915050565b6000815460018116600081146123c957600181146123ee57612432565b607f60028304166123da8187612a0b565b955060ff1983168652808601935050612432565b600282046123fc8187612a0b565b95506124078561296c565b60005b828110156124295781548189015260018201915060208101905061240a565b82880195505050505b505092915050565b6000612447601c836129fa565b91507f746865206f626a65637420697320616c726561647920657869737473000000006000830152602082019050919050565b6000612487601b836129fa565b91507f746865206576656e7420697320616c72656164792065786973747300000000006000830152602082019050919050565b60006124c7601b836129fa565b91507f746865206167656e7420697320616c72656164792065786973747300000000006000830152602082019050919050565b60006125076022836129fa565b91507f7468652070726f70657274795479706520697320616c7265616479206578697360008301527f74730000000000000000000000000000000000000000000000000000000000006020830152604082019050919050565b600061256d6020836129fa565b91507f7468652070726f7065727469657320697320616c7265616479206578697374736000830152602082019050919050565b600060c08301600083015184820360008601526125bd82826121ae565b915050602083015184820360208601526125d782826122ab565b915050604083015184820360408601526125f182826122ab565b9150506060830151848203606086015261260b8282612139565b915050608083015184820360808601526126258282612139565b91505060a083015161263a60a0860182612223565b508091505092915050565b6000604083016000830151848203600086015261266282826122ab565b9150506020830151848203602086015261267c82826122ab565b9150508091505092915050565b61269281612a22565b82525050565b60006126a4828461227a565b915081905092915050565b60006126bb82846123ac565b915081905092915050565b60006020820190506126db6000830184612232565b92915050565b600060208201905081810360008301526126fb81846122e4565b905092915050565b6000602082019050818103600083015261271d8184612241565b905092915050565b6000604082019050818103600083015261273f8185612241565b905081810360208301526127538184612241565b90509392505050565b600060608201905081810360008301526127768186612241565b9050818103602083015261278a8185612241565b9050818103604083015261279e8184612241565b9050949350505050565b600060408201905081810360008301526127c28185612241565b905081810360208301526127d6818461231d565b90509392505050565b600060408201905081810360008301526127f981856122e4565b9050818103602083015261280d8184612241565b90509392505050565b6000602082019050818103600083015261282f8161243a565b9050919050565b6000602082019050818103600083015261284f8161247a565b9050919050565b6000602082019050818103600083015261286f816124ba565b9050919050565b6000602082019050818103600083015261288f816124fa565b9050919050565b600060208201905081810360008301526128af81612560565b9050919050565b600060208201905081810360008301526128d081846125a0565b905092915050565b60006020820190506128ed6000830184612689565b92915050565b6000604051905081810181811067ffffffffffffffff8211171561291657600080fd5b8060405250919050565b600067ffffffffffffffff82111561293757600080fd5b601f19601f8301169050602081019050919050565b6000819050602082019050919050565b6000819050602082019050919050565b60008190508160005260206000209050919050565b600081519050919050565b600081519050919050565b600081519050919050565b600081519050919050565b6000602082019050919050565b6000602082019050919050565b600082825260208201905092915050565b600082825260208201905092915050565b600082825260208201905092915050565b600082825260208201905092915050565b600081905092915050565b60008115159050919050565b6000819050919050565b82818337600083830152505050565b60005b83811015612a59578082015181840152602081019050612a3e565b83811115612a68576000848401525b50505050565b6000601f19601f8301169050919050565b612a8881612a16565b8114612a9357600080fd5b50565b612a9f81612a22565b8114612aaa57600080fd5b5056fea365627a7a72315820fe430168a8e9429249793c7b971adc1c4a661642b74fa9bc5dbe8602c7ccb2ba6c6578706572696d656e74616cf564736f6c63430005100040",
  "source": "pragma solidity >=0.4.21 <0.7.0;\npragma experimental ABIEncoderV2;\nimport \"./Strings.sol\";\n\ncontract Object {\n\n    function setPropertyType(string memory _propType)public;\n    function setProperties(string memory _objectHash, string memory _propType,string memory _propValue)public;\n    function setObject(string memory _objectHash,string memory _category,string memory _format)public;\n    function setEvent(string memory _objectHash,string memory _eventId)public;\n    function setAgent(string memory _objectHash,string memory _agentId)public;\n\n    function getPropertyTypeExists(string memory _propType)public view returns (bool);\n    function getObjectPropertiesExists(string memory _objectHash,string memory _propType,string memory _propValue)public view returns (bool);\n    function getObjectExists(string memory _objectHash)public view returns (bool);\n    function getObjectEventExists(string memory _objectHash, string memory _eventId)public view returns (bool);\n    function getObjectAgentExists(string memory _objectHash, string memory _agentId)public view returns (bool);\n\n    function getNumEvents(string memory _objectHash) public view returns (uint256);\n    function getNumAgents(string memory _objectHash) public view returns (uint256);\n    function getNumObject() public view returns (uint256);\n\n    function getObject(uint256 _index) public view returns (string memory);\n    function getObjectPropertiesLength(string memory _objectHash) public view returns (uint256);\n    function getObjectPropertiesLength(string memory _objectHash,uint256 _propertiesIndex) public view returns (string memory, string memory);\n    function getObjectCategoryAndFormat(string memory _objectHash) public view returns (string memory,string memory);\n    function getEvent(string memory _objectHash, uint256 _eventIndex) public view returns (string memory, string memory);\n    function getAgent(string memory _objectHash, uint256 _agentIndex) public view returns (string memory, string memory);\n}\n\n\ncontract ProvObject is Object {\n    Strings st;\n    struct ObjectProperties {\n        string propType;\n        string propValue;\n    }\n\n    struct ObjectData {\n        ObjectProperties[] properties;\n        string category;\n        string format;\n        string[] events; //id\n        string[] agents; //id\n        bool isValid; //shi fou yi cun zai\n    }\n\n    string[] propTypes;\n    string[] public objects;\n\n    mapping(string => ObjectData) private provObjects;\n\n    event ObjectSet(string _objectHash, string _category, string _format);\n    event ObjectSetPropertyType(string  _propType);\n    event ObjectSetProperties(string _objectHash, string _propType, string _propValue);\n    event ObjectSetEvent(string _objectHash, string _eventId);\n    event ObjectSetAgent(string _objectHash, string _agentId);\n\n    function setPropertyType(string memory _propType) public {\n        if (getPropertyTypeExists(_propType)){\n            revert(\"the propertyType is already exists\");\n        }\n        propTypes.push(_propType);\n        emit ObjectSetPropertyType(_propType);\n    }\n\n    function setProperties(string memory _objectHash,string memory _propType,string memory _propValue )public {\n        if (getObjectPropertiesExists(_objectHash,_propType, _propValue)) {\n            revert(\"the properties is already exists\");\n        }\n        ObjectProperties memory i;\n        i.propType = _propType;\n        i.propValue = _propValue;\n        provObjects[_objectHash].properties.push(i);\n        emit ObjectSetProperties(_objectHash,_propType,_propValue);\n    }\n\n    function setObject(string memory _objectHash,string memory _category,string memory _format) public {\n        if (getObjectExists(_objectHash)) {\n            revert(\"the object is already exists\");\n        }\n        provObjects[_objectHash].isValid = true;\n        provObjects[_objectHash].category = _category;\n        provObjects[_objectHash].format = _format;\n        objects.push(_objectHash);\n        emit ObjectSet(_objectHash,_category,_format);\n    }\n\n    function setEvent(string memory _objectHash,string memory _eventId) public {\n        if (getObjectEventExists(_objectHash, _eventId)) {\n            revert(\"the event is already exists\");\n        }\n        provObjects[_objectHash].events.push(_eventId);\n        emit ObjectSetEvent(_objectHash,_eventId);\n    }\n\n    function setAgent(string memory _objectHash,string memory _agentId )public {\n        if (getObjectAgentExists(_objectHash, _agentId)) {\n            revert(\"the agent is already exists\");\n        }\n        provObjects[_objectHash].events.push(_agentId);\n        emit ObjectSetAgent(_objectHash,_agentId);\n    }\n\n    function getPropertyTypeExists(string memory _propType)public view returns (bool){\n        bool flag = false;\n        for (uint index = 0; index < propTypes.length; index++) {\n            if(st.equal(_propType,propTypes[index])) {\n                flag = true;\n                break;\n            }\n        }\n        return flag;\n    }\n    function getObjectPropertiesExists(string memory _objectHash,string memory _propType,string memory _propValue)public view returns (bool){\n        bool flag = false;\n        for (uint index = 0; index < provObjects[_objectHash].properties.length; index++) {\n            ObjectProperties memory i = provObjects[_objectHash].properties[index];\n            if(st.equal(i.propType,_propType) && st.equal(i.propValue,_propValue)) {\n                flag = true;\n                break;\n            }\n        }\n        return flag;\n    }\n\n    function getObjectExists(string memory _objectHash)public view returns (bool) {\n        return provObjects[_objectHash].isValid;\n    }\n\n    function getObjectEventExists(string memory _objectHash, string memory _eventId)public view returns (bool) {\n        bool objectExists = provObjects[_objectHash].isValid;\n        bool eventExists = false;\n        for (uint index = 0; index < provObjects[_objectHash].events.length; index++) {\n            if (st.equal(_eventId,provObjects[_objectHash].events[index]))\n            // if (keccak256(abi.encodePacked(_eventId)) == keccak256(abi.encodePacked(provObjects[_objectHash].events[index])))\n            {\n                eventExists = true;\n                break;\n            }\n        }\n        return objectExists&&eventExists;\n    }\n\n    function getObjectAgentExists(string memory _objectHash, string memory _agentId)public view returns (bool) {\n        bool objectExists = provObjects[_objectHash].isValid;\n        bool agentExists = false;\n        for (uint index = 0; index < provObjects[_objectHash].events.length; index++) {\n            if (keccak256(abi.encodePacked(_agentId)) == keccak256(abi.encodePacked(provObjects[_objectHash].events[index])))\n            {\n                agentExists = true;\n                break;\n            }\n        }\n        return objectExists&&agentExists;\n    }\n\n    function getNumEvents(string memory _objectHash) public view returns (uint256) {\n        return provObjects[_objectHash].events.length;\n    }\n\n    function getNumAgents(string memory _objectHash) public view returns (uint256) {\n        return provObjects[_objectHash].agents.length;\n    }\n\n    function getNumObject() public view returns (uint256){\n        return objects.length;\n    }\n\n\n    function getObject(uint256 _index) public view returns (string memory){\n        return objects[_index];\n    }\n\n    function getObject(string memory _objectHash) public view returns (ObjectData memory){\n        return provObjects[_objectHash];\n    }\n\n    function getObjectPropertiesLength(string memory _objectHash) public view returns (uint256) {\n        return provObjects[_objectHash].properties.length;\n    }\n    function getObjectPropertiesLength(string memory _objectHash,uint256 _propertiesIndex) public view returns (string memory, string memory){\n        return (provObjects[_objectHash].properties[_propertiesIndex].propType, provObjects[_objectHash].properties[_propertiesIndex].propValue);\n    }\n\n    function getObjectCategoryAndFormat(string memory _objectHash) public view returns (string memory,string memory){\n        return (provObjects[_objectHash].category,provObjects[_objectHash].format);\n    }\n    function getEvent(string memory _objectHash, uint256 _eventIndex) public view returns (string memory, string memory) {\n        return (_objectHash, provObjects[_objectHash].events[_eventIndex]);\n    }\n\n    function getAgent(string memory _objectHash, uint256 _agentIndex) public view returns (string memory, string memory) {\n        return (_objectHash, provObjects[_objectHash].agents[_agentIndex]);\n    }\n}",
  "sourcePath": "C:\\DiskF\\Truffle\\Vue-Dapp\\contracts\\Object.sol",
  "compiler": {
    "name": "solc",
    "version": "0.5.16+commit.9c3226ce.Emscripten.clang"
  },
  "schemaVersion": "3.1.0",
  "updatedAt": "2020-04-19T07:41:20.702Z",
  "networkType": "ethereum",
  "devdoc": {
    "methods": {}
  },
  "userdoc": {
    "methods": {}
  }
}