{
  "contractName": "ProvEvent",
  "abi": [
    {
      "anonymous": false,
      "inputs": [
        {
          "indexed": false,
          "internalType": "string",
          "name": "_eventId",
          "type": "string"
        },
        {
          "indexed": false,
          "internalType": "string",
          "name": "_objectHash",
          "type": "string"
        },
        {
          "indexed": false,
          "internalType": "string",
          "name": "_time",
          "type": "string"
        }
      ],
      "name": "EventSet",
      "type": "event"
    },
    {
      "anonymous": false,
      "inputs": [
        {
          "indexed": false,
          "internalType": "string",
          "name": "_eventId",
          "type": "string"
        },
        {
          "indexed": false,
          "internalType": "string",
          "name": "_eventType",
          "type": "string"
        }
      ],
      "name": "EventTypeSet",
      "type": "event"
    },
    {
      "constant": false,
      "inputs": [
        {
          "internalType": "string",
          "name": "_eventId",
          "type": "string"
        },
        {
          "internalType": "string",
          "name": "_eventType",
          "type": "string"
        }
      ],
      "name": "setEventType",
      "outputs": [],
      "payable": false,
      "stateMutability": "nonpayable",
      "type": "function"
    },
    {
      "constant": false,
      "inputs": [
        {
          "internalType": "string",
          "name": "_eventId",
          "type": "string"
        },
        {
          "internalType": "string",
          "name": "_agentId",
          "type": "string"
        },
        {
          "internalType": "string",
          "name": "_objectHash",
          "type": "string"
        },
        {
          "internalType": "string",
          "name": "_time",
          "type": "string"
        },
        {
          "internalType": "string",
          "name": "_eventType",
          "type": "string"
        }
      ],
      "name": "setEvent",
      "outputs": [],
      "payable": false,
      "stateMutability": "nonpayable",
      "type": "function"
    },
    {
      "constant": true,
      "inputs": [
        {
          "internalType": "string",
          "name": "_eventId",
          "type": "string"
        }
      ],
      "name": "getEventExists",
      "outputs": [
        {
          "internalType": "bool",
          "name": "",
          "type": "bool"
        }
      ],
      "payable": false,
      "stateMutability": "view",
      "type": "function"
    },
    {
      "constant": true,
      "inputs": [
        {
          "internalType": "string",
          "name": "_eventId",
          "type": "string"
        },
        {
          "internalType": "string",
          "name": "_eventType",
          "type": "string"
        }
      ],
      "name": "getEventTypeExists",
      "outputs": [
        {
          "internalType": "bool",
          "name": "",
          "type": "bool"
        }
      ],
      "payable": false,
      "stateMutability": "view",
      "type": "function"
    },
    {
      "constant": true,
      "inputs": [
        {
          "internalType": "string",
          "name": "_eventId",
          "type": "string"
        }
      ],
      "name": "getAgent",
      "outputs": [
        {
          "internalType": "string",
          "name": "",
          "type": "string"
        },
        {
          "internalType": "string",
          "name": "",
          "type": "string"
        }
      ],
      "payable": false,
      "stateMutability": "view",
      "type": "function"
    },
    {
      "constant": true,
      "inputs": [
        {
          "internalType": "string",
          "name": "_eventId",
          "type": "string"
        }
      ],
      "name": "getEvent",
      "outputs": [
        {
          "components": [
            {
              "internalType": "string",
              "name": "objectHash",
              "type": "string"
            },
            {
              "internalType": "string",
              "name": "EventType",
              "type": "string"
            },
            {
              "internalType": "string",
              "name": "agentId",
              "type": "string"
            },
            {
              "internalType": "string",
              "name": "time",
              "type": "string"
            },
            {
              "internalType": "bool",
              "name": "isValid",
              "type": "bool"
            }
          ],
          "internalType": "struct ProvEvent.EventData",
          "name": "",
          "type": "tuple"
        }
      ],
      "payable": false,
      "stateMutability": "view",
      "type": "function"
    },
    {
      "constant": true,
      "inputs": [
        {
          "internalType": "string",
          "name": "_eventId",
          "type": "string"
        }
      ],
      "name": "getObject",
      "outputs": [
        {
          "internalType": "string",
          "name": "",
          "type": "string"
        },
        {
          "internalType": "string",
          "name": "",
          "type": "string"
        }
      ],
      "payable": false,
      "stateMutability": "view",
      "type": "function"
    },
    {
      "constant": true,
      "inputs": [
        {
          "internalType": "string",
          "name": "_eventId",
          "type": "string"
        }
      ],
      "name": "getEventType",
      "outputs": [
        {
          "internalType": "string",
          "name": "",
          "type": "string"
        },
        {
          "internalType": "string",
          "name": "",
          "type": "string"
        }
      ],
      "payable": false,
      "stateMutability": "view",
      "type": "function"
    },
    {
      "constant": true,
      "inputs": [
        {
          "internalType": "string",
          "name": "_eventId",
          "type": "string"
        }
      ],
      "name": "getTime",
      "outputs": [
        {
          "internalType": "string",
          "name": "",
          "type": "string"
        },
        {
          "internalType": "string",
          "name": "",
          "type": "string"
        }
      ],
      "payable": false,
      "stateMutability": "view",
      "type": "function"
    },
    {
      "constant": true,
      "inputs": [
        {
          "internalType": "string",
          "name": "s1",
          "type": "string"
        },
        {
          "internalType": "string",
          "name": "s2",
          "type": "string"
        }
      ],
      "name": "equal",
      "outputs": [
        {
          "internalType": "bool",
          "name": "",
          "type": "bool"
        }
      ],
      "payable": false,
      "stateMutability": "pure",
      "type": "function"
    }
  ],
  "bytecode": "0x608060405234801561001057600080fd5b50611326806100206000396000f3fe608060405234801561001057600080fd5b506004361061009e5760003560e01c8063a4bd55a511610066578063a4bd55a514610195578063b359cedd146101c6578063c0b3bdae146101f7578063e190206314610213578063eaf391ae146102435761009e565b80630153ea91146100a35780630cfd0813146100d457806346bdca9a146101045780637011b99e14610134578063794464e914610164575b600080fd5b6100bd60048036036100b89190810190610d43565b61025f565b6040516100cb929190611103565b60405180910390f35b6100ee60048036036100e99190810190610d84565b610329565b6040516100fb91906110e8565b60405180910390f35b61011e60048036036101199190810190610d84565b6103f6565b60405161012b91906110e8565b60405180910390f35b61014e60048036036101499190810190610d43565b61044f565b60405161015b91906110e8565b60405180910390f35b61017e60048036036101799190810190610d43565b610487565b60405161018c929190611103565b60405180910390f35b6101af60048036036101aa9190810190610d43565b610551565b6040516101bd929190611103565b60405180910390f35b6101e060048036036101db9190810190610d43565b61061b565b6040516101ee929190611103565b60405180910390f35b610211600480360361020c9190810190610d84565b6106e5565b005b61022d60048036036102289190810190610d43565b6107a2565b60405161023a91906111c6565b60405180910390f35b61025d60048036036102589190810190610df0565b610a7d565b005b6060808260018460405161027391906110d1565b9081526020016040518091039020600001808054600181600116156101000203166002900480601f0160208091040260200160405190810160405280929190818152602001828054600181600116156101000203166002900480156103195780601f106102ee57610100808354040283529160200191610319565b820191906000526020600020905b8154815290600101906020018083116102fc57829003601f168201915b5050505050905091509150915091565b60006103ee8260018560405161033f91906110d1565b90815260200160405180910390206001018054600181600116156101000203166002900480601f0160208091040260200160405190810160405280929190818152602001828054600181600116156101000203166002900480156103e45780601f106103b9576101008083540402835291602001916103e4565b820191906000526020600020905b8154815290600101906020018083116103c757829003601f168201915b50505050506103f6565b905092915050565b60008160405160200161040991906110d1565b604051602081830303815290604052805190602001208360405160200161043091906110d1565b6040516020818303038152906040528051906020012014905092915050565b600060018260405161046191906110d1565b908152602001604051809103902060040160009054906101000a900460ff169050919050565b6060808260018460405161049b91906110d1565b9081526020016040518091039020600201808054600181600116156101000203166002900480601f0160208091040260200160405190810160405280929190818152602001828054600181600116156101000203166002900480156105415780601f1061051657610100808354040283529160200191610541565b820191906000526020600020905b81548152906001019060200180831161052457829003601f168201915b5050505050905091509150915091565b6060808260018460405161056591906110d1565b9081526020016040518091039020600101808054600181600116156101000203166002900480601f01602080910402602001604051908101604052809291908181526020018280546001816001161561010002031660029004801561060b5780601f106105e05761010080835404028352916020019161060b565b820191906000526020600020905b8154815290600101906020018083116105ee57829003601f168201915b5050505050905091509150915091565b6060808260018460405161062f91906110d1565b9081526020016040518091039020600301808054600181600116156101000203166002900480601f0160208091040260200160405190810160405280929190818152602001828054600181600116156101000203166002900480156106d55780601f106106aa576101008083540402835291602001916106d5565b820191906000526020600020905b8154815290600101906020018083116106b857829003601f168201915b5050505050905091509150915091565b6106ef8282610329565b1561072f576040517f08c379a000000000000000000000000000000000000000000000000000000000815260040161072690611186565b60405180910390fd5b8060018360405161074091906110d1565b90815260200160405180910390206001019080519060200190610764929190610c19565b507f45de8a3a386f147ecc6f79b278ac4b04599fd5688743793dbcc508fee38ceeae8282604051610796929190611103565b60405180910390a15050565b6107aa610c99565b6001826040516107ba91906110d1565b90815260200160405180910390206040518060a0016040529081600082018054600181600116156101000203166002900480601f01602080910402602001604051908101604052809291908181526020018280546001816001161561010002031660029004801561086c5780601f106108415761010080835404028352916020019161086c565b820191906000526020600020905b81548152906001019060200180831161084f57829003601f168201915b50505050508152602001600182018054600181600116156101000203166002900480601f01602080910402602001604051908101604052809291908181526020018280546001816001161561010002031660029004801561090e5780601f106108e35761010080835404028352916020019161090e565b820191906000526020600020905b8154815290600101906020018083116108f157829003601f168201915b50505050508152602001600282018054600181600116156101000203166002900480601f0160208091040260200160405190810160405280929190818152602001828054600181600116156101000203166002900480156109b05780601f10610985576101008083540402835291602001916109b0565b820191906000526020600020905b81548152906001019060200180831161099357829003601f168201915b50505050508152602001600382018054600181600116156101000203166002900480601f016020809104026020016040519081016040528092919081815260200182805460018160011615610100020316600290048015610a525780601f10610a2757610100808354040283529160200191610a52565b820191906000526020600020905b815481529060010190602001808311610a3557829003601f168201915b505050505081526020016004820160009054906101000a900460ff1615151515815250509050919050565b610a868561044f565b15610ac6576040517f08c379a0000000000000000000000000000000000000000000000000000000008152600401610abd906111a6565b60405180910390fd5b60018086604051610ad791906110d1565b908152602001604051809103902060040160006101000a81548160ff02191690831515021790555082600186604051610b1091906110d1565b90815260200160405180910390206000019080519060200190610b34929190610c19565b5083600186604051610b4691906110d1565b90815260200160405180910390206002019080519060200190610b6a929190610c19565b5081600186604051610b7c91906110d1565b90815260200160405180910390206003019080519060200190610ba0929190610c19565b5080600186604051610bb291906110d1565b90815260200160405180910390206001019080519060200190610bd6929190610c19565b507f3692a44416952a7085314c0310cfcf2ffd6db600f0b833b7b8a0c11daaa0b85b858484604051610c0a9392919061113a565b60405180910390a15050505050565b828054600181600116156101000203166002900490600052602060002090601f016020900481019282601f10610c5a57805160ff1916838001178555610c88565b82800160010185558215610c88579182015b82811115610c87578251825591602001919060010190610c6c565b5b509050610c959190610cca565b5090565b6040518060a00160405280606081526020016060815260200160608152602001606081526020016000151581525090565b610cec91905b80821115610ce8576000816000905550600101610cd0565b5090565b90565b600082601f830112610d0057600080fd5b8135610d13610d0e82611215565b6111e8565b91508082526020830160208301858383011115610d2f57600080fd5b610d3a838284611290565b50505092915050565b600060208284031215610d5557600080fd5b600082013567ffffffffffffffff811115610d6f57600080fd5b610d7b84828501610cef565b91505092915050565b60008060408385031215610d9757600080fd5b600083013567ffffffffffffffff811115610db157600080fd5b610dbd85828601610cef565b925050602083013567ffffffffffffffff811115610dda57600080fd5b610de685828601610cef565b9150509250929050565b600080600080600060a08688031215610e0857600080fd5b600086013567ffffffffffffffff811115610e2257600080fd5b610e2e88828901610cef565b955050602086013567ffffffffffffffff811115610e4b57600080fd5b610e5788828901610cef565b945050604086013567ffffffffffffffff811115610e7457600080fd5b610e8088828901610cef565b935050606086013567ffffffffffffffff811115610e9d57600080fd5b610ea988828901610cef565b925050608086013567ffffffffffffffff811115610ec657600080fd5b610ed288828901610cef565b9150509295509295909350565b610ee881611284565b82525050565b610ef781611284565b82525050565b6000610f088261124c565b610f128185611268565b9350610f2281856020860161129f565b610f2b816112d2565b840191505092915050565b6000610f418261124c565b610f4b8185611279565b9350610f5b81856020860161129f565b80840191505092915050565b6000610f7282611241565b610f7c8185611257565b9350610f8c81856020860161129f565b610f95816112d2565b840191505092915050565b6000610fad602183611268565b91507f20746865206576656e74207479706520697320616c726561647920657869737460008301527f73000000000000000000000000000000000000000000000000000000000000006020830152604082019050919050565b6000611013601c83611268565b91507f20746865206576656e7420697320616c726561647920657869737473000000006000830152602082019050919050565b600060a08301600083015184820360008601526110638282610f67565b9150506020830151848203602086015261107d8282610f67565b915050604083015184820360408601526110978282610f67565b915050606083015184820360608601526110b18282610f67565b91505060808301516110c66080860182610edf565b508091505092915050565b60006110dd8284610f36565b915081905092915050565b60006020820190506110fd6000830184610eee565b92915050565b6000604082019050818103600083015261111d8185610efd565b905081810360208301526111318184610efd565b90509392505050565b600060608201905081810360008301526111548186610efd565b905081810360208301526111688185610efd565b9050818103604083015261117c8184610efd565b9050949350505050565b6000602082019050818103600083015261119f81610fa0565b9050919050565b600060208201905081810360008301526111bf81611006565b9050919050565b600060208201905081810360008301526111e08184611046565b905092915050565b6000604051905081810181811067ffffffffffffffff8211171561120b57600080fd5b8060405250919050565b600067ffffffffffffffff82111561122c57600080fd5b601f19601f8301169050602081019050919050565b600081519050919050565b600081519050919050565b600082825260208201905092915050565b600082825260208201905092915050565b600081905092915050565b60008115159050919050565b82818337600083830152505050565b60005b838110156112bd5780820151818401526020810190506112a2565b838111156112cc576000848401525b50505050565b6000601f19601f830116905091905056fea365627a7a723158209b62482427d0b521b751a3caef53215a7d810810b171921be0e42c08686b82ed6c6578706572696d656e74616cf564736f6c63430005100040",
  "source": "pragma solidity >=0.4.21 <0.7.0;\npragma experimental ABIEncoderV2;\nimport \"./Strings.sol\";\n\ncontract Event {\n    function setEventType(string memory _eventId, string memory _eventType)public;\n    function setEvent(string memory _eventId,string memory _agentId,\n                    string memory _objectHash,string memory _time,string memory _eventType)public;\n\n    function getEventExists(string memory _eventId)public view returns (bool);\n    function getEventTypeExists(string memory _eventId, string memory _eventType)public view returns (bool);\n\n    function getAgent(string memory _eventId) public view returns (string memory, string memory);\n    function getObject(string memory _eventId) public view returns (string memory, string memory);\n    function getEventType(string memory _eventId) public view returns (string memory, string memory);\n    function getTime(string memory _eventId) public view returns (string memory, string memory);\n}\n\n\ncontract ProvEvent is Event {\n    Strings st;\n    struct EventData {\n        string objectHash;\n        string EventType;\n        string agentId;\n        string time;\n        bool isValid;\n    }\n\n\n    mapping(string => EventData) private provEvents;\n    string[] events;\n    event EventTypeSet(string _eventId, string _eventType);\n    event EventSet(string _eventId, string _objectHash, string _time);\n\n    function setEventType(string memory _eventId, string memory _eventType) public {\n        if (getEventTypeExists(_eventId, _eventType)) {\n            revert(\" the event type is already exists\");\n        }\n        provEvents[_eventId].EventType = _eventType;\n        emit EventTypeSet(_eventId,_eventType);\n    }\n\n    function setEvent(string memory _eventId,string memory _agentId,\n                        string memory _objectHash,string memory _time,string memory _eventType) public {\n        if (getEventExists(_eventId)) {\n            revert(\" the event is already exists\");\n        }\n        provEvents[_eventId].isValid = true;\n        provEvents[_eventId].objectHash = _objectHash;\n        provEvents[_eventId].agentId = _agentId;\n        provEvents[_eventId].time = _time;\n        provEvents[_eventId].EventType = _eventType;\n        emit EventSet(_eventId,_objectHash,_time);\n\n    }\n\n    function getEventExists(string memory _eventId)public view returns (bool) {\n        return  provEvents[_eventId].isValid;\n    }\n\n    function getEventTypeExists(string memory _eventId, string memory _eventType)public view returns (bool){\n        return equal(_eventType,provEvents[_eventId].EventType);\n    }\n\n    function getAgent(string memory _eventId) public view returns (string memory,string memory) {\n        return (_eventId,provEvents[_eventId].agentId);\n    }\n\n    function getEvent(string memory _eventId) public view returns (EventData memory){\n        return provEvents[_eventId];\n    }\n\n    function getObject(string memory _eventId) public view returns (string memory, string memory){\n        return (_eventId,provEvents[_eventId].objectHash);\n    }\n    function getEventType(string memory _eventId) public view returns (string memory, string memory){\n        return (_eventId,provEvents[_eventId].EventType);\n    }\n\n    function getTime(string memory _eventId) public view returns (string memory, string memory) {\n        return (_eventId,provEvents[_eventId].time);\n    }\n\n    function equal(string memory s1, string memory s2)public pure returns(bool){\n        return (keccak256(abi.encodePacked(s1)) == keccak256(abi.encodePacked(s2)));\n    }\n}",
  "sourcePath": "C:\\DiskF\\Truffle\\Vue-Dapp\\contracts\\Event.sol",
  "compiler": {
    "name": "solc",
    "version": "0.5.16+commit.9c3226ce.Emscripten.clang"
  },
  "schemaVersion": "3.1.0",
  "updatedAt": "2020-04-20T13:57:55.294Z",
  "networkType": "ethereum",
  "devdoc": {
    "methods": {}
  },
  "userdoc": {
    "methods": {}
  }
}