{
  "contractName": "ProvObject",
  "abi": [
    {
      "anonymous": false,
      "inputs": [
        {
          "indexed": false,
          "internalType": "string",
          "name": "_objectHash",
          "type": "string"
        },
        {
          "indexed": false,
          "internalType": "string",
          "name": "_category",
          "type": "string"
        },
        {
          "indexed": false,
          "internalType": "string",
          "name": "_format",
          "type": "string"
        }
      ],
      "name": "ObjectSet",
      "type": "event"
    },
    {
      "anonymous": false,
      "inputs": [
        {
          "indexed": false,
          "internalType": "string",
          "name": "_objectHash",
          "type": "string"
        },
        {
          "indexed": false,
          "internalType": "string",
          "name": "_agentId",
          "type": "string"
        }
      ],
      "name": "ObjectSetAgent",
      "type": "event"
    },
    {
      "anonymous": false,
      "inputs": [
        {
          "indexed": false,
          "internalType": "string",
          "name": "_objectHash",
          "type": "string"
        },
        {
          "indexed": false,
          "internalType": "string",
          "name": "_eventId",
          "type": "string"
        }
      ],
      "name": "ObjectSetEvent",
      "type": "event"
    },
    {
      "anonymous": false,
      "inputs": [
        {
          "indexed": false,
          "internalType": "string",
          "name": "_objectHash",
          "type": "string"
        },
        {
          "indexed": false,
          "internalType": "string",
          "name": "_propType",
          "type": "string"
        },
        {
          "indexed": false,
          "internalType": "string",
          "name": "_propValue",
          "type": "string"
        }
      ],
      "name": "ObjectSetProperties",
      "type": "event"
    },
    {
      "anonymous": false,
      "inputs": [
        {
          "indexed": false,
          "internalType": "string",
          "name": "_propType",
          "type": "string"
        }
      ],
      "name": "ObjectSetPropertyType",
      "type": "event"
    },
    {
      "constant": false,
      "inputs": [
        {
          "internalType": "string",
          "name": "_propType",
          "type": "string"
        }
      ],
      "name": "setPropertyType",
      "outputs": [],
      "payable": false,
      "stateMutability": "nonpayable",
      "type": "function"
    },
    {
      "constant": false,
      "inputs": [
        {
          "internalType": "string",
          "name": "_objectHash",
          "type": "string"
        },
        {
          "internalType": "string",
          "name": "_propType",
          "type": "string"
        },
        {
          "internalType": "string",
          "name": "_propValue",
          "type": "string"
        }
      ],
      "name": "setProperties",
      "outputs": [],
      "payable": false,
      "stateMutability": "nonpayable",
      "type": "function"
    },
    {
      "constant": false,
      "inputs": [
        {
          "internalType": "string",
          "name": "_objectHash",
          "type": "string"
        },
        {
          "internalType": "string",
          "name": "_category",
          "type": "string"
        },
        {
          "internalType": "string",
          "name": "_format",
          "type": "string"
        }
      ],
      "name": "setObject",
      "outputs": [],
      "payable": false,
      "stateMutability": "nonpayable",
      "type": "function"
    },
    {
      "constant": false,
      "inputs": [
        {
          "internalType": "string",
          "name": "_objectHash",
          "type": "string"
        },
        {
          "internalType": "string",
          "name": "_eventId",
          "type": "string"
        }
      ],
      "name": "setEvent",
      "outputs": [],
      "payable": false,
      "stateMutability": "nonpayable",
      "type": "function"
    },
    {
      "constant": false,
      "inputs": [
        {
          "internalType": "string",
          "name": "_objectHash",
          "type": "string"
        },
        {
          "internalType": "string",
          "name": "_agentId",
          "type": "string"
        }
      ],
      "name": "setAgent",
      "outputs": [],
      "payable": false,
      "stateMutability": "nonpayable",
      "type": "function"
    },
    {
      "constant": true,
      "inputs": [
        {
          "internalType": "string",
          "name": "_propType",
          "type": "string"
        }
      ],
      "name": "getPropertyTypeExists",
      "outputs": [
        {
          "internalType": "bool",
          "name": "",
          "type": "bool"
        }
      ],
      "payable": false,
      "stateMutability": "view",
      "type": "function"
    },
    {
      "constant": true,
      "inputs": [
        {
          "internalType": "string",
          "name": "_objectHash",
          "type": "string"
        },
        {
          "internalType": "string",
          "name": "_propType",
          "type": "string"
        },
        {
          "internalType": "string",
          "name": "_propValue",
          "type": "string"
        }
      ],
      "name": "getObjectPropertiesExists",
      "outputs": [
        {
          "internalType": "bool",
          "name": "",
          "type": "bool"
        }
      ],
      "payable": false,
      "stateMutability": "view",
      "type": "function"
    },
    {
      "constant": true,
      "inputs": [
        {
          "internalType": "string",
          "name": "_objectHash",
          "type": "string"
        }
      ],
      "name": "getObjectExists",
      "outputs": [
        {
          "internalType": "bool",
          "name": "",
          "type": "bool"
        }
      ],
      "payable": false,
      "stateMutability": "view",
      "type": "function"
    },
    {
      "constant": true,
      "inputs": [
        {
          "internalType": "string",
          "name": "_objectHash",
          "type": "string"
        },
        {
          "internalType": "string",
          "name": "_eventId",
          "type": "string"
        }
      ],
      "name": "getObjectEventExists",
      "outputs": [
        {
          "internalType": "bool",
          "name": "",
          "type": "bool"
        }
      ],
      "payable": false,
      "stateMutability": "view",
      "type": "function"
    },
    {
      "constant": true,
      "inputs": [
        {
          "internalType": "string",
          "name": "_objectHash",
          "type": "string"
        },
        {
          "internalType": "string",
          "name": "_agentId",
          "type": "string"
        }
      ],
      "name": "getObjectAgentExists",
      "outputs": [
        {
          "internalType": "bool",
          "name": "",
          "type": "bool"
        }
      ],
      "payable": false,
      "stateMutability": "view",
      "type": "function"
    },
    {
      "constant": true,
      "inputs": [
        {
          "internalType": "string",
          "name": "_objectHash",
          "type": "string"
        }
      ],
      "name": "getNumEvents",
      "outputs": [
        {
          "internalType": "uint256",
          "name": "",
          "type": "uint256"
        }
      ],
      "payable": false,
      "stateMutability": "view",
      "type": "function"
    },
    {
      "constant": true,
      "inputs": [
        {
          "internalType": "string",
          "name": "_objectHash",
          "type": "string"
        }
      ],
      "name": "getNumAgents",
      "outputs": [
        {
          "internalType": "uint256",
          "name": "",
          "type": "uint256"
        }
      ],
      "payable": false,
      "stateMutability": "view",
      "type": "function"
    },
    {
      "constant": true,
      "inputs": [
        {
          "internalType": "string",
          "name": "_objectHash",
          "type": "string"
        }
      ],
      "name": "getObject",
      "outputs": [
        {
          "components": [
            {
              "components": [
                {
                  "internalType": "string",
                  "name": "propType",
                  "type": "string"
                },
                {
                  "internalType": "string",
                  "name": "propValue",
                  "type": "string"
                }
              ],
              "internalType": "struct ProvObject.ObjectProperties[]",
              "name": "properties",
              "type": "tuple[]"
            },
            {
              "internalType": "string",
              "name": "category",
              "type": "string"
            },
            {
              "internalType": "string",
              "name": "format",
              "type": "string"
            },
            {
              "internalType": "string[]",
              "name": "events",
              "type": "string[]"
            },
            {
              "internalType": "string[]",
              "name": "agents",
              "type": "string[]"
            },
            {
              "internalType": "bool",
              "name": "isValid",
              "type": "bool"
            }
          ],
          "internalType": "struct ProvObject.ObjectData",
          "name": "",
          "type": "tuple"
        }
      ],
      "payable": false,
      "stateMutability": "view",
      "type": "function"
    },
    {
      "constant": true,
      "inputs": [
        {
          "internalType": "string",
          "name": "_objectHash",
          "type": "string"
        },
        {
          "internalType": "uint256",
          "name": "_eventIndex",
          "type": "uint256"
        }
      ],
      "name": "getEvent",
      "outputs": [
        {
          "internalType": "string",
          "name": "",
          "type": "string"
        },
        {
          "internalType": "string",
          "name": "",
          "type": "string"
        }
      ],
      "payable": false,
      "stateMutability": "view",
      "type": "function"
    },
    {
      "constant": true,
      "inputs": [
        {
          "internalType": "string",
          "name": "_objectHash",
          "type": "string"
        },
        {
          "internalType": "uint256",
          "name": "_agentIndex",
          "type": "uint256"
        }
      ],
      "name": "getAgent",
      "outputs": [
        {
          "internalType": "string",
          "name": "",
          "type": "string"
        },
        {
          "internalType": "string",
          "name": "",
          "type": "string"
        }
      ],
      "payable": false,
      "stateMutability": "view",
      "type": "function"
    }
  ],
  "bytecode": "0x608060405234801561001057600080fd5b50612421806100206000396000f3fe608060405234801561001057600080fd5b50600436106100f55760003560e01c80638d83cff711610097578063db54a81411610066578063db54a814146102cf578063e7fca0a3146102ff578063e864fe5814610330578063fb135c8d1461034c576100f5565b80638d83cff714610222578063a2e07f9b14610252578063a91623f11461026e578063c4a8a6701461029e576100f5565b80634421263d116100d35780634421263d1461018a578063500b8a47146101a65780635d4ab042146101c25780637221eaf8146101f2576100f5565b80630153ea91146100fa5780633594baf21461012a5780634002a2e71461015a575b600080fd5b610114600480360361010f91908101906118cc565b610368565b60405161012191906121e7565b60405180910390f35b610144600480360361013f91908101906118cc565b610874565b6040516101519190612019565b60405180910390f35b610174600480360361016f9190810190611979565b610975565b6040516101819190612019565b60405180910390f35b6101a4600480360361019f9190810190611979565b610cd2565b005b6101c060048036036101bb919081019061190d565b610e02565b005b6101dc60048036036101d791908101906118cc565b610ee7565b6040516101e99190612019565b60405180910390f35b61020c600480360361020791908101906118cc565b610f1f565b6040516102199190612209565b60405180910390f35b61023c6004803603610237919081019061190d565b610f4d565b6040516102499190612019565b60405180910390f35b61026c600480360361026791908101906118cc565b6110c9565b005b6102886004803603610283919081019061190d565b61118b565b6040516102959190612019565b60405180910390f35b6102b860048036036102b39190810190611a10565b6112aa565b6040516102c6929190612056565b60405180910390f35b6102e960048036036102e491908101906118cc565b61138b565b6040516102f69190612209565b60405180910390f35b61031960048036036103149190810190611a10565b6113b9565b604051610327929190612056565b60405180910390f35b61034a6004803603610345919081019061190d565b61149a565b005b61036660048036036103619190810190611979565b61157f565b005b6103706116ae565b6003826040516103809190611feb565b90815260200160405180910390206040518060c001604052908160008201805480602002602001604051908101604052809291908181526020016000905b828210156105345783829060005260206000209060020201604051806040016040529081600082018054600181600116156101000203166002900480601f01602080910402602001604051908101604052809291908181526020018280546001816001161561010002031660029004801561047a5780601f1061044f5761010080835404028352916020019161047a565b820191906000526020600020905b81548152906001019060200180831161045d57829003601f168201915b50505050508152602001600182018054600181600116156101000203166002900480601f01602080910402602001604051908101604052809291908181526020018280546001816001161561010002031660029004801561051c5780601f106104f15761010080835404028352916020019161051c565b820191906000526020600020905b8154815290600101906020018083116104ff57829003601f168201915b505050505081525050815260200190600101906103be565b505050508152602001600182018054600181600116156101000203166002900480601f0160208091040260200160405190810160405280929190818152602001828054600181600116156101000203166002900480156105d55780601f106105aa576101008083540402835291602001916105d5565b820191906000526020600020905b8154815290600101906020018083116105b857829003601f168201915b50505050508152602001600282018054600181600116156101000203166002900480601f0160208091040260200160405190810160405280929190818152602001828054600181600116156101000203166002900480156106775780601f1061064c57610100808354040283529160200191610677565b820191906000526020600020905b81548152906001019060200180831161065a57829003601f168201915b5050505050815260200160038201805480602002602001604051908101604052809291908181526020016000905b82821015610761578382906000526020600020018054600181600116156101000203166002900480601f01602080910402602001604051908101604052809291908181526020018280546001816001161561010002031660029004801561074d5780601f106107225761010080835404028352916020019161074d565b820191906000526020600020905b81548152906001019060200180831161073057829003601f168201915b5050505050815260200190600101906106a5565b50505050815260200160048201805480602002602001604051908101604052809291908181526020016000905b8282101561084a578382906000526020600020018054600181600116156101000203166002900480601f0160208091040260200160405190810160405280929190818152602001828054600181600116156101000203166002900480156108365780601f1061080b57610100808354040283529160200191610836565b820191906000526020600020905b81548152906001019060200180831161081957829003601f168201915b50505050508152602001906001019061078e565b5050505081526020016005820160009054906101000a900460ff1615151515815250509050919050565b6000806000905060008090505b60018054905081101561096b576000809054906101000a900473ffffffffffffffffffffffffffffffffffffffff1673ffffffffffffffffffffffffffffffffffffffff166346bdca9a85600184815481106108d957fe5b906000526020600020016040518363ffffffff1660e01b81526004016109009291906120d9565b60206040518083038186803b15801561091857600080fd5b505afa15801561092c573d6000803e3d6000fd5b505050506040513d601f19601f8201168201806040525061095091908101906118a3565b1561095e576001915061096b565b8080600101915050610881565b5080915050919050565b6000806000905060008090505b6003866040516109929190611feb565b908152602001604051809103902060000180549050811015610cc6576109b66116e6565b6003876040516109c69190611feb565b908152602001604051809103902060000182815481106109e257fe5b9060005260206000209060020201604051806040016040529081600082018054600181600116156101000203166002900480601f016020809104026020016040519081016040528092919081815260200182805460018160011615610100020316600290048015610a945780601f10610a6957610100808354040283529160200191610a94565b820191906000526020600020905b815481529060010190602001808311610a7757829003601f168201915b50505050508152602001600182018054600181600116156101000203166002900480601f016020809104026020016040519081016040528092919081815260200182805460018160011615610100020316600290048015610b365780601f10610b0b57610100808354040283529160200191610b36565b820191906000526020600020905b815481529060010190602001808311610b1957829003601f168201915b50505050508152505090506000809054906101000a900473ffffffffffffffffffffffffffffffffffffffff1673ffffffffffffffffffffffffffffffffffffffff166346bdca9a8260000151886040518363ffffffff1660e01b8152600401610ba1929190612110565b60206040518083038186803b158015610bb957600080fd5b505afa158015610bcd573d6000803e3d6000fd5b505050506040513d601f19601f82011682018060405250610bf191908101906118a3565b8015610ca957506000809054906101000a900473ffffffffffffffffffffffffffffffffffffffff1673ffffffffffffffffffffffffffffffffffffffff166346bdca9a8260200151876040518363ffffffff1660e01b8152600401610c58929190612110565b60206040518083038186803b158015610c7057600080fd5b505afa158015610c84573d6000803e3d6000fd5b505050506040513d601f19601f82011682018060405250610ca891908101906118a3565b5b15610cb8576001925050610cc6565b508080600101915050610982565b50809150509392505050565b610cdd838383610975565b15610d1d576040517f08c379a0000000000000000000000000000000000000000000000000000000008152600401610d14906121c7565b60405180910390fd5b610d256116e6565b828160000181905250818160200181905250600384604051610d479190611feb565b908152602001604051809103902060000181908060018154018082558091505090600182039060005260206000209060020201600090919290919091506000820151816000019080519060200190610da0929190611700565b506020820151816001019080519060200190610dbd929190611700565b505050507fc8f4639aca483626ff5cc4248d2988e8cca98f19c753b54a9868d7a0c86d27d1848484604051610df49392919061208d565b60405180910390a150505050565b610e0c8282610f4d565b15610e4c576040517f08c379a0000000000000000000000000000000000000000000000000000000008152600401610e4390612167565b60405180910390fd5b600382604051610e5c9190611feb565b9081526020016040518091039020600301819080600181540180825580915050906001820390600052602060002001600090919290919091509080519060200190610ea8929190611780565b50507faf6ba4042ae0bec89739af5da5f7bd8c599cd94c911cba42996fc57a4dca11c78282604051610edb929190612056565b60405180910390a15050565b6000600382604051610ef99190611feb565b908152602001604051809103902060050160009054906101000a900460ff169050919050565b6000600382604051610f319190611feb565b9081526020016040518091039020600401805490509050919050565b600080600384604051610f609190611feb565b908152602001604051809103902060050160009054906101000a900460ff169050600080905060008090505b600386604051610f9c9190611feb565b9081526020016040518091039020600301805490508110156110b4576000809054906101000a900473ffffffffffffffffffffffffffffffffffffffff1673ffffffffffffffffffffffffffffffffffffffff166346bdca9a866003896040516110069190611feb565b9081526020016040518091039020600301848154811061102257fe5b906000526020600020016040518363ffffffff1660e01b81526004016110499291906120d9565b60206040518083038186803b15801561106157600080fd5b505afa158015611075573d6000803e3d6000fd5b505050506040513d601f19601f8201168201806040525061109991908101906118a3565b156110a757600191506110b4565b8080600101915050610f8c565b508180156110bf5750805b9250505092915050565b6110d281610874565b15611112576040517f08c379a0000000000000000000000000000000000000000000000000000000008152600401611109906121a7565b60405180910390fd5b600181908060018154018082558091505090600182039060005260206000200160009091929091909150908051906020019061114f929190611780565b50507f961b734c41327bf9cb361abefb818c2fdaa9534dd6eb5a55626e56501f2b6b6e816040516111809190612034565b60405180910390a150565b60008060038460405161119e9190611feb565b908152602001604051809103902060050160009054906101000a900460ff169050600080905060008090505b6003866040516111da9190611feb565b908152602001604051809103902060030180549050811015611295576003866040516112069190611feb565b9081526020016040518091039020600301818154811061122257fe5b9060005260206000200160405160200161123c9190612002565b60405160208183030381529060405280519060200120856040516020016112639190611feb565b6040516020818303038152906040528051906020012014156112885760019150611295565b80806001019150506111ca565b508180156112a05750805b9250505092915050565b606080836003856040516112be9190611feb565b908152602001604051809103902060030184815481106112da57fe5b90600052602060002001808054600181600116156101000203166002900480601f0160208091040260200160405190810160405280929190818152602001828054600181600116156101000203166002900480156113795780601f1061134e57610100808354040283529160200191611379565b820191906000526020600020905b81548152906001019060200180831161135c57829003601f168201915b50505050509050915091509250929050565b600060038260405161139d9190611feb565b9081526020016040518091039020600301805490509050919050565b606080836003856040516113cd9190611feb565b908152602001604051809103902060040184815481106113e957fe5b90600052602060002001808054600181600116156101000203166002900480601f0160208091040260200160405190810160405280929190818152602001828054600181600116156101000203166002900480156114885780601f1061145d57610100808354040283529160200191611488565b820191906000526020600020905b81548152906001019060200180831161146b57829003601f168201915b50505050509050915091509250929050565b6114a4828261118b565b156114e4576040517f08c379a00000000000000000000000000000000000000000000000000000000081526004016114db90612187565b60405180910390fd5b6003826040516114f49190611feb565b9081526020016040518091039020600301819080600181540180825580915050906001820390600052602060002001600090919290919091509080519060200190611540929190611780565b50507fce134c2f6749a7c8c27263fd44938e75a902092c93fbc45a5bbee3f362f9361e8282604051611573929190612056565b60405180910390a15050565b61158883610ee7565b156115c8576040517f08c379a00000000000000000000000000000000000000000000000000000000081526004016115bf90612147565b60405180910390fd5b60016003846040516115da9190611feb565b908152602001604051809103902060050160006101000a81548160ff021916908315150217905550816003846040516116139190611feb565b90815260200160405180910390206001019080519060200190611637929190611780565b50806003846040516116499190611feb565b9081526020016040518091039020600201908051906020019061166d929190611780565b507f5f1407d55cfb9234116ab0968b1ac0eb46b3a3e00530145812e7a97026f3b1cd8383836040516116a19392919061208d565b60405180910390a1505050565b6040518060c0016040528060608152602001606081526020016060815260200160608152602001606081526020016000151581525090565b604051806040016040528060608152602001606081525090565b828054600181600116156101000203166002900490600052602060002090601f016020900481019282601f1061174157805160ff191683800117855561176f565b8280016001018555821561176f579182015b8281111561176e578251825591602001919060010190611753565b5b50905061177c9190611800565b5090565b828054600181600116156101000203166002900490600052602060002090601f016020900481019282601f106117c157805160ff19168380011785556117ef565b828001600101855582156117ef579182015b828111156117ee5782518255916020019190600101906117d3565b5b5090506117fc9190611800565b5090565b61182291905b8082111561181e576000816000905550600101611806565b5090565b90565b600081519050611834816123b0565b92915050565b600082601f83011261184b57600080fd5b813561185e61185982612251565b612224565b9150808252602083016020830185838301111561187a57600080fd5b61188583828461235d565b50505092915050565b60008135905061189d816123c7565b92915050565b6000602082840312156118b557600080fd5b60006118c384828501611825565b91505092915050565b6000602082840312156118de57600080fd5b600082013567ffffffffffffffff8111156118f857600080fd5b6119048482850161183a565b91505092915050565b6000806040838503121561192057600080fd5b600083013567ffffffffffffffff81111561193a57600080fd5b6119468582860161183a565b925050602083013567ffffffffffffffff81111561196357600080fd5b61196f8582860161183a565b9150509250929050565b60008060006060848603121561198e57600080fd5b600084013567ffffffffffffffff8111156119a857600080fd5b6119b48682870161183a565b935050602084013567ffffffffffffffff8111156119d157600080fd5b6119dd8682870161183a565b925050604084013567ffffffffffffffff8111156119fa57600080fd5b611a068682870161183a565b9150509250925092565b60008060408385031215611a2357600080fd5b600083013567ffffffffffffffff811115611a3d57600080fd5b611a498582860161183a565b9250506020611a5a8582860161188e565b9150509250929050565b6000611a708383611bfe565b905092915050565b6000611a848383611f98565b905092915050565b6000611a97826122b2565b611aa181856122f8565b935083602082028501611ab38561227d565b8060005b85811015611aef5784840389528151611ad08582611a64565b9450611adb836122de565b925060208a01995050600181019050611ab7565b50829750879550505050505092915050565b6000611b0c826122bd565b611b168185612309565b935083602082028501611b288561228d565b8060005b85811015611b645784840389528151611b458582611a78565b9450611b50836122eb565b925060208a01995050600181019050611b2c565b50829750879550505050505092915050565b611b7f81612347565b82525050565b611b8e81612347565b82525050565b6000611b9f826122d3565b611ba9818561232b565b9350611bb981856020860161236c565b611bc28161239f565b840191505092915050565b6000611bd8826122d3565b611be2818561233c565b9350611bf281856020860161236c565b80840191505092915050565b6000611c09826122c8565b611c13818561231a565b9350611c2381856020860161236c565b611c2c8161239f565b840191505092915050565b6000611c42826122c8565b611c4c818561232b565b9350611c5c81856020860161236c565b611c658161239f565b840191505092915050565b600081546001811660008114611c8d5760018114611cb357611cf7565b607f6002830416611c9e818761232b565b955060ff198316865260208601935050611cf7565b60028204611cc1818761232b565b9550611ccc8561229d565b60005b82811015611cee57815481890152600182019150602081019050611ccf565b80880195505050505b505092915050565b600081546001811660008114611d1c5760018114611d4157611d85565b607f6002830416611d2d818761233c565b955060ff1983168652808601935050611d85565b60028204611d4f818761233c565b9550611d5a8561229d565b60005b82811015611d7c57815481890152600182019150602081019050611d5d565b82880195505050505b505092915050565b6000611d9a601c8361232b565b91507f746865206f626a65637420697320616c726561647920657869737473000000006000830152602082019050919050565b6000611dda601b8361232b565b91507f746865206576656e7420697320616c72656164792065786973747300000000006000830152602082019050919050565b6000611e1a601b8361232b565b91507f746865206167656e7420697320616c72656164792065786973747300000000006000830152602082019050919050565b6000611e5a60228361232b565b91507f7468652070726f70657274795479706520697320616c7265616479206578697360008301527f74730000000000000000000000000000000000000000000000000000000000006020830152604082019050919050565b6000611ec060208361232b565b91507f7468652070726f7065727469657320697320616c7265616479206578697374736000830152602082019050919050565b600060c0830160008301518482036000860152611f108282611b01565b91505060208301518482036020860152611f2a8282611bfe565b91505060408301518482036040860152611f448282611bfe565b91505060608301518482036060860152611f5e8282611a8c565b91505060808301518482036080860152611f788282611a8c565b91505060a0830151611f8d60a0860182611b76565b508091505092915050565b60006040830160008301518482036000860152611fb58282611bfe565b91505060208301518482036020860152611fcf8282611bfe565b9150508091505092915050565b611fe581612353565b82525050565b6000611ff78284611bcd565b915081905092915050565b600061200e8284611cff565b915081905092915050565b600060208201905061202e6000830184611b85565b92915050565b6000602082019050818103600083015261204e8184611b94565b905092915050565b600060408201905081810360008301526120708185611b94565b905081810360208301526120848184611b94565b90509392505050565b600060608201905081810360008301526120a78186611b94565b905081810360208301526120bb8185611b94565b905081810360408301526120cf8184611b94565b9050949350505050565b600060408201905081810360008301526120f38185611b94565b905081810360208301526121078184611c70565b90509392505050565b6000604082019050818103600083015261212a8185611c37565b9050818103602083015261213e8184611b94565b90509392505050565b6000602082019050818103600083015261216081611d8d565b9050919050565b6000602082019050818103600083015261218081611dcd565b9050919050565b600060208201905081810360008301526121a081611e0d565b9050919050565b600060208201905081810360008301526121c081611e4d565b9050919050565b600060208201905081810360008301526121e081611eb3565b9050919050565b600060208201905081810360008301526122018184611ef3565b905092915050565b600060208201905061221e6000830184611fdc565b92915050565b6000604051905081810181811067ffffffffffffffff8211171561224757600080fd5b8060405250919050565b600067ffffffffffffffff82111561226857600080fd5b601f19601f8301169050602081019050919050565b6000819050602082019050919050565b6000819050602082019050919050565b60008190508160005260206000209050919050565b600081519050919050565b600081519050919050565b600081519050919050565b600081519050919050565b6000602082019050919050565b6000602082019050919050565b600082825260208201905092915050565b600082825260208201905092915050565b600082825260208201905092915050565b600082825260208201905092915050565b600081905092915050565b60008115159050919050565b6000819050919050565b82818337600083830152505050565b60005b8381101561238a57808201518184015260208101905061236f565b83811115612399576000848401525b50505050565b6000601f19601f8301169050919050565b6123b981612347565b81146123c457600080fd5b50565b6123d081612353565b81146123db57600080fd5b5056fea365627a7a723158206ba013c59f4090b40aef7dde933eb1a946ca62b73fa297adbcd0bf93704d78856c6578706572696d656e74616cf564736f6c63430005100040",
  "source": "pragma solidity >=0.4.21 <0.7.0;\npragma experimental ABIEncoderV2;\n\nimport \"./Strings.sol\";\n\ncontract Object {\n    function setPropertyType(string memory _propType)public;\n    function setProperties(string memory _objectHash, string memory _propType,string memory _propValue)public;\n    function setObject(string memory _objectHash,string memory _category,string memory _format)public;\n    function setEvent(string memory _objectHash,string memory _eventId)public;\n    function setAgent(string memory _objectHash,string memory _agentId)public;\n\n    function getPropertyTypeExists(string memory _propType)public view returns (bool);\n    function getObjectPropertiesExists(string memory _objectHash,string memory _propType,string memory _propValue)public view returns (bool);\n    function getObjectExists(string memory _objectHash)public view returns (bool);\n    function getObjectEventExists(string memory _objectHash, string memory _eventId)public view returns (bool);\n    function getObjectAgentExists(string memory _objectHash, string memory _agentId)public view returns (bool);\n\n    function getNumEvents(string memory _objectHash) public view returns (uint256);\n    function getNumAgents(string memory _objectHash) public view returns (uint256);\n\n    function getEvent(string memory _objectHash, uint256 _eventIndex) public view returns (string memory, string memory);\n    function getAgent(string memory _objectHash, uint256 _agentIndex) public view returns (string memory, string memory);\n}\n\n\ncontract ProvObject is Object {\n    Strings st;\n    struct ObjectProperties {\n        string propType;\n        string propValue;\n    }\n\n    struct ObjectData {\n        ObjectProperties[] properties;\n        string category;\n        string format;\n        string[] events; //id\n        string[] agents; //id\n        bool isValid; //shi fou yi cun zai\n    }\n\n    string[] propTypes;\n    string[] objects;\n\n    mapping(string => ObjectData) private provObjects;\n\n    event ObjectSet(string _objectHash, string _category, string _format);\n    event ObjectSetPropertyType(string  _propType);\n    event ObjectSetProperties(string _objectHash, string _propType, string _propValue);\n    event ObjectSetEvent(string _objectHash, string _eventId);\n    event ObjectSetAgent(string _objectHash, string _agentId);\n\n    function setPropertyType(string memory _propType) public {\n        if (getPropertyTypeExists(_propType)){\n            revert(\"the propertyType is already exists\");\n        }\n        propTypes.push(_propType);\n        emit ObjectSetPropertyType(_propType);\n\n\n    }\n\n    function setProperties(string memory _objectHash,string memory _propType,string memory _propValue )public {\n        if (getObjectPropertiesExists(_objectHash,_propType, _propValue)) {\n            revert(\"the properties is already exists\");\n        }\n        ObjectProperties memory i;\n        i.propType = _propType;\n        i.propValue = _propValue;\n        provObjects[_objectHash].properties.push(i);\n        emit ObjectSetProperties(_objectHash,_propType,_propValue);\n    }\n\n    function setObject(string memory _objectHash,string memory _category,string memory _format) public {\n        if (getObjectExists(_objectHash)) {\n            revert(\"the object is already exists\");\n        }\n        provObjects[_objectHash].isValid = true;\n        provObjects[_objectHash].category = _category;\n        provObjects[_objectHash].format = _format;\n        emit ObjectSet(_objectHash,_category,_format);\n    }\n\n    function setEvent(string memory _objectHash,string memory _eventId) public {\n        if (getObjectEventExists(_objectHash, _eventId)) {\n            revert(\"the event is already exists\");\n        }\n        provObjects[_objectHash].events.push(_eventId);\n        emit ObjectSetEvent(_objectHash,_eventId);\n    }\n\n    function setAgent(string memory _objectHash,string memory _agentId )public {\n        if (getObjectAgentExists(_objectHash, _agentId)) {\n            revert(\"the agent is already exists\");\n        }\n        provObjects[_objectHash].events.push(_agentId);\n        emit ObjectSetAgent(_objectHash,_agentId);\n    }\n\n    function getPropertyTypeExists(string memory _propType)public view returns (bool){\n        bool flag = false;\n        for (uint index = 0; index < propTypes.length; index++) {\n            if(st.equal(_propType,propTypes[index])) {\n                flag = true;\n                break;\n            }\n        }\n        return flag;\n    }\n    function getObjectPropertiesExists(string memory _objectHash,string memory _propType,string memory _propValue)public view returns (bool){\n        bool flag = false;\n        for (uint index = 0; index < provObjects[_objectHash].properties.length; index++) {\n            ObjectProperties memory i = provObjects[_objectHash].properties[index];\n            if(st.equal(i.propType,_propType) && st.equal(i.propValue,_propValue)) {\n                flag = true;\n                break;\n            }\n        }\n        return flag;\n    }\n\n    function getObjectExists(string memory _objectHash)public view returns (bool) {\n        return provObjects[_objectHash].isValid;\n    }\n\n    function getObjectEventExists(string memory _objectHash, string memory _eventId)public view returns (bool) {\n        bool objectExists = provObjects[_objectHash].isValid;\n        bool eventExists = false;\n        for (uint index = 0; index < provObjects[_objectHash].events.length; index++) {\n            if (st.equal(_eventId,provObjects[_objectHash].events[index]))\n            // if (keccak256(abi.encodePacked(_eventId)) == keccak256(abi.encodePacked(provObjects[_objectHash].events[index])))\n            {\n                eventExists = true;\n                break;\n            }\n        }\n        return objectExists&&eventExists;\n    }\n\n    function getObjectAgentExists(string memory _objectHash, string memory _agentId)public view returns (bool) {\n        bool objectExists = provObjects[_objectHash].isValid;\n        bool agentExists = false;\n        for (uint index = 0; index < provObjects[_objectHash].events.length; index++) {\n            if (keccak256(abi.encodePacked(_agentId)) == keccak256(abi.encodePacked(provObjects[_objectHash].events[index])))\n            {\n                agentExists = true;\n                break;\n            }\n        }\n        return objectExists&&agentExists;\n    }\n\n    function getNumEvents(string memory _objectHash) public view returns (uint256) {\n        return provObjects[_objectHash].events.length;\n    }\n\n    function getNumAgents(string memory _objectHash) public view returns (uint256) {\n        return provObjects[_objectHash].agents.length;\n    }\n\n    function getObject(string memory _objectHash) public view returns (ObjectData memory) {\n        return provObjects[_objectHash];\n    }\n    function getEvent(string memory _objectHash, uint256 _eventIndex) public view returns (string memory, string memory) {\n        return (_objectHash, provObjects[_objectHash].events[_eventIndex]);\n    }\n\n    function getAgent(string memory _objectHash, uint256 _agentIndex) public view returns (string memory, string memory) {\n        return (_objectHash, provObjects[_objectHash].agents[_agentIndex]);\n    }\n}",
  "sourcePath": "C:\\DiskF\\Truffle\\Vue-Dapp\\contracts\\Object.sol",
  "compiler": {
    "name": "solc",
    "version": "0.5.16+commit.9c3226ce.Emscripten.clang"
  },
  "schemaVersion": "3.1.0",
  "updatedAt": "2020-04-19T14:42:07.982Z",
  "networkType": "ethereum",
  "devdoc": {
    "methods": {}
  },
  "userdoc": {
    "methods": {}
  }
}