{
  "contractName": "ProvAgent",
  "abi": [
    {
      "anonymous": false,
      "inputs": [
        {
          "indexed": false,
          "internalType": "string",
          "name": "_agentId",
          "type": "string"
        },
        {
          "indexed": false,
          "internalType": "string",
          "name": "_name",
          "type": "string"
        },
        {
          "indexed": false,
          "internalType": "string",
          "name": "_agentType",
          "type": "string"
        }
      ],
      "name": "AgentSet",
      "type": "event"
    },
    {
      "anonymous": false,
      "inputs": [
        {
          "indexed": false,
          "internalType": "string",
          "name": "_agentId",
          "type": "string"
        },
        {
          "indexed": false,
          "internalType": "string",
          "name": "_eventId",
          "type": "string"
        }
      ],
      "name": "EventSet",
      "type": "event"
    },
    {
      "anonymous": false,
      "inputs": [
        {
          "indexed": false,
          "internalType": "string",
          "name": "_agentId",
          "type": "string"
        },
        {
          "indexed": false,
          "internalType": "string",
          "name": "_objectHash",
          "type": "string"
        }
      ],
      "name": "ObjectSet",
      "type": "event"
    },
    {
      "constant": false,
      "inputs": [
        {
          "internalType": "string",
          "name": "_agentId",
          "type": "string"
        },
        {
          "internalType": "string",
          "name": "_eventId",
          "type": "string"
        }
      ],
      "name": "setEvent",
      "outputs": [],
      "payable": false,
      "stateMutability": "nonpayable",
      "type": "function"
    },
    {
      "constant": false,
      "inputs": [
        {
          "internalType": "string",
          "name": "_agentId",
          "type": "string"
        },
        {
          "internalType": "string",
          "name": "_objectHash",
          "type": "string"
        }
      ],
      "name": "setObject",
      "outputs": [],
      "payable": false,
      "stateMutability": "nonpayable",
      "type": "function"
    },
    {
      "constant": false,
      "inputs": [
        {
          "internalType": "string",
          "name": "_agentId",
          "type": "string"
        },
        {
          "internalType": "string",
          "name": "_name",
          "type": "string"
        },
        {
          "internalType": "string",
          "name": "_agentType",
          "type": "string"
        }
      ],
      "name": "setAgent",
      "outputs": [],
      "payable": false,
      "stateMutability": "nonpayable",
      "type": "function"
    },
    {
      "constant": true,
      "inputs": [
        {
          "internalType": "string",
          "name": "_agentId",
          "type": "string"
        }
      ],
      "name": "getAgentExists",
      "outputs": [
        {
          "internalType": "bool",
          "name": "",
          "type": "bool"
        }
      ],
      "payable": false,
      "stateMutability": "view",
      "type": "function"
    },
    {
      "constant": true,
      "inputs": [
        {
          "internalType": "string",
          "name": "_agentId",
          "type": "string"
        },
        {
          "internalType": "string",
          "name": "_objectHash",
          "type": "string"
        }
      ],
      "name": "getAgentObjectExists",
      "outputs": [
        {
          "internalType": "bool",
          "name": "",
          "type": "bool"
        }
      ],
      "payable": false,
      "stateMutability": "view",
      "type": "function"
    },
    {
      "constant": true,
      "inputs": [
        {
          "internalType": "string",
          "name": "_agentId",
          "type": "string"
        },
        {
          "internalType": "string",
          "name": "_eventId",
          "type": "string"
        }
      ],
      "name": "getAgentEventExists",
      "outputs": [
        {
          "internalType": "bool",
          "name": "",
          "type": "bool"
        }
      ],
      "payable": false,
      "stateMutability": "view",
      "type": "function"
    },
    {
      "constant": true,
      "inputs": [
        {
          "internalType": "string",
          "name": "_agentId",
          "type": "string"
        },
        {
          "internalType": "uint256",
          "name": "_objectIndex",
          "type": "uint256"
        }
      ],
      "name": "getObject",
      "outputs": [
        {
          "internalType": "string",
          "name": "",
          "type": "string"
        },
        {
          "internalType": "string",
          "name": "",
          "type": "string"
        }
      ],
      "payable": false,
      "stateMutability": "view",
      "type": "function"
    },
    {
      "constant": true,
      "inputs": [
        {
          "internalType": "string",
          "name": "_agentId",
          "type": "string"
        },
        {
          "internalType": "uint256",
          "name": "_eventIndex",
          "type": "uint256"
        }
      ],
      "name": "getEvent",
      "outputs": [
        {
          "internalType": "string",
          "name": "",
          "type": "string"
        },
        {
          "internalType": "string",
          "name": "",
          "type": "string"
        }
      ],
      "payable": false,
      "stateMutability": "view",
      "type": "function"
    },
    {
      "constant": true,
      "inputs": [
        {
          "internalType": "string",
          "name": "_agentId",
          "type": "string"
        }
      ],
      "name": "getAgent",
      "outputs": [
        {
          "components": [
            {
              "internalType": "string[]",
              "name": "objects",
              "type": "string[]"
            },
            {
              "internalType": "string[]",
              "name": "events",
              "type": "string[]"
            },
            {
              "internalType": "string",
              "name": "name",
              "type": "string"
            },
            {
              "internalType": "string",
              "name": "agentType",
              "type": "string"
            },
            {
              "internalType": "bool",
              "name": "isValid",
              "type": "bool"
            }
          ],
          "internalType": "struct ProvAgent.AgentData",
          "name": "",
          "type": "tuple"
        }
      ],
      "payable": false,
      "stateMutability": "view",
      "type": "function"
    },
    {
      "constant": true,
      "inputs": [
        {
          "internalType": "string",
          "name": "_agentId",
          "type": "string"
        }
      ],
      "name": "getAgentType",
      "outputs": [
        {
          "internalType": "string",
          "name": "",
          "type": "string"
        },
        {
          "internalType": "string",
          "name": "",
          "type": "string"
        }
      ],
      "payable": false,
      "stateMutability": "view",
      "type": "function"
    },
    {
      "constant": true,
      "inputs": [
        {
          "internalType": "string",
          "name": "_agentId",
          "type": "string"
        }
      ],
      "name": "getAgentName",
      "outputs": [
        {
          "internalType": "string",
          "name": "",
          "type": "string"
        },
        {
          "internalType": "string",
          "name": "",
          "type": "string"
        }
      ],
      "payable": false,
      "stateMutability": "view",
      "type": "function"
    },
    {
      "constant": true,
      "inputs": [
        {
          "internalType": "string",
          "name": "s1",
          "type": "string"
        },
        {
          "internalType": "string",
          "name": "s2",
          "type": "string"
        }
      ],
      "name": "equal",
      "outputs": [
        {
          "internalType": "bool",
          "name": "",
          "type": "bool"
        }
      ],
      "payable": false,
      "stateMutability": "pure",
      "type": "function"
    }
  ],
  "bytecode": "0x608060405234801561001057600080fd5b50611802806100206000396000f3fe608060405234801561001057600080fd5b50600436106100b45760003560e01c80634750edfa116100715780634750edfa146101b2578063500b8a47146101e3578063794464e9146101ff5780637f9dfca91461022f578063c4a8a6701461025f578063f78e820014610290576100b4565b80630867c2f7146100b9578063260eeea3146100d55780632ad9827d1461010557806333472e1c14610121578063432c237e1461015157806346bdca9a14610182575b600080fd5b6100d360048036036100ce9190810190611147565b6102c1565b005b6100ef60048036036100ea9190810190611147565b6103a6565b6040516100fc919061154a565b60405180910390f35b61011f600480360361011a91908101906111b3565b610505565b005b61013b60048036036101369190810190611106565b610633565b604051610148919061154a565b60405180910390f35b61016b60048036036101669190810190611106565b61066b565b604051610179929190611565565b60405180910390f35b61019c60048036036101979190810190611147565b610735565b6040516101a9919061154a565b60405180910390f35b6101cc60048036036101c79190810190611106565b61078e565b6040516101da929190611565565b60405180910390f35b6101fd60048036036101f89190810190611147565b610858565b005b61021960048036036102149190810190611106565b61093d565b6040516102269190611648565b60405180910390f35b61024960048036036102449190810190611147565b610ca6565b604051610256919061154a565b60405180910390f35b6102796004803603610274919081019061124a565b610e05565b604051610287929190611565565b60405180910390f35b6102aa60048036036102a5919081019061124a565b610ee6565b6040516102b8929190611565565b60405180910390f35b6102cb82826103a6565b1561030b576040517f08c379a0000000000000000000000000000000000000000000000000000000008152600401610302906115e8565b60405180910390fd5b60018260405161031b9190611533565b9081526020016040518091039020600001819080600181540180825580915050906001820390600052602060002001600090919290919091509080519060200190610367929190610fc7565b50507f3f31b14bc228974210575a00d8a5d0aaaba7983078b639f151447e0327f78635828260405161039a929190611565565b60405180910390a15050565b600060606001846040516103ba9190611533565b9081526020016040518091039020600001805480602002602001604051908101604052809291908181526020016000905b828210156104a7578382906000526020600020018054600181600116156101000203166002900480601f0160208091040260200160405190810160405280929190818152602001828054600181600116156101000203166002900480156104935780601f1061046857610100808354040283529160200191610493565b820191906000526020600020905b81548152906001019060200180831161047657829003601f168201915b5050505050815260200190600101906103eb565b505050509050600080905060008090505b82518110156104f9576104de858483815181106104d157fe5b6020026020010151610735565b156104ec57600191506104f9565b80806001019150506104b8565b50809250505092915050565b61050e83610633565b1561054e576040517f08c379a000000000000000000000000000000000000000000000000000000000815260040161054590611628565b60405180910390fd5b6001808460405161055f9190611533565b908152602001604051809103902060040160006101000a81548160ff021916908315150217905550816001846040516105989190611533565b908152602001604051809103902060020190805190602001906105bc929190610fc7565b50806001846040516105ce9190611533565b908152602001604051809103902060030190805190602001906105f2929190610fc7565b507f5403c4d568bfe3ea0a175d4464ba871e6b4e4b985f4d11247ee749794bdca4d18383836040516106269392919061159c565b60405180910390a1505050565b60006001826040516106459190611533565b908152602001604051809103902060040160009054906101000a900460ff169050919050565b6060808260018460405161067f9190611533565b9081526020016040518091039020600301808054600181600116156101000203166002900480601f0160208091040260200160405190810160405280929190818152602001828054600181600116156101000203166002900480156107255780601f106106fa57610100808354040283529160200191610725565b820191906000526020600020905b81548152906001019060200180831161070857829003601f168201915b5050505050905091509150915091565b6000816040516020016107489190611533565b604051602081830303815290604052805190602001208360405160200161076f9190611533565b6040516020818303038152906040528051906020012014905092915050565b606080826001846040516107a29190611533565b9081526020016040518091039020600201808054600181600116156101000203166002900480601f0160208091040260200160405190810160405280929190818152602001828054600181600116156101000203166002900480156108485780601f1061081d57610100808354040283529160200191610848565b820191906000526020600020905b81548152906001019060200180831161082b57829003601f168201915b5050505050905091509150915091565b6108628282610ca6565b156108a2576040517f08c379a000000000000000000000000000000000000000000000000000000000815260040161089990611608565b60405180910390fd5b6001826040516108b29190611533565b90815260200160405180910390206001018190806001815401808255809150509060018203906000526020600020016000909192909190915090805190602001906108fe929190610fc7565b50507fdd7085966adf09f0b4803fe8162960b011798d85aad94ec7bd9cfa7f8f2ff6a18282604051610931929190611565565b60405180910390a15050565b610945611047565b6001826040516109559190611533565b90815260200160405180910390206040518060a001604052908160008201805480602002602001604051908101604052809291908181526020016000905b82821015610a4f578382906000526020600020018054600181600116156101000203166002900480601f016020809104026020016040519081016040528092919081815260200182805460018160011615610100020316600290048015610a3b5780601f10610a1057610100808354040283529160200191610a3b565b820191906000526020600020905b815481529060010190602001808311610a1e57829003601f168201915b505050505081526020019060010190610993565b50505050815260200160018201805480602002602001604051908101604052809291908181526020016000905b82821015610b38578382906000526020600020018054600181600116156101000203166002900480601f016020809104026020016040519081016040528092919081815260200182805460018160011615610100020316600290048015610b245780601f10610af957610100808354040283529160200191610b24565b820191906000526020600020905b815481529060010190602001808311610b0757829003601f168201915b505050505081526020019060010190610a7c565b505050508152602001600282018054600181600116156101000203166002900480601f016020809104026020016040519081016040528092919081815260200182805460018160011615610100020316600290048015610bd95780601f10610bae57610100808354040283529160200191610bd9565b820191906000526020600020905b815481529060010190602001808311610bbc57829003601f168201915b50505050508152602001600382018054600181600116156101000203166002900480601f016020809104026020016040519081016040528092919081815260200182805460018160011615610100020316600290048015610c7b5780601f10610c5057610100808354040283529160200191610c7b565b820191906000526020600020905b815481529060010190602001808311610c5e57829003601f168201915b505050505081526020016004820160009054906101000a900460ff1615151515815250509050919050565b60006060600184604051610cba9190611533565b9081526020016040518091039020600101805480602002602001604051908101604052809291908181526020016000905b82821015610da7578382906000526020600020018054600181600116156101000203166002900480601f016020809104026020016040519081016040528092919081815260200182805460018160011615610100020316600290048015610d935780601f10610d6857610100808354040283529160200191610d93565b820191906000526020600020905b815481529060010190602001808311610d7657829003601f168201915b505050505081526020019060010190610ceb565b505050509050600080905060008090505b8251811015610df957610dde85848381518110610dd157fe5b6020026020010151610735565b15610dec5760019150610df9565b8080600101915050610db8565b50809250505092915050565b60608083600185604051610e199190611533565b90815260200160405180910390206001018481548110610e3557fe5b90600052602060002001808054600181600116156101000203166002900480601f016020809104026020016040519081016040528092919081815260200182805460018160011615610100020316600290048015610ed45780601f10610ea957610100808354040283529160200191610ed4565b820191906000526020600020905b815481529060010190602001808311610eb757829003601f168201915b50505050509050915091509250929050565b60608083600185604051610efa9190611533565b90815260200160405180910390206000018481548110610f1657fe5b90600052602060002001808054600181600116156101000203166002900480601f016020809104026020016040519081016040528092919081815260200182805460018160011615610100020316600290048015610fb55780601f10610f8a57610100808354040283529160200191610fb5565b820191906000526020600020905b815481529060010190602001808311610f9857829003601f168201915b50505050509050915091509250929050565b828054600181600116156101000203166002900490600052602060002090601f016020900481019282601f1061100857805160ff1916838001178555611036565b82800160010185558215611036579182015b8281111561103557825182559160200191906001019061101a565b5b5090506110439190611078565b5090565b6040518060a00160405280606081526020016060815260200160608152602001606081526020016000151581525090565b61109a91905b8082111561109657600081600090555060010161107e565b5090565b90565b600082601f8301126110ae57600080fd5b81356110c16110bc82611697565b61166a565b915080825260208301602083018583830111156110dd57600080fd5b6110e8838284611755565b50505092915050565b600081359050611100816117a8565b92915050565b60006020828403121561111857600080fd5b600082013567ffffffffffffffff81111561113257600080fd5b61113e8482850161109d565b91505092915050565b6000806040838503121561115a57600080fd5b600083013567ffffffffffffffff81111561117457600080fd5b6111808582860161109d565b925050602083013567ffffffffffffffff81111561119d57600080fd5b6111a98582860161109d565b9150509250929050565b6000806000606084860312156111c857600080fd5b600084013567ffffffffffffffff8111156111e257600080fd5b6111ee8682870161109d565b935050602084013567ffffffffffffffff81111561120b57600080fd5b6112178682870161109d565b925050604084013567ffffffffffffffff81111561123457600080fd5b6112408682870161109d565b9150509250925092565b6000806040838503121561125d57600080fd5b600083013567ffffffffffffffff81111561127757600080fd5b6112838582860161109d565b9250506020611294858286016110f1565b9150509250929050565b60006112aa83836113af565b905092915050565b60006112bd826116d3565b6112c78185611701565b9350836020820285016112d9856116c3565b8060005b8581101561131557848403895281516112f6858261129e565b9450611301836116f4565b925060208a019950506001810190506112dd565b50829750879550505050505092915050565b6113308161173f565b82525050565b61133f8161173f565b82525050565b6000611350826116e9565b61135a8185611723565b935061136a818560208601611764565b61137381611797565b840191505092915050565b6000611389826116e9565b6113938185611734565b93506113a3818560208601611764565b80840191505092915050565b60006113ba826116de565b6113c48185611712565b93506113d4818560208601611764565b6113dd81611797565b840191505092915050565b60006113f5601c83611723565b91507f746865206f626a65637420697320616c726561647920657869737473000000006000830152602082019050919050565b6000611435601b83611723565b91507f746865206576656e7420697320616c72656164792065786973747300000000006000830152602082019050919050565b6000611475601b83611723565b91507f746865206167656e7420697320616c72656164792065786973747300000000006000830152602082019050919050565b600060a08301600083015184820360008601526114c582826112b2565b915050602083015184820360208601526114df82826112b2565b915050604083015184820360408601526114f982826113af565b9150506060830151848203606086015261151382826113af565b91505060808301516115286080860182611327565b508091505092915050565b600061153f828461137e565b915081905092915050565b600060208201905061155f6000830184611336565b92915050565b6000604082019050818103600083015261157f8185611345565b905081810360208301526115938184611345565b90509392505050565b600060608201905081810360008301526115b68186611345565b905081810360208301526115ca8185611345565b905081810360408301526115de8184611345565b9050949350505050565b60006020820190508181036000830152611601816113e8565b9050919050565b6000602082019050818103600083015261162181611428565b9050919050565b6000602082019050818103600083015261164181611468565b9050919050565b6000602082019050818103600083015261166281846114a8565b905092915050565b6000604051905081810181811067ffffffffffffffff8211171561168d57600080fd5b8060405250919050565b600067ffffffffffffffff8211156116ae57600080fd5b601f19601f8301169050602081019050919050565b6000819050602082019050919050565b600081519050919050565b600081519050919050565b600081519050919050565b6000602082019050919050565b600082825260208201905092915050565b600082825260208201905092915050565b600082825260208201905092915050565b600081905092915050565b60008115159050919050565b6000819050919050565b82818337600083830152505050565b60005b83811015611782578082015181840152602081019050611767565b83811115611791576000848401525b50505050565b6000601f19601f8301169050919050565b6117b18161174b565b81146117bc57600080fd5b5056fea365627a7a72315820726465b7ea882aaf8a928de5761f12bc3f74a81c63ddc77af902394ccae59e746c6578706572696d656e74616cf564736f6c63430005100040",
  "source": "pragma solidity >=0.4.21 <0.7.0;\nimport \"./Strings.sol\";\npragma experimental ABIEncoderV2;\n\ncontract Agent {\n    function setEvent(string memory _agentId,string memory _eventId)public;\n    function setObject(string memory _agentId,string memory _objectHash)public;\n    function setAgent(string memory _agentId,string memory _name,string memory _agentType)public;\n\n    function getAgentExists(string memory _agentId)public view returns (bool);\n    function getAgentObjectExists(string memory _agentId, string memory _objectHash)public view returns (bool);\n    function getAgentEventExists(string memory _agentId, string memory _eventId)public view returns (bool);\n\n    function getObject(string memory _agentId, uint256 _objectIndex ) public view returns (string memory, string memory);\n    function getEvent(string memory _agentId, uint256 _eventIndex ) public view returns (string memory, string memory);\n    function getAgentType(string memory _agentId) public view returns (string memory, string memory);\n    function getAgentName(string memory _agentId) public view returns (string memory, string memory);\n}\n\n\ncontract ProvAgent is Agent {\n    Strings st;\n    struct AgentData {\n        string[] objects; //hash\n        string[] events;\n        string name;\n        string agentType;\n        bool isValid;\n    }\n\n\n    mapping(string => AgentData) private provAgents;\n\n    string[] agents;\n\n    event EventSet(string _agentId,string _eventId);\n    event ObjectSet(string _agentId,string _objectHash);\n    event AgentSet(string _agentId,string _name,string _agentType);\n\n    function setEvent(string memory _agentId,string memory _eventId)public {\n        if (getAgentEventExists(_agentId, _eventId)) {\n            revert(\"the event is already exists\");\n        }\n        provAgents[_agentId].events.push(_eventId);\n        emit EventSet(_agentId, _eventId);\n    }\n\n    function setObject(string memory _agentId,string memory _objectHash)public{\n        if (getAgentObjectExists(_agentId, _objectHash)) {\n            revert(\"the object is already exists\");\n        }\n        provAgents[_agentId].objects.push(_objectHash);\n        emit ObjectSet(_agentId,_objectHash);\n\n    }\n    function setAgent(string memory _agentId,string memory _name,string memory _agentType)public{\n        if (getAgentExists(_agentId)) {\n            revert(\"the agent is already exists\");\n        }\n        provAgents[_agentId].isValid = true;\n        provAgents[_agentId].name = _name;\n        provAgents[_agentId].agentType = _agentType;\n        emit AgentSet(_agentId,_name,_agentType);\n\n    }\n\n    function getAgentExists(string memory _agentId)public view returns (bool){\n        return provAgents[_agentId].isValid;\n    }\n    function getAgentObjectExists(string memory _agentId, string memory _objectHash)public view returns (bool){\n        string[] memory array = provAgents[_agentId].objects;\n        bool flag = false;\n        for (uint index = 0; index < array.length; index++) {\n            if(equal(_objectHash,array[index])) {\n                flag = true;\n                break;\n            }\n        }\n        return flag;\n    }\n    function getAgentEventExists(string memory _agentId, string memory _eventId)public view returns (bool){\n        string[] memory array = provAgents[_agentId].events;\n        bool flag = false;\n        for (uint index = 0; index < array.length; index++) {\n            if(equal(_eventId,array[index])) {\n                flag = true;\n                break;\n            }\n        }\n        return flag;\n    }\n\n    function getObject(string memory _agentId, uint256 _objectIndex ) public view returns (string memory, string memory){\n        return (_agentId,provAgents[_agentId].objects[_objectIndex]);\n\n    }\n    function getEvent(string memory _agentId, uint256 _eventIndex ) public view returns (string memory, string memory){\n        return (_agentId,provAgents[_agentId].events[_eventIndex]);\n    }\n\n    function getAgent(string memory _agentId) public view returns (AgentData memory){\n        return provAgents[_agentId];\n    }\n    function getAgentType(string memory _agentId) public view returns (string memory, string memory){\n        return (_agentId,provAgents[_agentId].agentType);\n    }\n\n    function getAgentName(string memory _agentId) public view returns (string memory, string memory){\n        return (_agentId,provAgents[_agentId].name);\n    }\n\n    function equal(string memory s1, string memory s2)public pure returns(bool){\n        return (keccak256(abi.encodePacked(s1)) == keccak256(abi.encodePacked(s2)));\n    }\n}",
  "sourcePath": "C:\\DiskF\\Truffle\\Vue-Dapp\\contracts\\Agent.sol",
  "compiler": {
    "name": "solc",
    "version": "0.5.16+commit.9c3226ce.Emscripten.clang"
  },
  "schemaVersion": "3.1.0",
  "updatedAt": "2020-04-19T15:00:20.646Z",
  "networkType": "ethereum",
  "devdoc": {
    "methods": {}
  },
  "userdoc": {
    "methods": {}
  }
}