{
  "contractName": "ProvAgent",
  "abi": [
    {
      "anonymous": false,
      "inputs": [
        {
          "indexed": false,
          "internalType": "string",
          "name": "_agentId",
          "type": "string"
        },
        {
          "indexed": false,
          "internalType": "string",
          "name": "_name",
          "type": "string"
        },
        {
          "indexed": false,
          "internalType": "string",
          "name": "_agentType",
          "type": "string"
        }
      ],
      "name": "AgentSet",
      "type": "event"
    },
    {
      "anonymous": false,
      "inputs": [
        {
          "indexed": false,
          "internalType": "string",
          "name": "_agentId",
          "type": "string"
        },
        {
          "indexed": false,
          "internalType": "string",
          "name": "_eventId",
          "type": "string"
        }
      ],
      "name": "EventSet",
      "type": "event"
    },
    {
      "anonymous": false,
      "inputs": [
        {
          "indexed": false,
          "internalType": "string",
          "name": "_agentId",
          "type": "string"
        },
        {
          "indexed": false,
          "internalType": "string",
          "name": "_objectHash",
          "type": "string"
        }
      ],
      "name": "ObjectSet",
      "type": "event"
    },
    {
      "constant": false,
      "inputs": [
        {
          "internalType": "string",
          "name": "_agentId",
          "type": "string"
        },
        {
          "internalType": "string",
          "name": "_eventId",
          "type": "string"
        }
      ],
      "name": "setEvent",
      "outputs": [],
      "payable": false,
      "stateMutability": "nonpayable",
      "type": "function"
    },
    {
      "constant": false,
      "inputs": [
        {
          "internalType": "string",
          "name": "_agentId",
          "type": "string"
        },
        {
          "internalType": "string",
          "name": "_objectHash",
          "type": "string"
        }
      ],
      "name": "setObject",
      "outputs": [],
      "payable": false,
      "stateMutability": "nonpayable",
      "type": "function"
    },
    {
      "constant": false,
      "inputs": [
        {
          "internalType": "string",
          "name": "_agentId",
          "type": "string"
        },
        {
          "internalType": "string",
          "name": "_name",
          "type": "string"
        },
        {
          "internalType": "string",
          "name": "_agentType",
          "type": "string"
        }
      ],
      "name": "setAgent",
      "outputs": [],
      "payable": false,
      "stateMutability": "nonpayable",
      "type": "function"
    },
    {
      "constant": true,
      "inputs": [
        {
          "internalType": "string",
          "name": "_agentId",
          "type": "string"
        }
      ],
      "name": "getAgentExists",
      "outputs": [
        {
          "internalType": "bool",
          "name": "",
          "type": "bool"
        }
      ],
      "payable": false,
      "stateMutability": "view",
      "type": "function"
    },
    {
      "constant": true,
      "inputs": [
        {
          "internalType": "string",
          "name": "_agentId",
          "type": "string"
        },
        {
          "internalType": "string",
          "name": "_objectHash",
          "type": "string"
        }
      ],
      "name": "getAgentObjectExists",
      "outputs": [
        {
          "internalType": "bool",
          "name": "",
          "type": "bool"
        }
      ],
      "payable": false,
      "stateMutability": "view",
      "type": "function"
    },
    {
      "constant": true,
      "inputs": [
        {
          "internalType": "string",
          "name": "_agentId",
          "type": "string"
        },
        {
          "internalType": "string",
          "name": "_eventId",
          "type": "string"
        }
      ],
      "name": "getAgentEventExists",
      "outputs": [
        {
          "internalType": "bool",
          "name": "",
          "type": "bool"
        }
      ],
      "payable": false,
      "stateMutability": "view",
      "type": "function"
    },
    {
      "constant": true,
      "inputs": [
        {
          "internalType": "string",
          "name": "_agentId",
          "type": "string"
        },
        {
          "internalType": "uint256",
          "name": "_objectIndex",
          "type": "uint256"
        }
      ],
      "name": "getObject",
      "outputs": [
        {
          "internalType": "string",
          "name": "",
          "type": "string"
        },
        {
          "internalType": "string",
          "name": "",
          "type": "string"
        }
      ],
      "payable": false,
      "stateMutability": "view",
      "type": "function"
    },
    {
      "constant": true,
      "inputs": [
        {
          "internalType": "string",
          "name": "_agentId",
          "type": "string"
        },
        {
          "internalType": "uint256",
          "name": "_eventIndex",
          "type": "uint256"
        }
      ],
      "name": "getEvent",
      "outputs": [
        {
          "internalType": "string",
          "name": "",
          "type": "string"
        },
        {
          "internalType": "string",
          "name": "",
          "type": "string"
        }
      ],
      "payable": false,
      "stateMutability": "view",
      "type": "function"
    },
    {
      "constant": true,
      "inputs": [
        {
          "internalType": "string",
          "name": "_agentId",
          "type": "string"
        }
      ],
      "name": "getAgent",
      "outputs": [
        {
          "components": [
            {
              "internalType": "string[]",
              "name": "objects",
              "type": "string[]"
            },
            {
              "internalType": "string[]",
              "name": "events",
              "type": "string[]"
            },
            {
              "internalType": "string",
              "name": "name",
              "type": "string"
            },
            {
              "internalType": "string",
              "name": "agentType",
              "type": "string"
            },
            {
              "internalType": "bool",
              "name": "isValid",
              "type": "bool"
            }
          ],
          "internalType": "struct ProvAgent.AgentData",
          "name": "",
          "type": "tuple"
        }
      ],
      "payable": false,
      "stateMutability": "view",
      "type": "function"
    },
    {
      "constant": true,
      "inputs": [
        {
          "internalType": "string",
          "name": "_agentId",
          "type": "string"
        }
      ],
      "name": "getAgentType",
      "outputs": [
        {
          "internalType": "string",
          "name": "",
          "type": "string"
        },
        {
          "internalType": "string",
          "name": "",
          "type": "string"
        }
      ],
      "payable": false,
      "stateMutability": "view",
      "type": "function"
    },
    {
      "constant": true,
      "inputs": [
        {
          "internalType": "string",
          "name": "_agentId",
          "type": "string"
        }
      ],
      "name": "getAgentName",
      "outputs": [
        {
          "internalType": "string",
          "name": "",
          "type": "string"
        },
        {
          "internalType": "string",
          "name": "",
          "type": "string"
        }
      ],
      "payable": false,
      "stateMutability": "view",
      "type": "function"
    }
  ],
  "bytecode": "0x608060405234801561001057600080fd5b50611977806100206000396000f3fe608060405234801561001057600080fd5b50600436106100a95760003560e01c80634750edfa116100715780634750edfa14610177578063500b8a47146101a8578063794464e9146101c45780637f9dfca9146101f4578063c4a8a67014610224578063f78e820014610255576100a9565b80630867c2f7146100ae578063260eeea3146100ca5780632ad9827d146100fa57806333472e1c14610116578063432c237e14610146575b600080fd5b6100c860048036036100c39190810190611235565b610286565b005b6100e460048036036100df9190810190611235565b61036b565b6040516100f19190611671565b60405180910390f35b610114600480360361010f91908101906112a1565b61056c565b005b610130600480360361012b91908101906111f4565b61069a565b60405161013d9190611671565b60405180910390f35b610160600480360361015b91908101906111f4565b6106d2565b60405161016e9291906116c3565b60405180910390f35b610191600480360361018c91908101906111f4565b61079c565b60405161019f9291906116c3565b60405180910390f35b6101c260048036036101bd9190810190611235565b610866565b005b6101de60048036036101d991908101906111f4565b61094b565b6040516101eb91906117a6565b60405180910390f35b61020e60048036036102099190810190611235565b610cb4565b60405161021b9190611671565b60405180910390f35b61023e60048036036102399190810190611338565b610eb5565b60405161024c9291906116c3565b60405180910390f35b61026f600480360361026a9190810190611338565b610f96565b60405161027d9291906116c3565b60405180910390f35b610290828261036b565b156102d0576040517f08c379a00000000000000000000000000000000000000000000000000000000081526004016102c790611746565b60405180910390fd5b6001826040516102e0919061165a565b908152602001604051809103902060000181908060018154018082558091505090600182039060005260206000200160009091929091909150908051906020019061032c929190611077565b50507f3f31b14bc228974210575a00d8a5d0aaaba7983078b639f151447e0327f78635828260405161035f9291906116c3565b60405180910390a15050565b6000606060018460405161037f919061165a565b9081526020016040518091039020600001805480602002602001604051908101604052809291908181526020016000905b8282101561046c578382906000526020600020018054600181600116156101000203166002900480601f0160208091040260200160405190810160405280929190818152602001828054600181600116156101000203166002900480156104585780601f1061042d57610100808354040283529160200191610458565b820191906000526020600020905b81548152906001019060200180831161043b57829003601f168201915b5050505050815260200190600101906103b0565b505050509050600080905060008090505b8251811015610560576000809054906101000a900473ffffffffffffffffffffffffffffffffffffffff1673ffffffffffffffffffffffffffffffffffffffff166346bdca9a868584815181106104d057fe5b60200260200101516040518363ffffffff1660e01b81526004016104f592919061168c565b60206040518083038186803b15801561050d57600080fd5b505afa158015610521573d6000803e3d6000fd5b505050506040513d601f19601f8201168201806040525061054591908101906111cb565b156105535760019150610560565b808060010191505061047d565b50809250505092915050565b6105758361069a565b156105b5576040517f08c379a00000000000000000000000000000000000000000000000000000000081526004016105ac90611786565b60405180910390fd5b600180846040516105c6919061165a565b908152602001604051809103902060040160006101000a81548160ff021916908315150217905550816001846040516105ff919061165a565b90815260200160405180910390206002019080519060200190610623929190611077565b5080600184604051610635919061165a565b90815260200160405180910390206003019080519060200190610659929190611077565b507f5403c4d568bfe3ea0a175d4464ba871e6b4e4b985f4d11247ee749794bdca4d183838360405161068d939291906116fa565b60405180910390a1505050565b60006001826040516106ac919061165a565b908152602001604051809103902060040160009054906101000a900460ff169050919050565b606080826001846040516106e6919061165a565b9081526020016040518091039020600301808054600181600116156101000203166002900480601f01602080910402602001604051908101604052809291908181526020018280546001816001161561010002031660029004801561078c5780601f106107615761010080835404028352916020019161078c565b820191906000526020600020905b81548152906001019060200180831161076f57829003601f168201915b5050505050905091509150915091565b606080826001846040516107b0919061165a565b9081526020016040518091039020600201808054600181600116156101000203166002900480601f0160208091040260200160405190810160405280929190818152602001828054600181600116156101000203166002900480156108565780601f1061082b57610100808354040283529160200191610856565b820191906000526020600020905b81548152906001019060200180831161083957829003601f168201915b5050505050905091509150915091565b6108708282610cb4565b156108b0576040517f08c379a00000000000000000000000000000000000000000000000000000000081526004016108a790611766565b60405180910390fd5b6001826040516108c0919061165a565b908152602001604051809103902060010181908060018154018082558091505090600182039060005260206000200160009091929091909150908051906020019061090c929190611077565b50507fdd7085966adf09f0b4803fe8162960b011798d85aad94ec7bd9cfa7f8f2ff6a1828260405161093f9291906116c3565b60405180910390a15050565b6109536110f7565b600182604051610963919061165a565b90815260200160405180910390206040518060a001604052908160008201805480602002602001604051908101604052809291908181526020016000905b82821015610a5d578382906000526020600020018054600181600116156101000203166002900480601f016020809104026020016040519081016040528092919081815260200182805460018160011615610100020316600290048015610a495780601f10610a1e57610100808354040283529160200191610a49565b820191906000526020600020905b815481529060010190602001808311610a2c57829003601f168201915b5050505050815260200190600101906109a1565b50505050815260200160018201805480602002602001604051908101604052809291908181526020016000905b82821015610b46578382906000526020600020018054600181600116156101000203166002900480601f016020809104026020016040519081016040528092919081815260200182805460018160011615610100020316600290048015610b325780601f10610b0757610100808354040283529160200191610b32565b820191906000526020600020905b815481529060010190602001808311610b1557829003601f168201915b505050505081526020019060010190610a8a565b505050508152602001600282018054600181600116156101000203166002900480601f016020809104026020016040519081016040528092919081815260200182805460018160011615610100020316600290048015610be75780601f10610bbc57610100808354040283529160200191610be7565b820191906000526020600020905b815481529060010190602001808311610bca57829003601f168201915b50505050508152602001600382018054600181600116156101000203166002900480601f016020809104026020016040519081016040528092919081815260200182805460018160011615610100020316600290048015610c895780601f10610c5e57610100808354040283529160200191610c89565b820191906000526020600020905b815481529060010190602001808311610c6c57829003601f168201915b505050505081526020016004820160009054906101000a900460ff1615151515815250509050919050565b60006060600184604051610cc8919061165a565b9081526020016040518091039020600101805480602002602001604051908101604052809291908181526020016000905b82821015610db5578382906000526020600020018054600181600116156101000203166002900480601f016020809104026020016040519081016040528092919081815260200182805460018160011615610100020316600290048015610da15780601f10610d7657610100808354040283529160200191610da1565b820191906000526020600020905b815481529060010190602001808311610d8457829003601f168201915b505050505081526020019060010190610cf9565b505050509050600080905060008090505b8251811015610ea9576000809054906101000a900473ffffffffffffffffffffffffffffffffffffffff1673ffffffffffffffffffffffffffffffffffffffff166346bdca9a86858481518110610e1957fe5b60200260200101516040518363ffffffff1660e01b8152600401610e3e92919061168c565b60206040518083038186803b158015610e5657600080fd5b505afa158015610e6a573d6000803e3d6000fd5b505050506040513d601f19601f82011682018060405250610e8e91908101906111cb565b15610e9c5760019150610ea9565b8080600101915050610dc6565b50809250505092915050565b60608083600185604051610ec9919061165a565b90815260200160405180910390206001018481548110610ee557fe5b90600052602060002001808054600181600116156101000203166002900480601f016020809104026020016040519081016040528092919081815260200182805460018160011615610100020316600290048015610f845780601f10610f5957610100808354040283529160200191610f84565b820191906000526020600020905b815481529060010190602001808311610f6757829003601f168201915b50505050509050915091509250929050565b60608083600185604051610faa919061165a565b90815260200160405180910390206000018481548110610fc657fe5b90600052602060002001808054600181600116156101000203166002900480601f0160208091040260200160405190810160405280929190818152602001828054600181600116156101000203166002900480156110655780601f1061103a57610100808354040283529160200191611065565b820191906000526020600020905b81548152906001019060200180831161104857829003601f168201915b50505050509050915091509250929050565b828054600181600116156101000203166002900490600052602060002090601f016020900481019282601f106110b857805160ff19168380011785556110e6565b828001600101855582156110e6579182015b828111156110e55782518255916020019190600101906110ca565b5b5090506110f39190611128565b5090565b6040518060a00160405280606081526020016060815260200160608152602001606081526020016000151581525090565b61114a91905b8082111561114657600081600090555060010161112e565b5090565b90565b60008151905061115c81611906565b92915050565b600082601f83011261117357600080fd5b8135611186611181826117f5565b6117c8565b915080825260208301602083018583830111156111a257600080fd5b6111ad8382846118b3565b50505092915050565b6000813590506111c58161191d565b92915050565b6000602082840312156111dd57600080fd5b60006111eb8482850161114d565b91505092915050565b60006020828403121561120657600080fd5b600082013567ffffffffffffffff81111561122057600080fd5b61122c84828501611162565b91505092915050565b6000806040838503121561124857600080fd5b600083013567ffffffffffffffff81111561126257600080fd5b61126e85828601611162565b925050602083013567ffffffffffffffff81111561128b57600080fd5b61129785828601611162565b9150509250929050565b6000806000606084860312156112b657600080fd5b600084013567ffffffffffffffff8111156112d057600080fd5b6112dc86828701611162565b935050602084013567ffffffffffffffff8111156112f957600080fd5b61130586828701611162565b925050604084013567ffffffffffffffff81111561132257600080fd5b61132e86828701611162565b9150509250925092565b6000806040838503121561134b57600080fd5b600083013567ffffffffffffffff81111561136557600080fd5b61137185828601611162565b9250506020611382858286016111b6565b9150509250929050565b6000611398838361149d565b905092915050565b60006113ab82611831565b6113b5818561185f565b9350836020820285016113c785611821565b8060005b8581101561140357848403895281516113e4858261138c565b94506113ef83611852565b925060208a019950506001810190506113cb565b50829750879550505050505092915050565b61141e8161189d565b82525050565b61142d8161189d565b82525050565b600061143e82611847565b6114488185611881565b93506114588185602086016118c2565b611461816118f5565b840191505092915050565b600061147782611847565b6114818185611892565b93506114918185602086016118c2565b80840191505092915050565b60006114a88261183c565b6114b28185611870565b93506114c28185602086016118c2565b6114cb816118f5565b840191505092915050565b60006114e18261183c565b6114eb8185611881565b93506114fb8185602086016118c2565b611504816118f5565b840191505092915050565b600061151c601c83611881565b91507f746865206f626a65637420697320616c726561647920657869737473000000006000830152602082019050919050565b600061155c601b83611881565b91507f746865206576656e7420697320616c72656164792065786973747300000000006000830152602082019050919050565b600061159c601b83611881565b91507f746865206167656e7420697320616c72656164792065786973747300000000006000830152602082019050919050565b600060a08301600083015184820360008601526115ec82826113a0565b9150506020830151848203602086015261160682826113a0565b91505060408301518482036040860152611620828261149d565b9150506060830151848203606086015261163a828261149d565b915050608083015161164f6080860182611415565b508091505092915050565b6000611666828461146c565b915081905092915050565b60006020820190506116866000830184611424565b92915050565b600060408201905081810360008301526116a68185611433565b905081810360208301526116ba81846114d6565b90509392505050565b600060408201905081810360008301526116dd8185611433565b905081810360208301526116f18184611433565b90509392505050565b600060608201905081810360008301526117148186611433565b905081810360208301526117288185611433565b9050818103604083015261173c8184611433565b9050949350505050565b6000602082019050818103600083015261175f8161150f565b9050919050565b6000602082019050818103600083015261177f8161154f565b9050919050565b6000602082019050818103600083015261179f8161158f565b9050919050565b600060208201905081810360008301526117c081846115cf565b905092915050565b6000604051905081810181811067ffffffffffffffff821117156117eb57600080fd5b8060405250919050565b600067ffffffffffffffff82111561180c57600080fd5b601f19601f8301169050602081019050919050565b6000819050602082019050919050565b600081519050919050565b600081519050919050565b600081519050919050565b6000602082019050919050565b600082825260208201905092915050565b600082825260208201905092915050565b600082825260208201905092915050565b600081905092915050565b60008115159050919050565b6000819050919050565b82818337600083830152505050565b60005b838110156118e05780820151818401526020810190506118c5565b838111156118ef576000848401525b50505050565b6000601f19601f8301169050919050565b61190f8161189d565b811461191a57600080fd5b50565b611926816118a9565b811461193157600080fd5b5056fea365627a7a72315820163132c3ac91e02e6c0a7009f2afa1ab1e97e3861cb37b68c33dd08a220fdd426c6578706572696d656e74616cf564736f6c63430005100040",
  "source": "pragma solidity >=0.4.21 <0.7.0;\nimport \"./Strings.sol\";\npragma experimental ABIEncoderV2;\n\ncontract Agent {\n    function setEvent(string memory _agentId,string memory _eventId)public;\n    function setObject(string memory _agentId,string memory _objectHash)public;\n    function setAgent(string memory _agentId,string memory _name,string memory _agentType)public;\n\n    function getAgentExists(string memory _agentId)public view returns (bool);\n    function getAgentObjectExists(string memory _agentId, string memory _objectHash)public view returns (bool);\n    function getAgentEventExists(string memory _agentId, string memory _eventId)public view returns (bool);\n\n    function getObject(string memory _agentId, uint256 _objectIndex ) public view returns (string memory, string memory);\n    function getEvent(string memory _agentId, uint256 _eventIndex ) public view returns (string memory, string memory);\n    function getAgentType(string memory _agentId) public view returns (string memory, string memory);\n    function getAgentName(string memory _agentId) public view returns (string memory, string memory);\n}\n\n\ncontract ProvAgent is Agent {\n    Strings st;\n    struct AgentData {\n        string[] objects; //hash\n        string[] events;\n        string name;\n        string agentType;\n        bool isValid;\n    }\n\n\n    mapping(string => AgentData) private provAgents;\n\n    string[] agents;\n\n    event EventSet(string _agentId,string _eventId);\n    event ObjectSet(string _agentId,string _objectHash);\n    event AgentSet(string _agentId,string _name,string _agentType);\n\n    function setEvent(string memory _agentId,string memory _eventId)public {\n        if (getAgentEventExists(_agentId, _eventId)) {\n            revert(\"the event is already exists\");\n        }\n        provAgents[_agentId].events.push(_eventId);\n        emit EventSet(_agentId, _eventId);\n    }\n\n    function setObject(string memory _agentId,string memory _objectHash)public{\n        if (getAgentObjectExists(_agentId, _objectHash)) {\n            revert(\"the object is already exists\");\n        }\n        provAgents[_agentId].objects.push(_objectHash);\n        emit ObjectSet(_agentId,_objectHash);\n\n    }\n    function setAgent(string memory _agentId,string memory _name,string memory _agentType)public{\n        if (getAgentExists(_agentId)) {\n            revert(\"the agent is already exists\");\n        }\n        provAgents[_agentId].isValid = true;\n        provAgents[_agentId].name = _name;\n        provAgents[_agentId].agentType = _agentType;\n        emit AgentSet(_agentId,_name,_agentType);\n\n    }\n\n    function getAgentExists(string memory _agentId)public view returns (bool){\n        return provAgents[_agentId].isValid;\n    }\n    function getAgentObjectExists(string memory _agentId, string memory _objectHash)public view returns (bool){\n        string[] memory array = provAgents[_agentId].objects;\n        bool flag = false;\n        for (uint index = 0; index < array.length; index++) {\n            if(st.equal(_objectHash,array[index])) {\n                flag = true;\n                break;\n            }\n        }\n        return flag;\n    }\n    function getAgentEventExists(string memory _agentId, string memory _eventId)public view returns (bool){\n        string[] memory array = provAgents[_agentId].events;\n        bool flag = false;\n        for (uint index = 0; index < array.length; index++) {\n            if(st.equal(_eventId,array[index])) {\n                flag = true;\n                break;\n            }\n        }\n        return flag;\n    }\n\n    function getObject(string memory _agentId, uint256 _objectIndex ) public view returns (string memory, string memory){\n        return (_agentId,provAgents[_agentId].objects[_objectIndex]);\n\n    }\n    function getEvent(string memory _agentId, uint256 _eventIndex ) public view returns (string memory, string memory){\n        return (_agentId,provAgents[_agentId].events[_eventIndex]);\n    }\n\n    function getAgent(string memory _agentId) public view returns (AgentData memory){\n        return provAgents[_agentId];\n    }\n    function getAgentType(string memory _agentId) public view returns (string memory, string memory){\n        return (_agentId,provAgents[_agentId].agentType);\n    }\n\n    function getAgentName(string memory _agentId) public view returns (string memory, string memory){\n        return (_agentId,provAgents[_agentId].name);\n    }\n}",
  "sourcePath": "C:\\DiskF\\Truffle\\Vue-Dapp\\contracts\\Agent.sol",
  "compiler": {
    "name": "solc",
    "version": "0.5.16+commit.9c3226ce.Emscripten.clang"
  },
  "schemaVersion": "3.1.0",
  "updatedAt": "2020-04-19T14:42:07.968Z",
  "networkType": "ethereum",
  "devdoc": {
    "methods": {}
  },
  "userdoc": {
    "methods": {}
  }
}