{
  "contractName": "ProvObject",
  "abi": [
    {
      "anonymous": false,
      "inputs": [
        {
          "indexed": false,
          "internalType": "string",
          "name": "_objectHash",
          "type": "string"
        },
        {
          "indexed": false,
          "internalType": "string",
          "name": "_category",
          "type": "string"
        },
        {
          "indexed": false,
          "internalType": "string",
          "name": "_format",
          "type": "string"
        }
      ],
      "name": "ObjectSet",
      "type": "event"
    },
    {
      "anonymous": false,
      "inputs": [
        {
          "indexed": false,
          "internalType": "string",
          "name": "_objectHash",
          "type": "string"
        },
        {
          "indexed": false,
          "internalType": "string",
          "name": "_agentId",
          "type": "string"
        }
      ],
      "name": "ObjectSetAgent",
      "type": "event"
    },
    {
      "anonymous": false,
      "inputs": [
        {
          "indexed": false,
          "internalType": "string",
          "name": "_objectHash",
          "type": "string"
        },
        {
          "indexed": false,
          "internalType": "string",
          "name": "_eventId",
          "type": "string"
        }
      ],
      "name": "ObjectSetEvent",
      "type": "event"
    },
    {
      "anonymous": false,
      "inputs": [
        {
          "indexed": false,
          "internalType": "string",
          "name": "_objectHash",
          "type": "string"
        },
        {
          "indexed": false,
          "internalType": "string",
          "name": "_propType",
          "type": "string"
        },
        {
          "indexed": false,
          "internalType": "string",
          "name": "_propValue",
          "type": "string"
        }
      ],
      "name": "ObjectSetProperties",
      "type": "event"
    },
    {
      "anonymous": false,
      "inputs": [
        {
          "indexed": false,
          "internalType": "string",
          "name": "_propType",
          "type": "string"
        }
      ],
      "name": "ObjectSetPropertyType",
      "type": "event"
    },
    {
      "constant": false,
      "inputs": [
        {
          "internalType": "string",
          "name": "_propType",
          "type": "string"
        }
      ],
      "name": "setPropertyType",
      "outputs": [],
      "payable": false,
      "stateMutability": "nonpayable",
      "type": "function"
    },
    {
      "constant": false,
      "inputs": [
        {
          "internalType": "string",
          "name": "_objectHash",
          "type": "string"
        },
        {
          "internalType": "string",
          "name": "_propType",
          "type": "string"
        },
        {
          "internalType": "string",
          "name": "_propValue",
          "type": "string"
        }
      ],
      "name": "setProperties",
      "outputs": [],
      "payable": false,
      "stateMutability": "nonpayable",
      "type": "function"
    },
    {
      "constant": false,
      "inputs": [
        {
          "internalType": "string",
          "name": "_objectHash",
          "type": "string"
        },
        {
          "internalType": "string",
          "name": "_category",
          "type": "string"
        },
        {
          "internalType": "string",
          "name": "_format",
          "type": "string"
        }
      ],
      "name": "setObject",
      "outputs": [],
      "payable": false,
      "stateMutability": "nonpayable",
      "type": "function"
    },
    {
      "constant": false,
      "inputs": [
        {
          "internalType": "string",
          "name": "_objectHash",
          "type": "string"
        },
        {
          "internalType": "string",
          "name": "_eventId",
          "type": "string"
        }
      ],
      "name": "setEvent",
      "outputs": [],
      "payable": false,
      "stateMutability": "nonpayable",
      "type": "function"
    },
    {
      "constant": false,
      "inputs": [
        {
          "internalType": "string",
          "name": "_objectHash",
          "type": "string"
        },
        {
          "internalType": "string",
          "name": "_agentId",
          "type": "string"
        }
      ],
      "name": "setAgent",
      "outputs": [],
      "payable": false,
      "stateMutability": "nonpayable",
      "type": "function"
    },
    {
      "constant": true,
      "inputs": [
        {
          "internalType": "string",
          "name": "_propType",
          "type": "string"
        }
      ],
      "name": "getPropertyTypeExists",
      "outputs": [
        {
          "internalType": "bool",
          "name": "",
          "type": "bool"
        }
      ],
      "payable": false,
      "stateMutability": "view",
      "type": "function"
    },
    {
      "constant": true,
      "inputs": [
        {
          "internalType": "string",
          "name": "_objectHash",
          "type": "string"
        },
        {
          "internalType": "string",
          "name": "_propType",
          "type": "string"
        },
        {
          "internalType": "string",
          "name": "_propValue",
          "type": "string"
        }
      ],
      "name": "getObjectPropertiesExists",
      "outputs": [
        {
          "internalType": "bool",
          "name": "",
          "type": "bool"
        }
      ],
      "payable": false,
      "stateMutability": "view",
      "type": "function"
    },
    {
      "constant": true,
      "inputs": [
        {
          "internalType": "string",
          "name": "_objectHash",
          "type": "string"
        }
      ],
      "name": "getObjectExists",
      "outputs": [
        {
          "internalType": "bool",
          "name": "",
          "type": "bool"
        }
      ],
      "payable": false,
      "stateMutability": "view",
      "type": "function"
    },
    {
      "constant": true,
      "inputs": [
        {
          "internalType": "string",
          "name": "_objectHash",
          "type": "string"
        },
        {
          "internalType": "string",
          "name": "_eventId",
          "type": "string"
        }
      ],
      "name": "getObjectEventExists",
      "outputs": [
        {
          "internalType": "bool",
          "name": "",
          "type": "bool"
        }
      ],
      "payable": false,
      "stateMutability": "view",
      "type": "function"
    },
    {
      "constant": true,
      "inputs": [
        {
          "internalType": "string",
          "name": "_objectHash",
          "type": "string"
        },
        {
          "internalType": "string",
          "name": "_agentId",
          "type": "string"
        }
      ],
      "name": "getObjectAgentExists",
      "outputs": [
        {
          "internalType": "bool",
          "name": "",
          "type": "bool"
        }
      ],
      "payable": false,
      "stateMutability": "view",
      "type": "function"
    },
    {
      "constant": true,
      "inputs": [
        {
          "internalType": "string",
          "name": "_objectHash",
          "type": "string"
        }
      ],
      "name": "getNumEvents",
      "outputs": [
        {
          "internalType": "uint256",
          "name": "",
          "type": "uint256"
        }
      ],
      "payable": false,
      "stateMutability": "view",
      "type": "function"
    },
    {
      "constant": true,
      "inputs": [
        {
          "internalType": "string",
          "name": "_objectHash",
          "type": "string"
        }
      ],
      "name": "getNumAgents",
      "outputs": [
        {
          "internalType": "uint256",
          "name": "",
          "type": "uint256"
        }
      ],
      "payable": false,
      "stateMutability": "view",
      "type": "function"
    },
    {
      "constant": true,
      "inputs": [
        {
          "internalType": "string",
          "name": "_objectHash",
          "type": "string"
        }
      ],
      "name": "getObject",
      "outputs": [
        {
          "components": [
            {
              "components": [
                {
                  "internalType": "string",
                  "name": "propType",
                  "type": "string"
                },
                {
                  "internalType": "string",
                  "name": "propValue",
                  "type": "string"
                }
              ],
              "internalType": "struct ProvObject.ObjectProperties[]",
              "name": "properties",
              "type": "tuple[]"
            },
            {
              "internalType": "string",
              "name": "category",
              "type": "string"
            },
            {
              "internalType": "string",
              "name": "format",
              "type": "string"
            },
            {
              "internalType": "string[]",
              "name": "events",
              "type": "string[]"
            },
            {
              "internalType": "string[]",
              "name": "agents",
              "type": "string[]"
            },
            {
              "internalType": "bool",
              "name": "isValid",
              "type": "bool"
            }
          ],
          "internalType": "struct ProvObject.ObjectData",
          "name": "",
          "type": "tuple"
        }
      ],
      "payable": false,
      "stateMutability": "view",
      "type": "function"
    },
    {
      "constant": true,
      "inputs": [
        {
          "internalType": "string",
          "name": "_objectHash",
          "type": "string"
        },
        {
          "internalType": "uint256",
          "name": "_eventIndex",
          "type": "uint256"
        }
      ],
      "name": "getEvent",
      "outputs": [
        {
          "internalType": "string",
          "name": "",
          "type": "string"
        },
        {
          "internalType": "string",
          "name": "",
          "type": "string"
        }
      ],
      "payable": false,
      "stateMutability": "view",
      "type": "function"
    },
    {
      "constant": true,
      "inputs": [
        {
          "internalType": "string",
          "name": "_objectHash",
          "type": "string"
        },
        {
          "internalType": "uint256",
          "name": "_agentIndex",
          "type": "uint256"
        }
      ],
      "name": "getAgent",
      "outputs": [
        {
          "internalType": "string",
          "name": "",
          "type": "string"
        },
        {
          "internalType": "string",
          "name": "",
          "type": "string"
        }
      ],
      "payable": false,
      "stateMutability": "view",
      "type": "function"
    },
    {
      "constant": true,
      "inputs": [
        {
          "internalType": "string",
          "name": "s1",
          "type": "string"
        },
        {
          "internalType": "string",
          "name": "s2",
          "type": "string"
        }
      ],
      "name": "equal",
      "outputs": [
        {
          "internalType": "bool",
          "name": "",
          "type": "bool"
        }
      ],
      "payable": false,
      "stateMutability": "pure",
      "type": "function"
    }
  ],
  "bytecode": "0x608060405234801561001057600080fd5b5061216e806100206000396000f3fe608060405234801561001057600080fd5b50600436106101005760003560e01c80638d83cff711610097578063db54a81411610066578063db54a8141461030a578063e7fca0a31461033a578063e864fe581461036b578063fb135c8d1461038757610100565b80638d83cff71461025d578063a2e07f9b1461028d578063a91623f1146102a9578063c4a8a670146102d957610100565b806346bdca9a116100d357806346bdca9a146101b1578063500b8a47146101e15780635d4ab042146101fd5780637221eaf81461022d57610100565b80630153ea91146101055780633594baf2146101355780634002a2e7146101655780634421263d14610195575b600080fd5b61011f600480360361011a9190810190611820565b6103a3565b60405161012c9190611f60565b60405180910390f35b61014f600480360361014a9190810190611820565b6108af565b60405161015c9190611e00565b60405180910390f35b61017f600480360361017a91908101906118cd565b6109a7565b60405161018c9190611e00565b60405180910390f35b6101af60048036036101aa91908101906118cd565b610bc0565b005b6101cb60048036036101c69190810190611861565b610cf0565b6040516101d89190611e00565b60405180910390f35b6101fb60048036036101f69190810190611861565b610d49565b005b61021760048036036102129190810190611820565b610e2e565b6040516102249190611e00565b60405180910390f35b61024760048036036102429190810190611820565b610e66565b6040516102549190611f82565b60405180910390f35b61027760048036036102729190810190611861565b610e94565b6040516102849190611e00565b60405180910390f35b6102a760048036036102a29190810190611820565b611007565b005b6102c360048036036102be9190810190611861565b6110c9565b6040516102d09190611e00565b60405180910390f35b6102f360048036036102ee9190810190611964565b61123c565b604051610301929190611e3d565b60405180910390f35b610324600480360361031f9190810190611820565b61131d565b6040516103319190611f82565b60405180910390f35b610354600480360361034f9190810190611964565b61134b565b604051610362929190611e3d565b60405180910390f35b61038560048036036103809190810190611861565b61142c565b005b6103a1600480360361039c91908101906118cd565b611511565b005b6103ab611640565b6003826040516103bb9190611de9565b90815260200160405180910390206040518060c001604052908160008201805480602002602001604051908101604052809291908181526020016000905b8282101561056f5783829060005260206000209060020201604051806040016040529081600082018054600181600116156101000203166002900480601f0160208091040260200160405190810160405280929190818152602001828054600181600116156101000203166002900480156104b55780601f1061048a576101008083540402835291602001916104b5565b820191906000526020600020905b81548152906001019060200180831161049857829003601f168201915b50505050508152602001600182018054600181600116156101000203166002900480601f0160208091040260200160405190810160405280929190818152602001828054600181600116156101000203166002900480156105575780601f1061052c57610100808354040283529160200191610557565b820191906000526020600020905b81548152906001019060200180831161053a57829003601f168201915b505050505081525050815260200190600101906103f9565b505050508152602001600182018054600181600116156101000203166002900480601f0160208091040260200160405190810160405280929190818152602001828054600181600116156101000203166002900480156106105780601f106105e557610100808354040283529160200191610610565b820191906000526020600020905b8154815290600101906020018083116105f357829003601f168201915b50505050508152602001600282018054600181600116156101000203166002900480601f0160208091040260200160405190810160405280929190818152602001828054600181600116156101000203166002900480156106b25780601f10610687576101008083540402835291602001916106b2565b820191906000526020600020905b81548152906001019060200180831161069557829003601f168201915b5050505050815260200160038201805480602002602001604051908101604052809291908181526020016000905b8282101561079c578382906000526020600020018054600181600116156101000203166002900480601f0160208091040260200160405190810160405280929190818152602001828054600181600116156101000203166002900480156107885780601f1061075d57610100808354040283529160200191610788565b820191906000526020600020905b81548152906001019060200180831161076b57829003601f168201915b5050505050815260200190600101906106e0565b50505050815260200160048201805480602002602001604051908101604052809291908181526020016000905b82821015610885578382906000526020600020018054600181600116156101000203166002900480601f0160208091040260200160405190810160405280929190818152602001828054600181600116156101000203166002900480156108715780601f1061084657610100808354040283529160200191610871565b820191906000526020600020905b81548152906001019060200180831161085457829003601f168201915b5050505050815260200190600101906107c9565b5050505081526020016005820160009054906101000a900460ff1615151515815250509050919050565b6000806000905060008090505b60018054905081101561099d5761098284600183815481106108da57fe5b906000526020600020018054600181600116156101000203166002900480601f0160208091040260200160405190810160405280929190818152602001828054600181600116156101000203166002900480156109785780601f1061094d57610100808354040283529160200191610978565b820191906000526020600020905b81548152906001019060200180831161095b57829003601f168201915b5050505050610cf0565b15610990576001915061099d565b80806001019150506108bc565b5080915050919050565b6000806000905060008090505b6003866040516109c49190611de9565b908152602001604051809103902060000180549050811015610bb4576109e8611678565b6003876040516109f89190611de9565b90815260200160405180910390206000018281548110610a1457fe5b9060005260206000209060020201604051806040016040529081600082018054600181600116156101000203166002900480601f016020809104026020016040519081016040528092919081815260200182805460018160011615610100020316600290048015610ac65780601f10610a9b57610100808354040283529160200191610ac6565b820191906000526020600020905b815481529060010190602001808311610aa957829003601f168201915b50505050508152602001600182018054600181600116156101000203166002900480601f016020809104026020016040519081016040528092919081815260200182805460018160011615610100020316600290048015610b685780601f10610b3d57610100808354040283529160200191610b68565b820191906000526020600020905b815481529060010190602001808311610b4b57829003601f168201915b5050505050815250509050610b81816000015187610cf0565b8015610b975750610b96816020015186610cf0565b5b15610ba6576001925050610bb4565b5080806001019150506109b4565b50809150509392505050565b610bcb8383836109a7565b15610c0b576040517f08c379a0000000000000000000000000000000000000000000000000000000008152600401610c0290611f40565b60405180910390fd5b610c13611678565b828160000181905250818160200181905250600384604051610c359190611de9565b908152602001604051809103902060000181908060018154018082558091505090600182039060005260206000209060020201600090919290919091506000820151816000019080519060200190610c8e929190611692565b506020820151816001019080519060200190610cab929190611692565b505050507fc8f4639aca483626ff5cc4248d2988e8cca98f19c753b54a9868d7a0c86d27d1848484604051610ce293929190611e74565b60405180910390a150505050565b600081604051602001610d039190611de9565b6040516020818303038152906040528051906020012083604051602001610d2a9190611de9565b6040516020818303038152906040528051906020012014905092915050565b610d538282610e94565b15610d93576040517f08c379a0000000000000000000000000000000000000000000000000000000008152600401610d8a90611ee0565b60405180910390fd5b600382604051610da39190611de9565b9081526020016040518091039020600301819080600181540180825580915050906001820390600052602060002001600090919290919091509080519060200190610def929190611712565b50507faf6ba4042ae0bec89739af5da5f7bd8c599cd94c911cba42996fc57a4dca11c78282604051610e22929190611e3d565b60405180910390a15050565b6000600382604051610e409190611de9565b908152602001604051809103902060050160009054906101000a900460ff169050919050565b6000600382604051610e789190611de9565b9081526020016040518091039020600401805490509050919050565b600080600384604051610ea79190611de9565b908152602001604051809103902060050160009054906101000a900460ff169050600080905060008090505b600386604051610ee39190611de9565b908152602001604051809103902060030180549050811015610ff257610fd785600388604051610f139190611de9565b90815260200160405180910390206003018381548110610f2f57fe5b906000526020600020018054600181600116156101000203166002900480601f016020809104026020016040519081016040528092919081815260200182805460018160011615610100020316600290048015610fcd5780601f10610fa257610100808354040283529160200191610fcd565b820191906000526020600020905b815481529060010190602001808311610fb057829003601f168201915b5050505050610cf0565b15610fe55760019150610ff2565b8080600101915050610ed3565b50818015610ffd5750805b9250505092915050565b611010816108af565b15611050576040517f08c379a000000000000000000000000000000000000000000000000000000000815260040161104790611f20565b60405180910390fd5b600181908060018154018082558091505090600182039060005260206000200160009091929091909150908051906020019061108d929190611712565b50507f961b734c41327bf9cb361abefb818c2fdaa9534dd6eb5a55626e56501f2b6b6e816040516110be9190611e1b565b60405180910390a150565b6000806003846040516110dc9190611de9565b908152602001604051809103902060050160009054906101000a900460ff169050600080905060008090505b6003866040516111189190611de9565b9081526020016040518091039020600301805490508110156112275761120c856003886040516111489190611de9565b9081526020016040518091039020600301838154811061116457fe5b906000526020600020018054600181600116156101000203166002900480601f0160208091040260200160405190810160405280929190818152602001828054600181600116156101000203166002900480156112025780601f106111d757610100808354040283529160200191611202565b820191906000526020600020905b8154815290600101906020018083116111e557829003601f168201915b5050505050610cf0565b1561121a5760019150611227565b8080600101915050611108565b508180156112325750805b9250505092915050565b606080836003856040516112509190611de9565b9081526020016040518091039020600301848154811061126c57fe5b90600052602060002001808054600181600116156101000203166002900480601f01602080910402602001604051908101604052809291908181526020018280546001816001161561010002031660029004801561130b5780601f106112e05761010080835404028352916020019161130b565b820191906000526020600020905b8154815290600101906020018083116112ee57829003601f168201915b50505050509050915091509250929050565b600060038260405161132f9190611de9565b9081526020016040518091039020600301805490509050919050565b6060808360038560405161135f9190611de9565b9081526020016040518091039020600401848154811061137b57fe5b90600052602060002001808054600181600116156101000203166002900480601f01602080910402602001604051908101604052809291908181526020018280546001816001161561010002031660029004801561141a5780601f106113ef5761010080835404028352916020019161141a565b820191906000526020600020905b8154815290600101906020018083116113fd57829003601f168201915b50505050509050915091509250929050565b61143682826110c9565b15611476576040517f08c379a000000000000000000000000000000000000000000000000000000000815260040161146d90611f00565b60405180910390fd5b6003826040516114869190611de9565b90815260200160405180910390206004018190806001815401808255809150509060018203906000526020600020016000909192909190915090805190602001906114d2929190611712565b50507fce134c2f6749a7c8c27263fd44938e75a902092c93fbc45a5bbee3f362f9361e8282604051611505929190611e3d565b60405180910390a15050565b61151a83610e2e565b1561155a576040517f08c379a000000000000000000000000000000000000000000000000000000000815260040161155190611ec0565b60405180910390fd5b600160038460405161156c9190611de9565b908152602001604051809103902060050160006101000a81548160ff021916908315150217905550816003846040516115a59190611de9565b908152602001604051809103902060010190805190602001906115c9929190611712565b50806003846040516115db9190611de9565b908152602001604051809103902060020190805190602001906115ff929190611712565b507f5f1407d55cfb9234116ab0968b1ac0eb46b3a3e00530145812e7a97026f3b1cd83838360405161163393929190611e74565b60405180910390a1505050565b6040518060c0016040528060608152602001606081526020016060815260200160608152602001606081526020016000151581525090565b604051806040016040528060608152602001606081525090565b828054600181600116156101000203166002900490600052602060002090601f016020900481019282601f106116d357805160ff1916838001178555611701565b82800160010185558215611701579182015b828111156117005782518255916020019190600101906116e5565b5b50905061170e9190611792565b5090565b828054600181600116156101000203166002900490600052602060002090601f016020900481019282601f1061175357805160ff1916838001178555611781565b82800160010185558215611781579182015b82811115611780578251825591602001919060010190611765565b5b50905061178e9190611792565b5090565b6117b491905b808211156117b0576000816000905550600101611798565b5090565b90565b600082601f8301126117c857600080fd5b81356117db6117d682611fca565b611f9d565b915080825260208301602083018583830111156117f757600080fd5b6118028382846120c1565b50505092915050565b60008135905061181a81612114565b92915050565b60006020828403121561183257600080fd5b600082013567ffffffffffffffff81111561184c57600080fd5b611858848285016117b7565b91505092915050565b6000806040838503121561187457600080fd5b600083013567ffffffffffffffff81111561188e57600080fd5b61189a858286016117b7565b925050602083013567ffffffffffffffff8111156118b757600080fd5b6118c3858286016117b7565b9150509250929050565b6000806000606084860312156118e257600080fd5b600084013567ffffffffffffffff8111156118fc57600080fd5b611908868287016117b7565b935050602084013567ffffffffffffffff81111561192557600080fd5b611931868287016117b7565b925050604084013567ffffffffffffffff81111561194e57600080fd5b61195a868287016117b7565b9150509250925092565b6000806040838503121561197757600080fd5b600083013567ffffffffffffffff81111561199157600080fd5b61199d858286016117b7565b92505060206119ae8582860161180b565b9150509250929050565b60006119c48383611b52565b905092915050565b60006119d88383611d96565b905092915050565b60006119eb82612016565b6119f5818561205c565b935083602082028501611a0785611ff6565b8060005b85811015611a435784840389528151611a2485826119b8565b9450611a2f83612042565b925060208a01995050600181019050611a0b565b50829750879550505050505092915050565b6000611a6082612021565b611a6a818561206d565b935083602082028501611a7c85612006565b8060005b85811015611ab85784840389528151611a9985826119cc565b9450611aa48361204f565b925060208a01995050600181019050611a80565b50829750879550505050505092915050565b611ad3816120ab565b82525050565b611ae2816120ab565b82525050565b6000611af382612037565b611afd818561208f565b9350611b0d8185602086016120d0565b611b1681612103565b840191505092915050565b6000611b2c82612037565b611b3681856120a0565b9350611b468185602086016120d0565b80840191505092915050565b6000611b5d8261202c565b611b67818561207e565b9350611b778185602086016120d0565b611b8081612103565b840191505092915050565b6000611b98601c8361208f565b91507f746865206f626a65637420697320616c726561647920657869737473000000006000830152602082019050919050565b6000611bd8601b8361208f565b91507f746865206576656e7420697320616c72656164792065786973747300000000006000830152602082019050919050565b6000611c18601b8361208f565b91507f746865206167656e7420697320616c72656164792065786973747300000000006000830152602082019050919050565b6000611c5860228361208f565b91507f7468652070726f70657274795479706520697320616c7265616479206578697360008301527f74730000000000000000000000000000000000000000000000000000000000006020830152604082019050919050565b6000611cbe60208361208f565b91507f7468652070726f7065727469657320697320616c7265616479206578697374736000830152602082019050919050565b600060c0830160008301518482036000860152611d0e8282611a55565b91505060208301518482036020860152611d288282611b52565b91505060408301518482036040860152611d428282611b52565b91505060608301518482036060860152611d5c82826119e0565b91505060808301518482036080860152611d7682826119e0565b91505060a0830151611d8b60a0860182611aca565b508091505092915050565b60006040830160008301518482036000860152611db38282611b52565b91505060208301518482036020860152611dcd8282611b52565b9150508091505092915050565b611de3816120b7565b82525050565b6000611df58284611b21565b915081905092915050565b6000602082019050611e156000830184611ad9565b92915050565b60006020820190508181036000830152611e358184611ae8565b905092915050565b60006040820190508181036000830152611e578185611ae8565b90508181036020830152611e6b8184611ae8565b90509392505050565b60006060820190508181036000830152611e8e8186611ae8565b90508181036020830152611ea28185611ae8565b90508181036040830152611eb68184611ae8565b9050949350505050565b60006020820190508181036000830152611ed981611b8b565b9050919050565b60006020820190508181036000830152611ef981611bcb565b9050919050565b60006020820190508181036000830152611f1981611c0b565b9050919050565b60006020820190508181036000830152611f3981611c4b565b9050919050565b60006020820190508181036000830152611f5981611cb1565b9050919050565b60006020820190508181036000830152611f7a8184611cf1565b905092915050565b6000602082019050611f976000830184611dda565b92915050565b6000604051905081810181811067ffffffffffffffff82111715611fc057600080fd5b8060405250919050565b600067ffffffffffffffff821115611fe157600080fd5b601f19601f8301169050602081019050919050565b6000819050602082019050919050565b6000819050602082019050919050565b600081519050919050565b600081519050919050565b600081519050919050565b600081519050919050565b6000602082019050919050565b6000602082019050919050565b600082825260208201905092915050565b600082825260208201905092915050565b600082825260208201905092915050565b600082825260208201905092915050565b600081905092915050565b60008115159050919050565b6000819050919050565b82818337600083830152505050565b60005b838110156120ee5780820151818401526020810190506120d3565b838111156120fd576000848401525b50505050565b6000601f19601f8301169050919050565b61211d816120b7565b811461212857600080fd5b5056fea365627a7a72315820a2863d840d027f6b0e0df861da4c315b20e6b44fc01e0a18e2dc4641178888dd6c6578706572696d656e74616cf564736f6c63430005100040",
  "source": "pragma solidity >=0.4.21 <0.7.0;\npragma experimental ABIEncoderV2;\n\nimport \"./Strings.sol\";\n\ncontract Object {\n    function setPropertyType(string memory _propType)public;\n    function setProperties(string memory _objectHash, string memory _propType,string memory _propValue)public;\n    function setObject(string memory _objectHash,string memory _category,string memory _format)public;\n    function setEvent(string memory _objectHash,string memory _eventId)public;\n    function setAgent(string memory _objectHash,string memory _agentId)public;\n\n    function getPropertyTypeExists(string memory _propType)public view returns (bool);\n    function getObjectPropertiesExists(string memory _objectHash,string memory _propType,string memory _propValue)public view returns (bool);\n    function getObjectExists(string memory _objectHash)public view returns (bool);\n    function getObjectEventExists(string memory _objectHash, string memory _eventId)public view returns (bool);\n    function getObjectAgentExists(string memory _objectHash, string memory _agentId)public view returns (bool);\n\n    function getNumEvents(string memory _objectHash) public view returns (uint256);\n    function getNumAgents(string memory _objectHash) public view returns (uint256);\n\n    function getEvent(string memory _objectHash, uint256 _eventIndex) public view returns (string memory, string memory);\n    function getAgent(string memory _objectHash, uint256 _agentIndex) public view returns (string memory, string memory);\n}\n\n\ncontract ProvObject is Object {\n    Strings st;\n    struct ObjectProperties {\n        string propType;\n        string propValue;\n    }\n\n    struct ObjectData {\n        ObjectProperties[] properties;\n        string category;\n        string format;\n        string[] events; //id\n        string[] agents; //id\n        bool isValid; //shi fou yi cun zai\n    }\n\n    string[] propTypes;\n    string[] objects;\n\n    mapping(string => ObjectData) private provObjects;\n\n    event ObjectSet(string _objectHash, string _category, string _format);\n    event ObjectSetPropertyType(string  _propType);\n    event ObjectSetProperties(string _objectHash, string _propType, string _propValue);\n    event ObjectSetEvent(string _objectHash, string _eventId);\n    event ObjectSetAgent(string _objectHash, string _agentId);\n\n    function setPropertyType(string memory _propType) public {\n        if (getPropertyTypeExists(_propType)){\n            revert(\"the propertyType is already exists\");\n        }\n        propTypes.push(_propType);\n        emit ObjectSetPropertyType(_propType);\n\n\n    }\n\n    function setProperties(string memory _objectHash,string memory _propType,string memory _propValue )public {\n        if (getObjectPropertiesExists(_objectHash,_propType, _propValue)) {\n            revert(\"the properties is already exists\");\n        }\n        ObjectProperties memory i;\n        i.propType = _propType;\n        i.propValue = _propValue;\n        provObjects[_objectHash].properties.push(i);\n        emit ObjectSetProperties(_objectHash,_propType,_propValue);\n    }\n\n    function setObject(string memory _objectHash,string memory _category,string memory _format) public {\n        if (getObjectExists(_objectHash)) {\n            revert(\"the object is already exists\");\n        }\n        provObjects[_objectHash].isValid = true;\n        provObjects[_objectHash].category = _category;\n        provObjects[_objectHash].format = _format;\n        emit ObjectSet(_objectHash,_category,_format);\n    }\n\n    function setEvent(string memory _objectHash,string memory _eventId) public {\n        if (getObjectEventExists(_objectHash, _eventId)) {\n            revert(\"the event is already exists\");\n        }\n        provObjects[_objectHash].events.push(_eventId);\n        emit ObjectSetEvent(_objectHash,_eventId);\n    }\n\n    function setAgent(string memory _objectHash,string memory _agentId )public {\n        if (getObjectAgentExists(_objectHash, _agentId)) {\n            revert(\"the agent is already exists\");\n        }\n        provObjects[_objectHash].agents.push(_agentId);\n        emit ObjectSetAgent(_objectHash,_agentId);\n    }\n\n    function getPropertyTypeExists(string memory _propType)public view returns (bool){\n        bool flag = false;\n        for (uint index = 0; index < propTypes.length; index++) {\n            if(equal(_propType,propTypes[index])) {\n                flag = true;\n                break;\n            }\n        }\n        return flag;\n    }\n    function getObjectPropertiesExists(string memory _objectHash,string memory _propType,string memory _propValue)public view returns (bool){\n        bool flag = false;\n        for (uint index = 0; index < provObjects[_objectHash].properties.length; index++) {\n            ObjectProperties memory i = provObjects[_objectHash].properties[index];\n            if(equal(i.propType,_propType) && equal(i.propValue,_propValue)) {\n\n                flag = true;\n                break;\n            }\n        }\n        return flag;\n    }\n\n    function getObjectExists(string memory _objectHash)public view returns (bool) {\n        return provObjects[_objectHash].isValid;\n    }\n\n    function getObjectEventExists(string memory _objectHash, string memory _eventId)public view returns (bool) {\n        bool objectExists = provObjects[_objectHash].isValid;\n        bool eventExists = false;\n        for (uint index = 0; index < provObjects[_objectHash].events.length; index++) {\n            if (equal(_eventId,provObjects[_objectHash].events[index]))\n            // if (keccak256(abi.encodePacked(_eventId)) == keccak256(abi.encodePacked(provObjects[_objectHash].events[index])))\n            {\n                eventExists = true;\n                break;\n            }\n        }\n        return objectExists&&eventExists;\n    }\n\n    function getObjectAgentExists(string memory _objectHash, string memory _agentId)public view returns (bool) {\n        bool objectExists = provObjects[_objectHash].isValid;\n        bool agentExists = false;\n        for (uint index = 0; index < provObjects[_objectHash].events.length; index++) {\n            if (equal(_agentId,provObjects[_objectHash].events[index]))\n            // if (keccak256(abi.encodePacked(_agentId)) == keccak256(abi.encodePacked(provObjects[_objectHash].events[index])))\n            {\n                agentExists = true;\n                break;\n            }\n        }\n        return objectExists&&agentExists;\n    }\n\n    function getNumEvents(string memory _objectHash) public view returns (uint256) {\n        return provObjects[_objectHash].events.length;\n    }\n\n    function getNumAgents(string memory _objectHash) public view returns (uint256) {\n        return provObjects[_objectHash].agents.length;\n    }\n\n    function getObject(string memory _objectHash) public view returns (ObjectData memory) {\n        return provObjects[_objectHash];\n    }\n    function getEvent(string memory _objectHash, uint256 _eventIndex) public view returns (string memory, string memory) {\n        return (_objectHash, provObjects[_objectHash].events[_eventIndex]);\n    }\n\n    function getAgent(string memory _objectHash, uint256 _agentIndex) public view returns (string memory, string memory) {\n        return (_objectHash, provObjects[_objectHash].agents[_agentIndex]);\n    }\n\n    function equal(string memory s1, string memory s2)public pure returns(bool){\n        return (keccak256(abi.encodePacked(s1)) == keccak256(abi.encodePacked(s2)));\n    }\n}",
  "sourcePath": "C:\\DiskF\\Truffle\\Vue-Dapp\\contracts\\Object.sol",
  "compiler": {
    "name": "solc",
    "version": "0.5.16+commit.9c3226ce.Emscripten.clang"
  },
  "schemaVersion": "3.1.0",
  "updatedAt": "2020-04-20T13:57:55.330Z",
  "networkType": "ethereum",
  "devdoc": {
    "methods": {}
  },
  "userdoc": {
    "methods": {}
  }
}