{
  "contractName": "ProvEvent",
  "abi": [
    {
      "anonymous": false,
      "inputs": [
        {
          "indexed": false,
          "internalType": "string",
          "name": "_eventId",
          "type": "string"
        },
        {
          "indexed": false,
          "internalType": "string",
          "name": "_objectHash",
          "type": "string"
        },
        {
          "indexed": false,
          "internalType": "string",
          "name": "_time",
          "type": "string"
        }
      ],
      "name": "EventSet",
      "type": "event"
    },
    {
      "anonymous": false,
      "inputs": [
        {
          "indexed": false,
          "internalType": "string",
          "name": "_eventId",
          "type": "string"
        },
        {
          "indexed": false,
          "internalType": "string",
          "name": "_eventType",
          "type": "string"
        }
      ],
      "name": "EventTypeSet",
      "type": "event"
    },
    {
      "constant": false,
      "inputs": [
        {
          "internalType": "string",
          "name": "_eventId",
          "type": "string"
        },
        {
          "internalType": "string",
          "name": "_eventType",
          "type": "string"
        }
      ],
      "name": "setEventType",
      "outputs": [],
      "payable": false,
      "stateMutability": "nonpayable",
      "type": "function"
    },
    {
      "constant": false,
      "inputs": [
        {
          "internalType": "string",
          "name": "_eventId",
          "type": "string"
        },
        {
          "internalType": "string",
          "name": "_agentId",
          "type": "string"
        },
        {
          "internalType": "string",
          "name": "_objectHash",
          "type": "string"
        },
        {
          "internalType": "string",
          "name": "_time",
          "type": "string"
        }
      ],
      "name": "setEvent",
      "outputs": [],
      "payable": false,
      "stateMutability": "nonpayable",
      "type": "function"
    },
    {
      "constant": true,
      "inputs": [
        {
          "internalType": "string",
          "name": "_eventId",
          "type": "string"
        }
      ],
      "name": "getEventExists",
      "outputs": [
        {
          "internalType": "bool",
          "name": "",
          "type": "bool"
        }
      ],
      "payable": false,
      "stateMutability": "view",
      "type": "function"
    },
    {
      "constant": true,
      "inputs": [
        {
          "internalType": "string",
          "name": "_eventId",
          "type": "string"
        },
        {
          "internalType": "string",
          "name": "_eventType",
          "type": "string"
        }
      ],
      "name": "getEventTypeExists",
      "outputs": [
        {
          "internalType": "bool",
          "name": "",
          "type": "bool"
        }
      ],
      "payable": false,
      "stateMutability": "view",
      "type": "function"
    },
    {
      "constant": true,
      "inputs": [
        {
          "internalType": "string",
          "name": "_eventId",
          "type": "string"
        }
      ],
      "name": "getAgent",
      "outputs": [
        {
          "internalType": "string",
          "name": "",
          "type": "string"
        },
        {
          "internalType": "string",
          "name": "",
          "type": "string"
        }
      ],
      "payable": false,
      "stateMutability": "view",
      "type": "function"
    },
    {
      "constant": true,
      "inputs": [
        {
          "internalType": "string",
          "name": "_eventId",
          "type": "string"
        }
      ],
      "name": "getObject",
      "outputs": [
        {
          "internalType": "string",
          "name": "",
          "type": "string"
        },
        {
          "internalType": "string",
          "name": "",
          "type": "string"
        }
      ],
      "payable": false,
      "stateMutability": "view",
      "type": "function"
    },
    {
      "constant": true,
      "inputs": [
        {
          "internalType": "string",
          "name": "_eventId",
          "type": "string"
        }
      ],
      "name": "getEventType",
      "outputs": [
        {
          "internalType": "string",
          "name": "",
          "type": "string"
        },
        {
          "internalType": "string",
          "name": "",
          "type": "string"
        }
      ],
      "payable": false,
      "stateMutability": "view",
      "type": "function"
    },
    {
      "constant": true,
      "inputs": [
        {
          "internalType": "string",
          "name": "_eventId",
          "type": "string"
        }
      ],
      "name": "getTime",
      "outputs": [
        {
          "internalType": "string",
          "name": "",
          "type": "string"
        },
        {
          "internalType": "string",
          "name": "",
          "type": "string"
        }
      ],
      "payable": false,
      "stateMutability": "view",
      "type": "function"
    }
  ],
  "bytecode": "0x608060405234801561001057600080fd5b50611aec806100206000396000f3fe608060405234801561001057600080fd5b50600436106100885760003560e01c8063a4bd55a51161005b578063a4bd55a51461060a578063b359cedd146107aa578063c0b3bdae1461094a578063e8ac89de14610a9c57610088565b80630153ea911461008d5780630cfd08131461022d5780637011b99e14610397578063794464e91461046a575b600080fd5b610146600480360360208110156100a357600080fd5b81019080803590602001906401000000008111156100c057600080fd5b8201836020820111156100d257600080fd5b803590602001918460018302840111640100000000831117156100f457600080fd5b91908080601f016020809104026020016040519081016040528093929190818152602001838380828437600081840152601f19601f820116905080830192505050505050509192919290505050610d1c565b604051808060200180602001838103835285818151815260200191508051906020019080838360005b8381101561018a57808201518184015260208101905061016f565b50505050905090810190601f1680156101b75780820380516001836020036101000a031916815260200191505b50838103825284818151815260200191508051906020019080838360005b838110156101f05780820151818401526020810190506101d5565b50505050905090810190601f16801561021d5780820380516001836020036101000a031916815260200191505b5094505050505060405180910390f35b61037d6004803603604081101561024357600080fd5b810190808035906020019064010000000081111561026057600080fd5b82018360208201111561027257600080fd5b8035906020019184600183028401116401000000008311171561029457600080fd5b91908080601f016020809104026020016040519081016040528093929190818152602001838380828437600081840152601f19601f820116905080830192505050505050509192919290803590602001906401000000008111156102f757600080fd5b82018360208201111561030957600080fd5b8035906020019184600183028401116401000000008311171561032b57600080fd5b91908080601f016020809104026020016040519081016040528093929190818152602001838380828437600081840152601f19601f820116905080830192505050505050509192919290505050610e31565b604051808215151515815260200191505060405180910390f35b610450600480360360208110156103ad57600080fd5b81019080803590602001906401000000008111156103ca57600080fd5b8201836020820111156103dc57600080fd5b803590602001918460018302840111640100000000831117156103fe57600080fd5b91908080601f016020809104026020016040519081016040528093929190818152602001838380828437600081840152601f19601f820116905080830192505050505050509192919290505050611042565b604051808215151515815260200191505060405180910390f35b6105236004803603602081101561048057600080fd5b810190808035906020019064010000000081111561049d57600080fd5b8201836020820111156104af57600080fd5b803590602001918460018302840111640100000000831117156104d157600080fd5b91908080601f016020809104026020016040519081016040528093929190818152602001838380828437600081840152601f19601f8201169050808301925050505050505091929192905050506110c5565b604051808060200180602001838103835285818151815260200191508051906020019080838360005b8381101561056757808201518184015260208101905061054c565b50505050905090810190601f1680156105945780820380516001836020036101000a031916815260200191505b50838103825284818151815260200191508051906020019080838360005b838110156105cd5780820151818401526020810190506105b2565b50505050905090810190601f1680156105fa5780820380516001836020036101000a031916815260200191505b5094505050505060405180910390f35b6106c36004803603602081101561062057600080fd5b810190808035906020019064010000000081111561063d57600080fd5b82018360208201111561064f57600080fd5b8035906020019184600183028401116401000000008311171561067157600080fd5b91908080601f016020809104026020016040519081016040528093929190818152602001838380828437600081840152601f19601f8201169050808301925050505050505091929192905050506111da565b604051808060200180602001838103835285818151815260200191508051906020019080838360005b838110156107075780820151818401526020810190506106ec565b50505050905090810190601f1680156107345780820380516001836020036101000a031916815260200191505b50838103825284818151815260200191508051906020019080838360005b8381101561076d578082015181840152602081019050610752565b50505050905090810190601f16801561079a5780820380516001836020036101000a031916815260200191505b5094505050505060405180910390f35b610863600480360360208110156107c057600080fd5b81019080803590602001906401000000008111156107dd57600080fd5b8201836020820111156107ef57600080fd5b8035906020019184600183028401116401000000008311171561081157600080fd5b91908080601f016020809104026020016040519081016040528093929190818152602001838380828437600081840152601f19601f8201169050808301925050505050505091929192905050506112ef565b604051808060200180602001838103835285818151815260200191508051906020019080838360005b838110156108a757808201518184015260208101905061088c565b50505050905090810190601f1680156108d45780820380516001836020036101000a031916815260200191505b50838103825284818151815260200191508051906020019080838360005b8381101561090d5780820151818401526020810190506108f2565b50505050905090810190601f16801561093a5780820380516001836020036101000a031916815260200191505b5094505050505060405180910390f35b610a9a6004803603604081101561096057600080fd5b810190808035906020019064010000000081111561097d57600080fd5b82018360208201111561098f57600080fd5b803590602001918460018302840111640100000000831117156109b157600080fd5b91908080601f016020809104026020016040519081016040528093929190818152602001838380828437600081840152601f19601f82011690508083019250505050505050919291929080359060200190640100000000811115610a1457600080fd5b820183602082011115610a2657600080fd5b80359060200191846001830284011164010000000083111715610a4857600080fd5b91908080601f016020809104026020016040519081016040528093929190818152602001838380828437600081840152601f19601f820116905080830192505050505050509192919290505050611404565b005b610d1a60048036036080811015610ab257600080fd5b8101908080359060200190640100000000811115610acf57600080fd5b820183602082011115610ae157600080fd5b80359060200191846001830284011164010000000083111715610b0357600080fd5b91908080601f016020809104026020016040519081016040528093929190818152602001838380828437600081840152601f19601f82011690508083019250505050505050919291929080359060200190640100000000811115610b6657600080fd5b820183602082011115610b7857600080fd5b80359060200191846001830284011164010000000083111715610b9a57600080fd5b91908080601f016020809104026020016040519081016040528093929190818152602001838380828437600081840152601f19601f82011690508083019250505050505050919291929080359060200190640100000000811115610bfd57600080fd5b820183602082011115610c0f57600080fd5b80359060200191846001830284011164010000000083111715610c3157600080fd5b91908080601f016020809104026020016040519081016040528093929190818152602001838380828437600081840152601f19601f82011690508083019250505050505050919291929080359060200190640100000000811115610c9457600080fd5b820183602082011115610ca657600080fd5b80359060200191846001830284011164010000000083111715610cc857600080fd5b91908080601f016020809104026020016040519081016040528093929190818152602001838380828437600081840152601f19601f8201169050808301925050505050505091929192905050506115f2565b005b606080826001846040518082805190602001908083835b60208310610d565780518252602082019150602081019050602083039250610d33565b6001836020036101000a0380198251168184511680821785525050505050509050019150509081526020016040518091039020600001808054600181600116156101000203166002900480601f016020809104026020016040519081016040528092919081815260200182805460018160011615610100020316600290048015610e215780601f10610df657610100808354040283529160200191610e21565b820191906000526020600020905b815481529060010190602001808311610e0457829003601f168201915b5050505050905091509150915091565b60008060009054906101000a900473ffffffffffffffffffffffffffffffffffffffff1673ffffffffffffffffffffffffffffffffffffffff166346bdca9a836001866040518082805190602001908083835b60208310610ea75780518252602082019150602081019050602083039250610e84565b6001836020036101000a03801982511681845116808217855250505050505090500191505090815260200160405180910390206001016040518363ffffffff1660e01b8152600401808060200180602001838103835285818151815260200191508051906020019080838360005b83811015610f30578082015181840152602081019050610f15565b50505050905090810190601f168015610f5d5780820380516001836020036101000a031916815260200191505b50838103825284818154600181600116156101000203166002900481526020019150805460018160011615610100020316600290048015610fdf5780601f10610fb457610100808354040283529160200191610fdf565b820191906000526020600020905b815481529060010190602001808311610fc257829003601f168201915b505094505050505060206040518083038186803b158015610fff57600080fd5b505afa158015611013573d6000803e3d6000fd5b505050506040513d602081101561102957600080fd5b8101908080519060200190929190505050905092915050565b60006001826040518082805190602001908083835b6020831061107a5780518252602082019150602081019050602083039250611057565b6001836020036101000a038019825116818451168082178552505050505050905001915050908152602001604051809103902060040160009054906101000a900460ff169050919050565b606080826001846040518082805190602001908083835b602083106110ff57805182526020820191506020810190506020830392506110dc565b6001836020036101000a0380198251168184511680821785525050505050509050019150509081526020016040518091039020600201808054600181600116156101000203166002900480601f0160208091040260200160405190810160405280929190818152602001828054600181600116156101000203166002900480156111ca5780601f1061119f576101008083540402835291602001916111ca565b820191906000526020600020905b8154815290600101906020018083116111ad57829003601f168201915b5050505050905091509150915091565b606080826001846040518082805190602001908083835b6020831061121457805182526020820191506020810190506020830392506111f1565b6001836020036101000a0380198251168184511680821785525050505050509050019150509081526020016040518091039020600101808054600181600116156101000203166002900480601f0160208091040260200160405190810160405280929190818152602001828054600181600116156101000203166002900480156112df5780601f106112b4576101008083540402835291602001916112df565b820191906000526020600020905b8154815290600101906020018083116112c257829003601f168201915b5050505050905091509150915091565b606080826001846040518082805190602001908083835b602083106113295780518252602082019150602081019050602083039250611306565b6001836020036101000a0380198251168184511680821785525050505050509050019150509081526020016040518091039020600301808054600181600116156101000203166002900480601f0160208091040260200160405190810160405280929190818152602001828054600181600116156101000203166002900480156113f45780601f106113c9576101008083540402835291602001916113f4565b820191906000526020600020905b8154815290600101906020018083116113d757829003601f168201915b5050505050905091509150915091565b61140e8282610e31565b15611464576040517f08c379a0000000000000000000000000000000000000000000000000000000008152600401808060200182810382526021815260200180611a976021913960400191505060405180910390fd5b806001836040518082805190602001908083835b6020831061149b5780518252602082019150602081019050602083039250611478565b6001836020036101000a038019825116818451168082178552505050505050905001915050908152602001604051809103902060010190805190602001906114e49291906119f1565b507f45de8a3a386f147ecc6f79b278ac4b04599fd5688743793dbcc508fee38ceeae8282604051808060200180602001838103835285818151815260200191508051906020019080838360005b8381101561154c578082015181840152602081019050611531565b50505050905090810190601f1680156115795780820380516001836020036101000a031916815260200191505b50838103825284818151815260200191508051906020019080838360005b838110156115b2578082015181840152602081019050611597565b50505050905090810190601f1680156115df5780820380516001836020036101000a031916815260200191505b5094505050505060405180910390a15050565b6115fb84611042565b1561166e576040517f08c379a000000000000000000000000000000000000000000000000000000000815260040180806020018281038252601c8152602001807f20746865206576656e7420697320616c7265616479206578697374730000000081525060200191505060405180910390fd5b600180856040518082805190602001908083835b602083106116a55780518252602082019150602081019050602083039250611682565b6001836020036101000a038019825116818451168082178552505050505050905001915050908152602001604051809103902060040160006101000a81548160ff021916908315150217905550816001856040518082805190602001908083835b602083106117295780518252602082019150602081019050602083039250611706565b6001836020036101000a038019825116818451168082178552505050505050905001915050908152602001604051809103902060000190805190602001906117729291906119f1565b50826001856040518082805190602001908083835b602083106117aa5780518252602082019150602081019050602083039250611787565b6001836020036101000a038019825116818451168082178552505050505050905001915050908152602001604051809103902060020190805190602001906117f39291906119f1565b50806001856040518082805190602001908083835b6020831061182b5780518252602082019150602081019050602083039250611808565b6001836020036101000a038019825116818451168082178552505050505050905001915050908152602001604051809103902060030190805190602001906118749291906119f1565b507f3692a44416952a7085314c0310cfcf2ffd6db600f0b833b7b8a0c11daaa0b85b84838360405180806020018060200180602001848103845287818151815260200191508051906020019080838360005b838110156118e15780820151818401526020810190506118c6565b50505050905090810190601f16801561190e5780820380516001836020036101000a031916815260200191505b50848103835286818151815260200191508051906020019080838360005b8381101561194757808201518184015260208101905061192c565b50505050905090810190601f1680156119745780820380516001836020036101000a031916815260200191505b50848103825285818151815260200191508051906020019080838360005b838110156119ad578082015181840152602081019050611992565b50505050905090810190601f1680156119da5780820380516001836020036101000a031916815260200191505b50965050505050505060405180910390a150505050565b828054600181600116156101000203166002900490600052602060002090601f016020900481019282601f10611a3257805160ff1916838001178555611a60565b82800160010185558215611a60579182015b82811115611a5f578251825591602001919060010190611a44565b5b509050611a6d9190611a71565b5090565b611a9391905b80821115611a8f576000816000905550600101611a77565b5090565b9056fe20746865206576656e74207479706520697320616c726561647920657869737473a265627a7a723158204b97eb515e773e0a7be71f08509fcd0f8f0b25788a5327623a4d4e4efa91311764736f6c63430005100032",
  "source": "pragma solidity >=0.4.21 <0.7.0;\nimport \"./Strings.sol\";\n\ncontract Event {\n    function setEventType(string memory _eventId, string memory _eventType)public;\n    function setEvent(string memory _eventId,string memory _agentId,string memory _objectHash,string memory _time)public;\n\n    function getEventExists(string memory _eventId)public view returns (bool);\n    function getEventTypeExists(string memory _eventId, string memory _eventType)public view returns (bool);\n\n    function getAgent(string memory _eventId) public view returns (string memory, string memory);\n    function getObject(string memory _eventId) public view returns (string memory, string memory);\n    function getEventType(string memory _eventId) public view returns (string memory, string memory);\n    function getTime(string memory _eventId) public view returns (string memory, string memory);\n}\n\n\ncontract ProvEvent is Event {\n    Strings st;\n    struct EventData {\n        string objectHash;\n        string EventType;\n        string agentId;\n        string time;\n        bool isValid;\n    }\n\n\n    mapping(string => EventData) private provEvents;\n\n    event EventTypeSet(string _eventId, string _eventType);\n    event EventSet(string _eventId, string _objectHash, string _time);\n\n    function setEventType(string memory _eventId, string memory _eventType) public {\n        if (getEventTypeExists(_eventId, _eventType)) {\n            revert(\" the event type is already exists\");\n        }\n        provEvents[_eventId].EventType = _eventType;\n        emit EventTypeSet(_eventId,_eventType);\n    }\n\n    function setEvent(string memory _eventId,string memory _agentId,string memory _objectHash,string memory _time) public {\n        if (getEventExists(_eventId)) {\n            revert(\" the event is already exists\");\n        }\n        provEvents[_eventId].isValid = true;\n        provEvents[_eventId].objectHash = _objectHash;\n        provEvents[_eventId].agentId = _agentId;\n        provEvents[_eventId].time = _time;\n        emit EventSet(_eventId,_objectHash,_time);\n\n    }\n\n    function getEventExists(string memory _eventId)public view returns (bool) {\n        return  provEvents[_eventId].isValid;\n    }\n\n    function getEventTypeExists(string memory _eventId, string memory _eventType)public view returns (bool){\n        return st.equal(_eventType,provEvents[_eventId].EventType);\n    }\n\n    function getAgent(string memory _eventId) public view returns (string memory,string memory) {\n        return (_eventId,provEvents[_eventId].agentId);\n    }\n\n    function getObject(string memory _eventId) public view returns (string memory, string memory){\n        return (_eventId,provEvents[_eventId].objectHash);\n    }\n    function getEventType(string memory _eventId) public view returns (string memory, string memory){\n        return (_eventId,provEvents[_eventId].EventType);\n    }\n\n    function getTime(string memory _eventId) public view returns (string memory, string memory) {\n        return (_eventId,provEvents[_eventId].time);\n    }\n}",
  "sourcePath": "C:\\DiskF\\Truffle\\Vue-Dapp\\contracts\\Event.sol",
  "compiler": {
    "name": "solc",
    "version": "0.5.16+commit.9c3226ce.Emscripten.clang"
  },
  "schemaVersion": "3.1.0",
  "updatedAt": "2020-04-19T07:41:20.678Z",
  "networkType": "ethereum",
  "devdoc": {
    "methods": {}
  },
  "userdoc": {
    "methods": {}
  }
}