{
  "contractName": "ProvObject",
  "abi": [
    {
      "anonymous": false,
      "inputs": [
        {
          "indexed": false,
          "internalType": "string",
          "name": "_objectHash",
          "type": "string"
        },
        {
          "indexed": false,
          "internalType": "string",
          "name": "_category",
          "type": "string"
        },
        {
          "indexed": false,
          "internalType": "string",
          "name": "_format",
          "type": "string"
        }
      ],
      "name": "ObjectSet",
      "type": "event"
    },
    {
      "anonymous": false,
      "inputs": [
        {
          "indexed": false,
          "internalType": "string",
          "name": "_objectHash",
          "type": "string"
        },
        {
          "indexed": false,
          "internalType": "string",
          "name": "_agentId",
          "type": "string"
        }
      ],
      "name": "ObjectSetAgent",
      "type": "event"
    },
    {
      "anonymous": false,
      "inputs": [
        {
          "indexed": false,
          "internalType": "string",
          "name": "_objectHash",
          "type": "string"
        },
        {
          "indexed": false,
          "internalType": "string",
          "name": "_eventId",
          "type": "string"
        }
      ],
      "name": "ObjectSetEvent",
      "type": "event"
    },
    {
      "anonymous": false,
      "inputs": [
        {
          "indexed": false,
          "internalType": "string",
          "name": "_objectHash",
          "type": "string"
        },
        {
          "indexed": false,
          "internalType": "string",
          "name": "_propType",
          "type": "string"
        },
        {
          "indexed": false,
          "internalType": "string",
          "name": "_propValue",
          "type": "string"
        }
      ],
      "name": "ObjectSetProperties",
      "type": "event"
    },
    {
      "anonymous": false,
      "inputs": [
        {
          "indexed": false,
          "internalType": "string",
          "name": "_propType",
          "type": "string"
        }
      ],
      "name": "ObjectSetPropertyType",
      "type": "event"
    },
    {
      "constant": true,
      "inputs": [
        {
          "internalType": "uint256",
          "name": "",
          "type": "uint256"
        }
      ],
      "name": "objects",
      "outputs": [
        {
          "internalType": "string",
          "name": "",
          "type": "string"
        }
      ],
      "payable": false,
      "stateMutability": "view",
      "type": "function"
    },
    {
      "constant": false,
      "inputs": [
        {
          "internalType": "string",
          "name": "_propType",
          "type": "string"
        }
      ],
      "name": "setPropertyType",
      "outputs": [],
      "payable": false,
      "stateMutability": "nonpayable",
      "type": "function"
    },
    {
      "constant": false,
      "inputs": [
        {
          "internalType": "string",
          "name": "_objectHash",
          "type": "string"
        },
        {
          "internalType": "string",
          "name": "_propType",
          "type": "string"
        },
        {
          "internalType": "string",
          "name": "_propValue",
          "type": "string"
        }
      ],
      "name": "setProperties",
      "outputs": [],
      "payable": false,
      "stateMutability": "nonpayable",
      "type": "function"
    },
    {
      "constant": false,
      "inputs": [
        {
          "internalType": "string",
          "name": "_objectHash",
          "type": "string"
        },
        {
          "internalType": "string",
          "name": "_category",
          "type": "string"
        },
        {
          "internalType": "string",
          "name": "_format",
          "type": "string"
        }
      ],
      "name": "setObject",
      "outputs": [],
      "payable": false,
      "stateMutability": "nonpayable",
      "type": "function"
    },
    {
      "constant": false,
      "inputs": [
        {
          "internalType": "string",
          "name": "_objectHash",
          "type": "string"
        },
        {
          "internalType": "string",
          "name": "_eventId",
          "type": "string"
        }
      ],
      "name": "setEvent",
      "outputs": [],
      "payable": false,
      "stateMutability": "nonpayable",
      "type": "function"
    },
    {
      "constant": false,
      "inputs": [
        {
          "internalType": "string",
          "name": "_objectHash",
          "type": "string"
        },
        {
          "internalType": "string",
          "name": "_agentId",
          "type": "string"
        }
      ],
      "name": "setAgent",
      "outputs": [],
      "payable": false,
      "stateMutability": "nonpayable",
      "type": "function"
    },
    {
      "constant": true,
      "inputs": [
        {
          "internalType": "string",
          "name": "_propType",
          "type": "string"
        }
      ],
      "name": "getPropertyTypeExists",
      "outputs": [
        {
          "internalType": "bool",
          "name": "",
          "type": "bool"
        }
      ],
      "payable": false,
      "stateMutability": "view",
      "type": "function"
    },
    {
      "constant": true,
      "inputs": [
        {
          "internalType": "string",
          "name": "_objectHash",
          "type": "string"
        },
        {
          "internalType": "string",
          "name": "_propType",
          "type": "string"
        },
        {
          "internalType": "string",
          "name": "_propValue",
          "type": "string"
        }
      ],
      "name": "getObjectPropertiesExists",
      "outputs": [
        {
          "internalType": "bool",
          "name": "",
          "type": "bool"
        }
      ],
      "payable": false,
      "stateMutability": "view",
      "type": "function"
    },
    {
      "constant": true,
      "inputs": [
        {
          "internalType": "string",
          "name": "_objectHash",
          "type": "string"
        }
      ],
      "name": "getObjectExists",
      "outputs": [
        {
          "internalType": "bool",
          "name": "",
          "type": "bool"
        }
      ],
      "payable": false,
      "stateMutability": "view",
      "type": "function"
    },
    {
      "constant": true,
      "inputs": [
        {
          "internalType": "string",
          "name": "_objectHash",
          "type": "string"
        },
        {
          "internalType": "string",
          "name": "_eventId",
          "type": "string"
        }
      ],
      "name": "getObjectEventExists",
      "outputs": [
        {
          "internalType": "bool",
          "name": "",
          "type": "bool"
        }
      ],
      "payable": false,
      "stateMutability": "view",
      "type": "function"
    },
    {
      "constant": true,
      "inputs": [
        {
          "internalType": "string",
          "name": "_objectHash",
          "type": "string"
        },
        {
          "internalType": "string",
          "name": "_agentId",
          "type": "string"
        }
      ],
      "name": "getObjectAgentExists",
      "outputs": [
        {
          "internalType": "bool",
          "name": "",
          "type": "bool"
        }
      ],
      "payable": false,
      "stateMutability": "view",
      "type": "function"
    },
    {
      "constant": true,
      "inputs": [
        {
          "internalType": "string",
          "name": "_objectHash",
          "type": "string"
        }
      ],
      "name": "getNumEvents",
      "outputs": [
        {
          "internalType": "uint256",
          "name": "",
          "type": "uint256"
        }
      ],
      "payable": false,
      "stateMutability": "view",
      "type": "function"
    },
    {
      "constant": true,
      "inputs": [
        {
          "internalType": "string",
          "name": "_objectHash",
          "type": "string"
        }
      ],
      "name": "getNumAgents",
      "outputs": [
        {
          "internalType": "uint256",
          "name": "",
          "type": "uint256"
        }
      ],
      "payable": false,
      "stateMutability": "view",
      "type": "function"
    },
    {
      "constant": true,
      "inputs": [],
      "name": "getNumObject",
      "outputs": [
        {
          "internalType": "uint256",
          "name": "",
          "type": "uint256"
        }
      ],
      "payable": false,
      "stateMutability": "view",
      "type": "function"
    },
    {
      "constant": true,
      "inputs": [
        {
          "internalType": "string",
          "name": "_objectHash",
          "type": "string"
        }
      ],
      "name": "getObject",
      "outputs": [
        {
          "components": [
            {
              "components": [
                {
                  "internalType": "string",
                  "name": "propType",
                  "type": "string"
                },
                {
                  "internalType": "string",
                  "name": "propValue",
                  "type": "string"
                }
              ],
              "internalType": "struct ProvObject.ObjectProperties[]",
              "name": "properties",
              "type": "tuple[]"
            },
            {
              "internalType": "string",
              "name": "category",
              "type": "string"
            },
            {
              "internalType": "string",
              "name": "format",
              "type": "string"
            },
            {
              "internalType": "string[]",
              "name": "events",
              "type": "string[]"
            },
            {
              "internalType": "string[]",
              "name": "agents",
              "type": "string[]"
            },
            {
              "internalType": "bool",
              "name": "isValid",
              "type": "bool"
            }
          ],
          "internalType": "struct ProvObject.ObjectData",
          "name": "",
          "type": "tuple"
        }
      ],
      "payable": false,
      "stateMutability": "view",
      "type": "function"
    },
    {
      "constant": true,
      "inputs": [
        {
          "internalType": "uint256",
          "name": "_index",
          "type": "uint256"
        }
      ],
      "name": "getObject",
      "outputs": [
        {
          "internalType": "string",
          "name": "",
          "type": "string"
        }
      ],
      "payable": false,
      "stateMutability": "view",
      "type": "function"
    },
    {
      "constant": true,
      "inputs": [
        {
          "internalType": "string",
          "name": "_objectHash",
          "type": "string"
        }
      ],
      "name": "getObjectPropertiesLength",
      "outputs": [
        {
          "internalType": "uint256",
          "name": "",
          "type": "uint256"
        }
      ],
      "payable": false,
      "stateMutability": "view",
      "type": "function"
    },
    {
      "constant": true,
      "inputs": [
        {
          "internalType": "string",
          "name": "_objectHash",
          "type": "string"
        },
        {
          "internalType": "uint256",
          "name": "_propertiesIndex",
          "type": "uint256"
        }
      ],
      "name": "getObjectPropertiesLength",
      "outputs": [
        {
          "internalType": "string",
          "name": "",
          "type": "string"
        },
        {
          "internalType": "string",
          "name": "",
          "type": "string"
        }
      ],
      "payable": false,
      "stateMutability": "view",
      "type": "function"
    },
    {
      "constant": true,
      "inputs": [
        {
          "internalType": "string",
          "name": "_objectHash",
          "type": "string"
        }
      ],
      "name": "getObjectCategoryAndFormat",
      "outputs": [
        {
          "internalType": "string",
          "name": "",
          "type": "string"
        },
        {
          "internalType": "string",
          "name": "",
          "type": "string"
        }
      ],
      "payable": false,
      "stateMutability": "view",
      "type": "function"
    },
    {
      "constant": true,
      "inputs": [
        {
          "internalType": "string",
          "name": "_objectHash",
          "type": "string"
        },
        {
          "internalType": "uint256",
          "name": "_eventIndex",
          "type": "uint256"
        }
      ],
      "name": "getEvent",
      "outputs": [
        {
          "internalType": "string",
          "name": "",
          "type": "string"
        },
        {
          "internalType": "string",
          "name": "",
          "type": "string"
        }
      ],
      "payable": false,
      "stateMutability": "view",
      "type": "function"
    },
    {
      "constant": true,
      "inputs": [
        {
          "internalType": "string",
          "name": "_objectHash",
          "type": "string"
        },
        {
          "internalType": "uint256",
          "name": "_agentIndex",
          "type": "uint256"
        }
      ],
      "name": "getAgent",
      "outputs": [
        {
          "internalType": "string",
          "name": "",
          "type": "string"
        },
        {
          "internalType": "string",
          "name": "",
          "type": "string"
        }
      ],
      "payable": false,
      "stateMutability": "view",
      "type": "function"
    },
    {
      "constant": true,
      "inputs": [
        {
          "internalType": "string",
          "name": "s1",
          "type": "string"
        },
        {
          "internalType": "string",
          "name": "s2",
          "type": "string"
        }
      ],
      "name": "equal",
      "outputs": [
        {
          "internalType": "bool",
          "name": "",
          "type": "bool"
        }
      ],
      "payable": false,
      "stateMutability": "pure",
      "type": "function"
    }
  ],
  "bytecode": "0x608060405234801561001057600080fd5b50612845806100206000396000f3fe608060405234801561001057600080fd5b50600436106101425760003560e01c8063a2e07f9b116100b8578063db54a8141161007c578063db54a814146103fb578063e7fca0a31461042b578063e864fe581461045c578063ed17585014610478578063f337a4e7146104a8578063fb135c8d146104d957610142565b8063a2e07f9b14610330578063a91623f11461034c578063c4a8a6701461037c578063c82e3162146103ad578063cd4d4d2e146103cb57610142565b80634421263d1161010a5780634421263d1461023857806346bdca9a14610254578063500b8a47146102845780635d4ab042146102a05780637221eaf8146102d05780638d83cff71461030057610142565b80630153ea911461014757806328316b39146101775780633594baf2146101a75780634002a2e7146101d7578063404e58f014610207575b600080fd5b610161600480360361015c9190810190611d81565b6104f5565b60405161016e919061260b565b60405180910390f35b610191600480360361018c9190810190611f19565b610a01565b60405161019e919061248f565b60405180910390f35b6101c160048036036101bc9190810190611d81565b610aba565b6040516101ce9190612452565b60405180910390f35b6101f160048036036101ec9190810190611e2e565b610bbb565b6040516101fe9190612452565b60405180910390f35b610221600480360361021c9190810190611d81565b610dd4565b60405161022f9291906124b1565b60405180910390f35b610252600480360361024d9190810190611e2e565b610f5a565b005b61026e60048036036102699190810190611dc2565b61108a565b60405161027b9190612452565b60405180910390f35b61029e60048036036102999190810190611dc2565b611096565b005b6102ba60048036036102b59190810190611d81565b61117b565b6040516102c79190612452565b60405180910390f35b6102ea60048036036102e59190810190611d81565b6111b3565b6040516102f7919061262d565b60405180910390f35b61031a60048036036103159190810190611dc2565b6111e1565b6040516103279190612452565b60405180910390f35b61034a60048036036103459190810190611d81565b61135d565b005b61036660048036036103619190810190611dc2565b61141f565b6040516103739190612452565b60405180910390f35b61039660048036036103919190810190611ec5565b61146c565b6040516103a49291906124b1565b60405180910390f35b6103b561154d565b6040516103c2919061262d565b60405180910390f35b6103e560048036036103e09190810190611d81565b61155a565b6040516103f2919061262d565b60405180910390f35b61041560048036036104109190810190611d81565b611588565b604051610422919061262d565b60405180910390f35b61044560048036036104409190810190611ec5565b6115b6565b6040516104539291906124b1565b60405180910390f35b61047660048036036104719190810190611dc2565b611697565b005b610492600480360361048d9190810190611f19565b61177c565b60405161049f919061246d565b60405180910390f35b6104c260048036036104bd9190810190611ec5565b611835565b6040516104d09291906124b1565b60405180910390f35b6104f360048036036104ee9190810190611e2e565b6119f5565b005b6104fd611b63565b60038260405161050d919061243b565b90815260200160405180910390206040518060c001604052908160008201805480602002602001604051908101604052809291908181526020016000905b828210156106c15783829060005260206000209060020201604051806040016040529081600082018054600181600116156101000203166002900480601f0160208091040260200160405190810160405280929190818152602001828054600181600116156101000203166002900480156106075780601f106105dc57610100808354040283529160200191610607565b820191906000526020600020905b8154815290600101906020018083116105ea57829003601f168201915b50505050508152602001600182018054600181600116156101000203166002900480601f0160208091040260200160405190810160405280929190818152602001828054600181600116156101000203166002900480156106a95780601f1061067e576101008083540402835291602001916106a9565b820191906000526020600020905b81548152906001019060200180831161068c57829003601f168201915b5050505050815250508152602001906001019061054b565b505050508152602001600182018054600181600116156101000203166002900480601f0160208091040260200160405190810160405280929190818152602001828054600181600116156101000203166002900480156107625780601f1061073757610100808354040283529160200191610762565b820191906000526020600020905b81548152906001019060200180831161074557829003601f168201915b50505050508152602001600282018054600181600116156101000203166002900480601f0160208091040260200160405190810160405280929190818152602001828054600181600116156101000203166002900480156108045780601f106107d957610100808354040283529160200191610804565b820191906000526020600020905b8154815290600101906020018083116107e757829003601f168201915b5050505050815260200160038201805480602002602001604051908101604052809291908181526020016000905b828210156108ee578382906000526020600020018054600181600116156101000203166002900480601f0160208091040260200160405190810160405280929190818152602001828054600181600116156101000203166002900480156108da5780601f106108af576101008083540402835291602001916108da565b820191906000526020600020905b8154815290600101906020018083116108bd57829003601f168201915b505050505081526020019060010190610832565b50505050815260200160048201805480602002602001604051908101604052809291908181526020016000905b828210156109d7578382906000526020600020018054600181600116156101000203166002900480601f0160208091040260200160405190810160405280929190818152602001828054600181600116156101000203166002900480156109c35780601f10610998576101008083540402835291602001916109c3565b820191906000526020600020905b8154815290600101906020018083116109a657829003601f168201915b50505050508152602001906001019061091b565b5050505081526020016005820160009054906101000a900460ff1615151515815250509050919050565b606060028281548110610a1057fe5b906000526020600020018054600181600116156101000203166002900480601f016020809104026020016040519081016040528092919081815260200182805460018160011615610100020316600290048015610aae5780601f10610a8357610100808354040283529160200191610aae565b820191906000526020600020905b815481529060010190602001808311610a9157829003601f168201915b50505050509050919050565b6000806000905060008090505b600180549050811015610bb1576000809054906101000a900473ffffffffffffffffffffffffffffffffffffffff1673ffffffffffffffffffffffffffffffffffffffff166346bdca9a8560018481548110610b1f57fe5b906000526020600020016040518363ffffffff1660e01b8152600401610b46929190612534565b60206040518083038186803b158015610b5e57600080fd5b505afa158015610b72573d6000803e3d6000fd5b505050506040513d601f19601f82011682018060405250610b969190810190611d58565b15610ba45760019150610bb1565b8080600101915050610ac7565b5080915050919050565b6000806000905060008090505b600386604051610bd8919061243b565b908152602001604051809103902060000180549050811015610dc857610bfc611b9b565b600387604051610c0c919061243b565b90815260200160405180910390206000018281548110610c2857fe5b9060005260206000209060020201604051806040016040529081600082018054600181600116156101000203166002900480601f016020809104026020016040519081016040528092919081815260200182805460018160011615610100020316600290048015610cda5780601f10610caf57610100808354040283529160200191610cda565b820191906000526020600020905b815481529060010190602001808311610cbd57829003601f168201915b50505050508152602001600182018054600181600116156101000203166002900480601f016020809104026020016040519081016040528092919081815260200182805460018160011615610100020316600290048015610d7c5780601f10610d5157610100808354040283529160200191610d7c565b820191906000526020600020905b815481529060010190602001808311610d5f57829003601f168201915b5050505050815250509050610d9581600001518761108a565b8015610dab5750610daa81602001518661108a565b5b15610dba576001925050610dc8565b508080600101915050610bc8565b50809150509392505050565b606080600383604051610de7919061243b565b9081526020016040518091039020600101600384604051610e08919061243b565b9081526020016040518091039020600201818054600181600116156101000203166002900480601f016020809104026020016040519081016040528092919081815260200182805460018160011615610100020316600290048015610eae5780601f10610e8357610100808354040283529160200191610eae565b820191906000526020600020905b815481529060010190602001808311610e9157829003601f168201915b50505050509150808054600181600116156101000203166002900480601f016020809104026020016040519081016040528092919081815260200182805460018160011615610100020316600290048015610f4a5780601f10610f1f57610100808354040283529160200191610f4a565b820191906000526020600020905b815481529060010190602001808311610f2d57829003601f168201915b5050505050905091509150915091565b610f65838383610bbb565b15610fa5576040517f08c379a0000000000000000000000000000000000000000000000000000000008152600401610f9c906125eb565b60405180910390fd5b610fad611b9b565b828160000181905250818160200181905250600384604051610fcf919061243b565b908152602001604051809103902060000181908060018154018082558091505090600182039060005260206000209060020201600090919290919091506000820151816000019080519060200190611028929190611bb5565b506020820151816001019080519060200190611045929190611bb5565b505050507fc8f4639aca483626ff5cc4248d2988e8cca98f19c753b54a9868d7a0c86d27d184848460405161107c939291906124e8565b60405180910390a150505050565b60006001905092915050565b6110a082826111e1565b156110e0576040517f08c379a00000000000000000000000000000000000000000000000000000000081526004016110d79061258b565b60405180910390fd5b6003826040516110f0919061243b565b908152602001604051809103902060030181908060018154018082558091505090600182039060005260206000200160009091929091909150908051906020019061113c929190611c35565b50507faf6ba4042ae0bec89739af5da5f7bd8c599cd94c911cba42996fc57a4dca11c7828260405161116f9291906124b1565b60405180910390a15050565b600060038260405161118d919061243b565b908152602001604051809103902060050160009054906101000a900460ff169050919050565b60006003826040516111c5919061243b565b9081526020016040518091039020600401805490509050919050565b6000806003846040516111f4919061243b565b908152602001604051809103902060050160009054906101000a900460ff169050600080905060008090505b600386604051611230919061243b565b908152602001604051809103902060030180549050811015611348576000809054906101000a900473ffffffffffffffffffffffffffffffffffffffff1673ffffffffffffffffffffffffffffffffffffffff166346bdca9a8660038960405161129a919061243b565b908152602001604051809103902060030184815481106112b657fe5b906000526020600020016040518363ffffffff1660e01b81526004016112dd929190612534565b60206040518083038186803b1580156112f557600080fd5b505afa158015611309573d6000803e3d6000fd5b505050506040513d601f19601f8201168201806040525061132d9190810190611d58565b1561133b5760019150611348565b8080600101915050611220565b508180156113535750805b9250505092915050565b61136681610aba565b156113a6576040517f08c379a000000000000000000000000000000000000000000000000000000000815260040161139d906125cb565b60405180910390fd5b60018190806001815401808255809150509060018203906000526020600020016000909192909190915090805190602001906113e3929190611c35565b50507f961b734c41327bf9cb361abefb818c2fdaa9534dd6eb5a55626e56501f2b6b6e81604051611414919061248f565b60405180910390a150565b600080600384604051611432919061243b565b908152602001604051809103902060050160009054906101000a900460ff16905060008090508180156114625750805b9250505092915050565b60608083600385604051611480919061243b565b9081526020016040518091039020600301848154811061149c57fe5b90600052602060002001808054600181600116156101000203166002900480601f01602080910402602001604051908101604052809291908181526020018280546001816001161561010002031660029004801561153b5780601f106115105761010080835404028352916020019161153b565b820191906000526020600020905b81548152906001019060200180831161151e57829003601f168201915b50505050509050915091509250929050565b6000600280549050905090565b600060038260405161156c919061243b565b9081526020016040518091039020600001805490509050919050565b600060038260405161159a919061243b565b9081526020016040518091039020600301805490509050919050565b606080836003856040516115ca919061243b565b908152602001604051809103902060040184815481106115e657fe5b90600052602060002001808054600181600116156101000203166002900480601f0160208091040260200160405190810160405280929190818152602001828054600181600116156101000203166002900480156116855780601f1061165a57610100808354040283529160200191611685565b820191906000526020600020905b81548152906001019060200180831161166857829003601f168201915b50505050509050915091509250929050565b6116a1828261141f565b156116e1576040517f08c379a00000000000000000000000000000000000000000000000000000000081526004016116d8906125ab565b60405180910390fd5b6003826040516116f1919061243b565b908152602001604051809103902060030181908060018154018082558091505090600182039060005260206000200160009091929091909150908051906020019061173d929190611c35565b50507fce134c2f6749a7c8c27263fd44938e75a902092c93fbc45a5bbee3f362f9361e82826040516117709291906124b1565b60405180910390a15050565b6002818154811061178957fe5b906000526020600020016000915090508054600181600116156101000203166002900480601f01602080910402602001604051908101604052809291908181526020018280546001816001161561010002031660029004801561182d5780601f106118025761010080835404028352916020019161182d565b820191906000526020600020905b81548152906001019060200180831161181057829003601f168201915b505050505081565b606080600384604051611848919061243b565b9081526020016040518091039020600001838154811061186457fe5b9060005260206000209060020201600001600385604051611885919061243b565b908152602001604051809103902060000184815481106118a157fe5b9060005260206000209060020201600101818054600181600116156101000203166002900480601f0160208091040260200160405190810160405280929190818152602001828054600181600116156101000203166002900480156119475780601f1061191c57610100808354040283529160200191611947565b820191906000526020600020905b81548152906001019060200180831161192a57829003601f168201915b50505050509150808054600181600116156101000203166002900480601f0160208091040260200160405190810160405280929190818152602001828054600181600116156101000203166002900480156119e35780601f106119b8576101008083540402835291602001916119e3565b820191906000526020600020905b8154815290600101906020018083116119c657829003601f168201915b50505050509050915091509250929050565b6119fe8361117b565b15611a3e576040517f08c379a0000000000000000000000000000000000000000000000000000000008152600401611a359061256b565b60405180910390fd5b6001600384604051611a50919061243b565b908152602001604051809103902060050160006101000a81548160ff02191690831515021790555081600384604051611a89919061243b565b90815260200160405180910390206001019080519060200190611aad929190611c35565b5080600384604051611abf919061243b565b90815260200160405180910390206002019080519060200190611ae3929190611c35565b506002839080600181540180825580915050906001820390600052602060002001600090919290919091509080519060200190611b21929190611c35565b50507f5f1407d55cfb9234116ab0968b1ac0eb46b3a3e00530145812e7a97026f3b1cd838383604051611b56939291906124e8565b60405180910390a1505050565b6040518060c0016040528060608152602001606081526020016060815260200160608152602001606081526020016000151581525090565b604051806040016040528060608152602001606081525090565b828054600181600116156101000203166002900490600052602060002090601f016020900481019282601f10611bf657805160ff1916838001178555611c24565b82800160010185558215611c24579182015b82811115611c23578251825591602001919060010190611c08565b5b509050611c319190611cb5565b5090565b828054600181600116156101000203166002900490600052602060002090601f016020900481019282601f10611c7657805160ff1916838001178555611ca4565b82800160010185558215611ca4579182015b82811115611ca3578251825591602001919060010190611c88565b5b509050611cb19190611cb5565b5090565b611cd791905b80821115611cd3576000816000905550600101611cbb565b5090565b90565b600081519050611ce9816127d4565b92915050565b600082601f830112611d0057600080fd5b8135611d13611d0e82612675565b612648565b91508082526020830160208301858383011115611d2f57600080fd5b611d3a838284612781565b50505092915050565b600081359050611d52816127eb565b92915050565b600060208284031215611d6a57600080fd5b6000611d7884828501611cda565b91505092915050565b600060208284031215611d9357600080fd5b600082013567ffffffffffffffff811115611dad57600080fd5b611db984828501611cef565b91505092915050565b60008060408385031215611dd557600080fd5b600083013567ffffffffffffffff811115611def57600080fd5b611dfb85828601611cef565b925050602083013567ffffffffffffffff811115611e1857600080fd5b611e2485828601611cef565b9150509250929050565b600080600060608486031215611e4357600080fd5b600084013567ffffffffffffffff811115611e5d57600080fd5b611e6986828701611cef565b935050602084013567ffffffffffffffff811115611e8657600080fd5b611e9286828701611cef565b925050604084013567ffffffffffffffff811115611eaf57600080fd5b611ebb86828701611cef565b9150509250925092565b60008060408385031215611ed857600080fd5b600083013567ffffffffffffffff811115611ef257600080fd5b611efe85828601611cef565b9250506020611f0f85828601611d43565b9150509250929050565b600060208284031215611f2b57600080fd5b6000611f3984828501611d43565b91505092915050565b6000611f4e83836120dc565b905092915050565b6000611f6283836123e8565b905092915050565b6000611f75826126d6565b611f7f818561271c565b935083602082028501611f91856126a1565b8060005b85811015611fcd5784840389528151611fae8582611f42565b9450611fb983612702565b925060208a01995050600181019050611f95565b50829750879550505050505092915050565b6000611fea826126e1565b611ff4818561272d565b935083602082028501612006856126b1565b8060005b8581101561204257848403895281516120238582611f56565b945061202e8361270f565b925060208a0199505060018101905061200a565b50829750879550505050505092915050565b61205d8161276b565b82525050565b61206c8161276b565b82525050565b600061207d826126f7565b612087818561274f565b9350612097818560208601612790565b6120a0816127c3565b840191505092915050565b60006120b6826126f7565b6120c08185612760565b93506120d0818560208601612790565b80840191505092915050565b60006120e7826126ec565b6120f1818561273e565b9350612101818560208601612790565b61210a816127c3565b840191505092915050565b6000612120826126ec565b61212a818561274f565b935061213a818560208601612790565b612143816127c3565b840191505092915050565b60008154600181166000811461216b5760018114612191576121d5565b607f600283041661217c818761274f565b955060ff1983168652602086019350506121d5565b6002820461219f818761274f565b95506121aa856126c1565b60005b828110156121cc578154818901526001820191506020810190506121ad565b80880195505050505b505092915050565b60006121ea601c8361274f565b91507f746865206f626a65637420697320616c726561647920657869737473000000006000830152602082019050919050565b600061222a601b8361274f565b91507f746865206576656e7420697320616c72656164792065786973747300000000006000830152602082019050919050565b600061226a601b8361274f565b91507f746865206167656e7420697320616c72656164792065786973747300000000006000830152602082019050919050565b60006122aa60228361274f565b91507f7468652070726f70657274795479706520697320616c7265616479206578697360008301527f74730000000000000000000000000000000000000000000000000000000000006020830152604082019050919050565b600061231060208361274f565b91507f7468652070726f7065727469657320697320616c7265616479206578697374736000830152602082019050919050565b600060c08301600083015184820360008601526123608282611fdf565b9150506020830151848203602086015261237a82826120dc565b9150506040830151848203604086015261239482826120dc565b915050606083015184820360608601526123ae8282611f6a565b915050608083015184820360808601526123c88282611f6a565b91505060a08301516123dd60a0860182612054565b508091505092915050565b6000604083016000830151848203600086015261240582826120dc565b9150506020830151848203602086015261241f82826120dc565b9150508091505092915050565b61243581612777565b82525050565b600061244782846120ab565b915081905092915050565b60006020820190506124676000830184612063565b92915050565b600060208201905081810360008301526124878184612115565b905092915050565b600060208201905081810360008301526124a98184612072565b905092915050565b600060408201905081810360008301526124cb8185612072565b905081810360208301526124df8184612072565b90509392505050565b600060608201905081810360008301526125028186612072565b905081810360208301526125168185612072565b9050818103604083015261252a8184612072565b9050949350505050565b6000604082019050818103600083015261254e8185612072565b90508181036020830152612562818461214e565b90509392505050565b60006020820190508181036000830152612584816121dd565b9050919050565b600060208201905081810360008301526125a48161221d565b9050919050565b600060208201905081810360008301526125c48161225d565b9050919050565b600060208201905081810360008301526125e48161229d565b9050919050565b6000602082019050818103600083015261260481612303565b9050919050565b600060208201905081810360008301526126258184612343565b905092915050565b6000602082019050612642600083018461242c565b92915050565b6000604051905081810181811067ffffffffffffffff8211171561266b57600080fd5b8060405250919050565b600067ffffffffffffffff82111561268c57600080fd5b601f19601f8301169050602081019050919050565b6000819050602082019050919050565b6000819050602082019050919050565b60008190508160005260206000209050919050565b600081519050919050565b600081519050919050565b600081519050919050565b600081519050919050565b6000602082019050919050565b6000602082019050919050565b600082825260208201905092915050565b600082825260208201905092915050565b600082825260208201905092915050565b600082825260208201905092915050565b600081905092915050565b60008115159050919050565b6000819050919050565b82818337600083830152505050565b60005b838110156127ae578082015181840152602081019050612793565b838111156127bd576000848401525b50505050565b6000601f19601f8301169050919050565b6127dd8161276b565b81146127e857600080fd5b50565b6127f481612777565b81146127ff57600080fd5b5056fea365627a7a72315820487debaaa580f93dddfc51507ff82909e26b2d4a205ae727884d7a939165ebdf6c6578706572696d656e74616cf564736f6c63430005100040",
  "source": "pragma solidity >=0.4.21 <0.7.0;\npragma experimental ABIEncoderV2;\nimport \"./Strings.sol\";\n\ncontract Object {\n\n    function setPropertyType(string memory _propType)public;\n    function setProperties(string memory _objectHash, string memory _propType,string memory _propValue)public;\n    function setObject(string memory _objectHash,string memory _category,string memory _format)public;\n    function setEvent(string memory _objectHash,string memory _eventId)public;\n    function setAgent(string memory _objectHash,string memory _agentId)public;\n\n    function getPropertyTypeExists(string memory _propType)public view returns (bool);\n    function getObjectPropertiesExists(string memory _objectHash,string memory _propType,string memory _propValue)public view returns (bool);\n    function getObjectExists(string memory _objectHash)public view returns (bool);\n    function getObjectEventExists(string memory _objectHash, string memory _eventId)public view returns (bool);\n    function getObjectAgentExists(string memory _objectHash, string memory _agentId)public view returns (bool);\n\n    function getNumEvents(string memory _objectHash) public view returns (uint256);\n    function getNumAgents(string memory _objectHash) public view returns (uint256);\n    function getNumObject() public view returns (uint256);\n\n    function getObject(uint256 _index) public view returns (string memory);\n    function getObjectPropertiesLength(string memory _objectHash) public view returns (uint256);\n    function getObjectPropertiesLength(string memory _objectHash,uint256 _propertiesIndex) public view returns (string memory, string memory);\n    function getObjectCategoryAndFormat(string memory _objectHash) public view returns (string memory,string memory);\n    function getEvent(string memory _objectHash, uint256 _eventIndex) public view returns (string memory, string memory);\n    function getAgent(string memory _objectHash, uint256 _agentIndex) public view returns (string memory, string memory);\n}\n\n\ncontract ProvObject is Object {\n    Strings st;\n    struct ObjectProperties {\n        string propType;\n        string propValue;\n    }\n\n    struct ObjectData {\n        ObjectProperties[] properties;\n        string category;\n        string format;\n        string[] events; //id\n        string[] agents; //id\n        bool isValid; //shi fou yi cun zai\n    }\n\n    string[] propTypes;\n    string[] public objects;\n\n    mapping(string => ObjectData) private provObjects;\n\n    event ObjectSet(string _objectHash, string _category, string _format);\n    event ObjectSetPropertyType(string  _propType);\n    event ObjectSetProperties(string _objectHash, string _propType, string _propValue);\n    event ObjectSetEvent(string _objectHash, string _eventId);\n    event ObjectSetAgent(string _objectHash, string _agentId);\n\n    function setPropertyType(string memory _propType) public {\n        if (getPropertyTypeExists(_propType)){\n            revert(\"the propertyType is already exists\");\n        }\n        propTypes.push(_propType);\n        emit ObjectSetPropertyType(_propType);\n    }\n\n    function setProperties(string memory _objectHash,string memory _propType,string memory _propValue )public {\n        if (getObjectPropertiesExists(_objectHash,_propType, _propValue)) {\n            revert(\"the properties is already exists\");\n        }\n        ObjectProperties memory i;\n        i.propType = _propType;\n        i.propValue = _propValue;\n        provObjects[_objectHash].properties.push(i);\n        emit ObjectSetProperties(_objectHash,_propType,_propValue);\n    }\n\n    function setObject(string memory _objectHash,string memory _category,string memory _format) public {\n        if (getObjectExists(_objectHash)) {\n            revert(\"the object is already exists\");\n        }\n        provObjects[_objectHash].isValid = true;\n        provObjects[_objectHash].category = _category;\n        provObjects[_objectHash].format = _format;\n        objects.push(_objectHash);\n        emit ObjectSet(_objectHash,_category,_format);\n    }\n\n    function setEvent(string memory _objectHash,string memory _eventId) public {\n        if (getObjectEventExists(_objectHash, _eventId)) {\n            revert(\"the event is already exists\");\n        }\n        provObjects[_objectHash].events.push(_eventId);\n        emit ObjectSetEvent(_objectHash,_eventId);\n    }\n\n    function setAgent(string memory _objectHash,string memory _agentId )public {\n        if (getObjectAgentExists(_objectHash, _agentId)) {\n            revert(\"the agent is already exists\");\n        }\n        provObjects[_objectHash].events.push(_agentId);\n        emit ObjectSetAgent(_objectHash,_agentId);\n    }\n\n    function getPropertyTypeExists(string memory _propType)public view returns (bool){\n        bool flag = false;\n        for (uint index = 0; index < propTypes.length; index++) {\n            if(st.equal(_propType,propTypes[index])) {\n                flag = true;\n                break;\n            }\n        }\n        return flag;\n    }\n    function getObjectPropertiesExists(string memory _objectHash,string memory _propType,string memory _propValue)public view returns (bool){\n        bool flag = false;\n        for (uint index = 0; index < provObjects[_objectHash].properties.length; index++) {\n            ObjectProperties memory i = provObjects[_objectHash].properties[index];\n            // if(st.equal(i.propType,_propType) && st.equal(i.propValue,_propValue)) {\n            if(equal(i.propType, _propType) && equal(i.propValue, _propValue)) {\n                flag = true;\n                break;\n            }\n        }\n        return flag;\n    }\n\n    function getObjectExists(string memory _objectHash)public view returns (bool) {\n        return provObjects[_objectHash].isValid;\n    }\n\n    function getObjectEventExists(string memory _objectHash, string memory _eventId)public view returns (bool) {\n        bool objectExists = provObjects[_objectHash].isValid;\n        bool eventExists = false;\n        for (uint index = 0; index < provObjects[_objectHash].events.length; index++) {\n            if (st.equal(_eventId,provObjects[_objectHash].events[index]))\n            // if (keccak256(abi.encodePacked(_eventId)) == keccak256(abi.encodePacked(provObjects[_objectHash].events[index])))\n            {\n                eventExists = true;\n                break;\n            }\n        }\n        return objectExists&&eventExists;\n    }\n\n    function getObjectAgentExists(string memory _objectHash, string memory _agentId)public view returns (bool) {\n        bool objectExists = provObjects[_objectHash].isValid;\n        bool agentExists = false;\n        // for (uint index = 0; index < provObjects[_objectHash].events.length; index++) {\n        //     if (keccak256(abi.encodePacked(_agentId)) == keccak256(abi.encodePacked(provObjects[_objectHash].events[index])))\n        //     {\n        //         agentExists = true;\n        //         break;\n        //     }\n        // }\n        return objectExists&&agentExists;\n    }\n\n    function getNumEvents(string memory _objectHash) public view returns (uint256) {\n        return provObjects[_objectHash].events.length;\n    }\n\n    function getNumAgents(string memory _objectHash) public view returns (uint256) {\n        return provObjects[_objectHash].agents.length;\n    }\n\n    function getNumObject() public view returns (uint256){\n        return objects.length;\n    }\n\n\n    function getObject(uint256 _index) public view returns (string memory){\n        return objects[_index];\n    }\n\n    function getObject(string memory _objectHash) public view returns (ObjectData memory){\n        return provObjects[_objectHash];\n    }\n\n    function getObjectPropertiesLength(string memory _objectHash) public view returns (uint256) {\n        return provObjects[_objectHash].properties.length;\n    }\n    function getObjectPropertiesLength(string memory _objectHash,uint256 _propertiesIndex) public view returns (string memory, string memory){\n        return (provObjects[_objectHash].properties[_propertiesIndex].propType, provObjects[_objectHash].properties[_propertiesIndex].propValue);\n    }\n\n    function getObjectCategoryAndFormat(string memory _objectHash) public view returns (string memory,string memory){\n        return (provObjects[_objectHash].category,provObjects[_objectHash].format);\n    }\n    function getEvent(string memory _objectHash, uint256 _eventIndex) public view returns (string memory, string memory) {\n        return (_objectHash, provObjects[_objectHash].events[_eventIndex]);\n    }\n\n    function getAgent(string memory _objectHash, uint256 _agentIndex) public view returns (string memory, string memory) {\n        return (_objectHash, provObjects[_objectHash].agents[_agentIndex]);\n    }\n\n    function equal (string memory s1, string memory s2) public pure returns(bool){\n        return true;\n        // return (keccak256(abi.encodePacked(s1)) == keccak256(abi.encodePacked(s2)));\n    }\n}",
  "sourcePath": "C:\\DiskF\\Truffle\\Vue-Dapp\\contracts\\Object.sol",
  "compiler": {
    "name": "solc",
    "version": "0.5.16+commit.9c3226ce.Emscripten.clang"
  },
  "schemaVersion": "3.1.0",
  "updatedAt": "2020-04-19T14:02:59.598Z",
  "networkType": "ethereum",
  "devdoc": {
    "methods": {}
  },
  "userdoc": {
    "methods": {}
  }
}