{
  "contractName": "ProvObject",
  "abi": [
    {
      "anonymous": false,
      "inputs": [
        {
          "indexed": false,
          "internalType": "string",
          "name": "_objectHash",
          "type": "string"
        },
        {
          "indexed": false,
          "internalType": "string",
          "name": "_category",
          "type": "string"
        },
        {
          "indexed": false,
          "internalType": "string",
          "name": "_format",
          "type": "string"
        }
      ],
      "name": "ObjectSet",
      "type": "event"
    },
    {
      "anonymous": false,
      "inputs": [
        {
          "indexed": false,
          "internalType": "string",
          "name": "_objectHash",
          "type": "string"
        },
        {
          "indexed": false,
          "internalType": "string",
          "name": "_agentId",
          "type": "string"
        }
      ],
      "name": "ObjectSetAgent",
      "type": "event"
    },
    {
      "anonymous": false,
      "inputs": [
        {
          "indexed": false,
          "internalType": "string",
          "name": "_objectHash",
          "type": "string"
        },
        {
          "indexed": false,
          "internalType": "string",
          "name": "_eventId",
          "type": "string"
        }
      ],
      "name": "ObjectSetEvent",
      "type": "event"
    },
    {
      "anonymous": false,
      "inputs": [
        {
          "indexed": false,
          "internalType": "string",
          "name": "_objectHash",
          "type": "string"
        },
        {
          "indexed": false,
          "internalType": "string",
          "name": "_propType",
          "type": "string"
        },
        {
          "indexed": false,
          "internalType": "string",
          "name": "_propValue",
          "type": "string"
        }
      ],
      "name": "ObjectSetProperties",
      "type": "event"
    },
    {
      "anonymous": false,
      "inputs": [
        {
          "indexed": false,
          "internalType": "string",
          "name": "_propType",
          "type": "string"
        }
      ],
      "name": "ObjectSetPropertyType",
      "type": "event"
    },
    {
      "constant": true,
      "inputs": [
        {
          "internalType": "uint256",
          "name": "",
          "type": "uint256"
        }
      ],
      "name": "objects",
      "outputs": [
        {
          "internalType": "string",
          "name": "",
          "type": "string"
        }
      ],
      "payable": false,
      "stateMutability": "view",
      "type": "function"
    },
    {
      "constant": false,
      "inputs": [
        {
          "internalType": "string",
          "name": "_propType",
          "type": "string"
        }
      ],
      "name": "setPropertyType",
      "outputs": [],
      "payable": false,
      "stateMutability": "nonpayable",
      "type": "function"
    },
    {
      "constant": false,
      "inputs": [
        {
          "internalType": "string",
          "name": "_objectHash",
          "type": "string"
        },
        {
          "internalType": "string",
          "name": "_propType",
          "type": "string"
        },
        {
          "internalType": "string",
          "name": "_propValue",
          "type": "string"
        }
      ],
      "name": "setProperties",
      "outputs": [],
      "payable": false,
      "stateMutability": "nonpayable",
      "type": "function"
    },
    {
      "constant": false,
      "inputs": [
        {
          "internalType": "string",
          "name": "_objectHash",
          "type": "string"
        },
        {
          "internalType": "string",
          "name": "_category",
          "type": "string"
        },
        {
          "internalType": "string",
          "name": "_format",
          "type": "string"
        }
      ],
      "name": "setObject",
      "outputs": [],
      "payable": false,
      "stateMutability": "nonpayable",
      "type": "function"
    },
    {
      "constant": false,
      "inputs": [
        {
          "internalType": "string",
          "name": "_objectHash",
          "type": "string"
        },
        {
          "internalType": "string",
          "name": "_eventId",
          "type": "string"
        }
      ],
      "name": "setEvent",
      "outputs": [],
      "payable": false,
      "stateMutability": "nonpayable",
      "type": "function"
    },
    {
      "constant": false,
      "inputs": [
        {
          "internalType": "string",
          "name": "_objectHash",
          "type": "string"
        },
        {
          "internalType": "string",
          "name": "_agentId",
          "type": "string"
        }
      ],
      "name": "setAgent",
      "outputs": [],
      "payable": false,
      "stateMutability": "nonpayable",
      "type": "function"
    },
    {
      "constant": true,
      "inputs": [
        {
          "internalType": "string",
          "name": "_propType",
          "type": "string"
        }
      ],
      "name": "getPropertyTypeExists",
      "outputs": [
        {
          "internalType": "bool",
          "name": "",
          "type": "bool"
        }
      ],
      "payable": false,
      "stateMutability": "view",
      "type": "function"
    },
    {
      "constant": true,
      "inputs": [
        {
          "internalType": "string",
          "name": "_objectHash",
          "type": "string"
        },
        {
          "internalType": "string",
          "name": "_propType",
          "type": "string"
        },
        {
          "internalType": "string",
          "name": "_propValue",
          "type": "string"
        }
      ],
      "name": "getObjectPropertiesExists",
      "outputs": [
        {
          "internalType": "bool",
          "name": "",
          "type": "bool"
        }
      ],
      "payable": false,
      "stateMutability": "view",
      "type": "function"
    },
    {
      "constant": true,
      "inputs": [
        {
          "internalType": "string",
          "name": "_objectHash",
          "type": "string"
        }
      ],
      "name": "getObjectExists",
      "outputs": [
        {
          "internalType": "bool",
          "name": "",
          "type": "bool"
        }
      ],
      "payable": false,
      "stateMutability": "view",
      "type": "function"
    },
    {
      "constant": true,
      "inputs": [
        {
          "internalType": "string",
          "name": "_objectHash",
          "type": "string"
        },
        {
          "internalType": "string",
          "name": "_eventId",
          "type": "string"
        }
      ],
      "name": "getObjectEventExists",
      "outputs": [
        {
          "internalType": "bool",
          "name": "",
          "type": "bool"
        }
      ],
      "payable": false,
      "stateMutability": "view",
      "type": "function"
    },
    {
      "constant": true,
      "inputs": [
        {
          "internalType": "string",
          "name": "_objectHash",
          "type": "string"
        },
        {
          "internalType": "string",
          "name": "_agentId",
          "type": "string"
        }
      ],
      "name": "getObjectAgentExists",
      "outputs": [
        {
          "internalType": "bool",
          "name": "",
          "type": "bool"
        }
      ],
      "payable": false,
      "stateMutability": "view",
      "type": "function"
    },
    {
      "constant": true,
      "inputs": [
        {
          "internalType": "string",
          "name": "_objectHash",
          "type": "string"
        }
      ],
      "name": "getNumEvents",
      "outputs": [
        {
          "internalType": "uint256",
          "name": "",
          "type": "uint256"
        }
      ],
      "payable": false,
      "stateMutability": "view",
      "type": "function"
    },
    {
      "constant": true,
      "inputs": [
        {
          "internalType": "string",
          "name": "_objectHash",
          "type": "string"
        }
      ],
      "name": "getNumAgents",
      "outputs": [
        {
          "internalType": "uint256",
          "name": "",
          "type": "uint256"
        }
      ],
      "payable": false,
      "stateMutability": "view",
      "type": "function"
    },
    {
      "constant": true,
      "inputs": [],
      "name": "getNumObject",
      "outputs": [
        {
          "internalType": "uint256",
          "name": "",
          "type": "uint256"
        }
      ],
      "payable": false,
      "stateMutability": "view",
      "type": "function"
    },
    {
      "constant": true,
      "inputs": [
        {
          "internalType": "uint256",
          "name": "_index",
          "type": "uint256"
        }
      ],
      "name": "getObject",
      "outputs": [
        {
          "internalType": "string",
          "name": "",
          "type": "string"
        }
      ],
      "payable": false,
      "stateMutability": "view",
      "type": "function"
    },
    {
      "constant": true,
      "inputs": [
        {
          "internalType": "string",
          "name": "_objectHash",
          "type": "string"
        }
      ],
      "name": "getObjectPropertiesLength",
      "outputs": [
        {
          "internalType": "uint256",
          "name": "",
          "type": "uint256"
        }
      ],
      "payable": false,
      "stateMutability": "view",
      "type": "function"
    },
    {
      "constant": true,
      "inputs": [
        {
          "internalType": "string",
          "name": "_objectHash",
          "type": "string"
        },
        {
          "internalType": "uint256",
          "name": "_propertiesIndex",
          "type": "uint256"
        }
      ],
      "name": "getObjectPropertiesLength",
      "outputs": [
        {
          "internalType": "string",
          "name": "",
          "type": "string"
        },
        {
          "internalType": "string",
          "name": "",
          "type": "string"
        }
      ],
      "payable": false,
      "stateMutability": "view",
      "type": "function"
    },
    {
      "constant": true,
      "inputs": [
        {
          "internalType": "string",
          "name": "_objectHash",
          "type": "string"
        }
      ],
      "name": "getObjectCategoryAndFormat",
      "outputs": [
        {
          "internalType": "string",
          "name": "",
          "type": "string"
        },
        {
          "internalType": "string",
          "name": "",
          "type": "string"
        }
      ],
      "payable": false,
      "stateMutability": "view",
      "type": "function"
    },
    {
      "constant": true,
      "inputs": [
        {
          "internalType": "string",
          "name": "_objectHash",
          "type": "string"
        },
        {
          "internalType": "uint256",
          "name": "_eventIndex",
          "type": "uint256"
        }
      ],
      "name": "getEvent",
      "outputs": [
        {
          "internalType": "string",
          "name": "",
          "type": "string"
        },
        {
          "internalType": "string",
          "name": "",
          "type": "string"
        }
      ],
      "payable": false,
      "stateMutability": "view",
      "type": "function"
    },
    {
      "constant": true,
      "inputs": [
        {
          "internalType": "string",
          "name": "_objectHash",
          "type": "string"
        },
        {
          "internalType": "uint256",
          "name": "_agentIndex",
          "type": "uint256"
        }
      ],
      "name": "getAgent",
      "outputs": [
        {
          "internalType": "string",
          "name": "",
          "type": "string"
        },
        {
          "internalType": "string",
          "name": "",
          "type": "string"
        }
      ],
      "payable": false,
      "stateMutability": "view",
      "type": "function"
    }
  ],
  "bytecode": "0x608060405234801561001057600080fd5b50613edf806100206000396000f3fe608060405234801561001057600080fd5b506004361061012c5760003560e01c8063a91623f1116100ad578063e7fca0a311610071578063e7fca0a31461121e578063e864fe58146113c8578063ed1758501461151a578063f337a4e7146115c1578063fb135c8d1461176b5761012c565b8063a91623f114610d4e578063c4a8a67014610eb8578063c82e316214611062578063cd4d4d2e14611080578063db54a8141461114f5761012c565b8063500b8a47116100f4578063500b8a47146108355780635d4ab042146109875780637221eaf814610a5a5780638d83cff714610b29578063a2e07f9b14610c935761012c565b806328316b39146101315780633594baf2146101d85780634002a2e7146102ab578063404e58f0146104ac5780634421263d1461064c575b600080fd5b61015d6004803603602081101561014757600080fd5b8101908080359060200190929190505050611954565b6040518080602001828103825283818151815260200191508051906020019080838360005b8381101561019d578082015181840152602081019050610182565b50505050905090810190601f1680156101ca5780820380516001836020036101000a031916815260200191505b509250505060405180910390f35b610291600480360360208110156101ee57600080fd5b810190808035906020019064010000000081111561020b57600080fd5b82018360208201111561021d57600080fd5b8035906020019184600183028401116401000000008311171561023f57600080fd5b91908080601f016020809104026020016040519081016040528093929190818152602001838380828437600081840152601f19601f820116905080830192505050505050509192919290505050611a0d565b604051808215151515815260200191505060405180910390f35b610492600480360360608110156102c157600080fd5b81019080803590602001906401000000008111156102de57600080fd5b8201836020820111156102f057600080fd5b8035906020019184600183028401116401000000008311171561031257600080fd5b91908080601f016020809104026020016040519081016040528093929190818152602001838380828437600081840152601f19601f8201169050808301925050505050505091929192908035906020019064010000000081111561037557600080fd5b82018360208201111561038757600080fd5b803590602001918460018302840111640100000000831117156103a957600080fd5b91908080601f016020809104026020016040519081016040528093929190818152602001838380828437600081840152601f19601f8201169050808301925050505050505091929192908035906020019064010000000081111561040c57600080fd5b82018360208201111561041e57600080fd5b8035906020019184600183028401116401000000008311171561044057600080fd5b91908080601f016020809104026020016040519081016040528093929190818152602001838380828437600081840152601f19601f820116905080830192505050505050509192919290505050611bfe565b604051808215151515815260200191505060405180910390f35b610565600480360360208110156104c257600080fd5b81019080803590602001906401000000008111156104df57600080fd5b8201836020820111156104f157600080fd5b8035906020019184600183028401116401000000008311171561051357600080fd5b91908080601f016020809104026020016040519081016040528093929190818152602001838380828437600081840152601f19601f820116905080830192505050505050509192919290505050612197565b604051808060200180602001838103835285818151815260200191508051906020019080838360005b838110156105a957808201518184015260208101905061058e565b50505050905090810190601f1680156105d65780820380516001836020036101000a031916815260200191505b50838103825284818151815260200191508051906020019080838360005b8381101561060f5780820151818401526020810190506105f4565b50505050905090810190601f16801561063c5780820380516001836020036101000a031916815260200191505b5094505050505060405180910390f35b6108336004803603606081101561066257600080fd5b810190808035906020019064010000000081111561067f57600080fd5b82018360208201111561069157600080fd5b803590602001918460018302840111640100000000831117156106b357600080fd5b91908080601f016020809104026020016040519081016040528093929190818152602001838380828437600081840152601f19601f8201169050808301925050505050505091929192908035906020019064010000000081111561071657600080fd5b82018360208201111561072857600080fd5b8035906020019184600183028401116401000000008311171561074a57600080fd5b91908080601f016020809104026020016040519081016040528093929190818152602001838380828437600081840152601f19601f820116905080830192505050505050509192919290803590602001906401000000008111156107ad57600080fd5b8201836020820111156107bf57600080fd5b803590602001918460018302840111640100000000831117156107e157600080fd5b91908080601f016020809104026020016040519081016040528093929190818152602001838380828437600081840152601f19601f8201169050808301925050505050505091929192905050506123b3565b005b6109856004803603604081101561084b57600080fd5b810190808035906020019064010000000081111561086857600080fd5b82018360208201111561087a57600080fd5b8035906020019184600183028401116401000000008311171561089c57600080fd5b91908080601f016020809104026020016040519081016040528093929190818152602001838380828437600081840152601f19601f820116905080830192505050505050509192919290803590602001906401000000008111156108ff57600080fd5b82018360208201111561091157600080fd5b8035906020019184600183028401116401000000008311171561093357600080fd5b91908080601f016020809104026020016040519081016040528093929190818152602001838380828437600081840152601f19601f82011690508083019250505050505050919291929050505061269c565b005b610a406004803603602081101561099d57600080fd5b81019080803590602001906401000000008111156109ba57600080fd5b8201836020820111156109cc57600080fd5b803590602001918460018302840111640100000000831117156109ee57600080fd5b91908080601f016020809104026020016040519081016040528093929190818152602001838380828437600081840152601f19601f8201169050808301925050505050505091929192905050506128cf565b604051808215151515815260200191505060405180910390f35b610b1360048036036020811015610a7057600080fd5b8101908080359060200190640100000000811115610a8d57600080fd5b820183602082011115610a9f57600080fd5b80359060200191846001830284011164010000000083111715610ac157600080fd5b91908080601f016020809104026020016040519081016040528093929190818152602001838380828437600081840152601f19601f820116905080830192505050505050509192919290505050612952565b6040518082815260200191505060405180910390f35b610c7960048036036040811015610b3f57600080fd5b8101908080359060200190640100000000811115610b5c57600080fd5b820183602082011115610b6e57600080fd5b80359060200191846001830284011164010000000083111715610b9057600080fd5b91908080601f016020809104026020016040519081016040528093929190818152602001838380828437600081840152601f19601f82011690508083019250505050505050919291929080359060200190640100000000811115610bf357600080fd5b820183602082011115610c0557600080fd5b80359060200191846001830284011164010000000083111715610c2757600080fd5b91908080601f016020809104026020016040519081016040528093929190818152602001838380828437600081840152601f19601f8201169050808301925050505050505091929192905050506129cb565b604051808215151515815260200191505060405180910390f35b610d4c60048036036020811015610ca957600080fd5b8101908080359060200190640100000000811115610cc657600080fd5b820183602082011115610cd857600080fd5b80359060200191846001830284011164010000000083111715610cfa57600080fd5b91908080601f016020809104026020016040519081016040528093929190818152602001838380828437600081840152601f19601f820116905080830192505050505050509192919290505050612d18565b005b610e9e60048036036040811015610d6457600080fd5b8101908080359060200190640100000000811115610d8157600080fd5b820183602082011115610d9357600080fd5b80359060200191846001830284011164010000000083111715610db557600080fd5b91908080601f016020809104026020016040519081016040528093929190818152602001838380828437600081840152601f19601f82011690508083019250505050505050919291929080359060200190640100000000811115610e1857600080fd5b820183602082011115610e2a57600080fd5b80359060200191846001830284011164010000000083111715610e4c57600080fd5b91908080601f016020809104026020016040519081016040528093929190818152602001838380828437600081840152601f19601f820116905080830192505050505050509192919290505050612e55565b604051808215151515815260200191505060405180910390f35b610f7b60048036036040811015610ece57600080fd5b8101908080359060200190640100000000811115610eeb57600080fd5b820183602082011115610efd57600080fd5b80359060200191846001830284011164010000000083111715610f1f57600080fd5b91908080601f016020809104026020016040519081016040528093929190818152602001838380828437600081840152601f19601f820116905080830192505050505050509192919290803590602001909291905050506130f3565b604051808060200180602001838103835285818151815260200191508051906020019080838360005b83811015610fbf578082015181840152602081019050610fa4565b50505050905090810190601f168015610fec5780820380516001836020036101000a031916815260200191505b50838103825284818151815260200191508051906020019080838360005b8381101561102557808201518184015260208101905061100a565b50505050905090810190601f1680156110525780820380516001836020036101000a031916815260200191505b5094505050505060405180910390f35b61106a61321f565b6040518082815260200191505060405180910390f35b6111396004803603602081101561109657600080fd5b81019080803590602001906401000000008111156110b357600080fd5b8201836020820111156110c557600080fd5b803590602001918460018302840111640100000000831117156110e757600080fd5b91908080601f016020809104026020016040519081016040528093929190818152602001838380828437600081840152601f19601f82011690508083019250505050505050919291929050505061322c565b6040518082815260200191505060405180910390f35b6112086004803603602081101561116557600080fd5b810190808035906020019064010000000081111561118257600080fd5b82018360208201111561119457600080fd5b803590602001918460018302840111640100000000831117156111b657600080fd5b91908080601f016020809104026020016040519081016040528093929190818152602001838380828437600081840152601f19601f8201169050808301925050505050505091929192905050506132a5565b6040518082815260200191505060405180910390f35b6112e16004803603604081101561123457600080fd5b810190808035906020019064010000000081111561125157600080fd5b82018360208201111561126357600080fd5b8035906020019184600183028401116401000000008311171561128557600080fd5b91908080601f016020809104026020016040519081016040528093929190818152602001838380828437600081840152601f19601f8201169050808301925050505050505091929192908035906020019092919050505061331e565b604051808060200180602001838103835285818151815260200191508051906020019080838360005b8381101561132557808201518184015260208101905061130a565b50505050905090810190601f1680156113525780820380516001836020036101000a031916815260200191505b50838103825284818151815260200191508051906020019080838360005b8381101561138b578082015181840152602081019050611370565b50505050905090810190601f1680156113b85780820380516001836020036101000a031916815260200191505b5094505050505060405180910390f35b611518600480360360408110156113de57600080fd5b81019080803590602001906401000000008111156113fb57600080fd5b82018360208201111561140d57600080fd5b8035906020019184600183028401116401000000008311171561142f57600080fd5b91908080601f016020809104026020016040519081016040528093929190818152602001838380828437600081840152601f19601f8201169050808301925050505050505091929192908035906020019064010000000081111561149257600080fd5b8201836020820111156114a457600080fd5b803590602001918460018302840111640100000000831117156114c657600080fd5b91908080601f016020809104026020016040519081016040528093929190818152602001838380828437600081840152601f19601f82011690508083019250505050505050919291929050505061344a565b005b6115466004803603602081101561153057600080fd5b810190808035906020019092919050505061367d565b6040518080602001828103825283818151815260200191508051906020019080838360005b8381101561158657808201518184015260208101905061156b565b50505050905090810190601f1680156115b35780820380516001836020036101000a031916815260200191505b509250505060405180910390f35b611684600480360360408110156115d757600080fd5b81019080803590602001906401000000008111156115f457600080fd5b82018360208201111561160657600080fd5b8035906020019184600183028401116401000000008311171561162857600080fd5b91908080601f016020809104026020016040519081016040528093929190818152602001838380828437600081840152601f19601f82011690508083019250505050505050919291929080359060200190929190505050613736565b604051808060200180602001838103835285818151815260200191508051906020019080838360005b838110156116c85780820151818401526020810190506116ad565b50505050905090810190601f1680156116f55780820380516001836020036101000a031916815260200191505b50838103825284818151815260200191508051906020019080838360005b8381101561172e578082015181840152602081019050611713565b50505050905090810190601f16801561175b5780820380516001836020036101000a031916815260200191505b5094505050505060405180910390f35b6119526004803603606081101561178157600080fd5b810190808035906020019064010000000081111561179e57600080fd5b8201836020820111156117b057600080fd5b803590602001918460018302840111640100000000831117156117d257600080fd5b91908080601f016020809104026020016040519081016040528093929190818152602001838380828437600081840152601f19601f8201169050808301925050505050505091929192908035906020019064010000000081111561183557600080fd5b82018360208201111561184757600080fd5b8035906020019184600183028401116401000000008311171561186957600080fd5b91908080601f016020809104026020016040519081016040528093929190818152602001838380828437600081840152601f19601f820116905080830192505050505050509192919290803590602001906401000000008111156118cc57600080fd5b8201836020820111156118de57600080fd5b8035906020019184600183028401116401000000008311171561190057600080fd5b91908080601f016020809104026020016040519081016040528093929190818152602001838380828437600081840152601f19601f82011690508083019250505050505050919291929050505061398c565b005b60606002828154811061196357fe5b906000526020600020018054600181600116156101000203166002900480601f016020809104026020016040519081016040528092919081815260200182805460018160011615610100020316600290048015611a015780601f106119d657610100808354040283529160200191611a01565b820191906000526020600020905b8154815290600101906020018083116119e457829003601f168201915b50505050509050919050565b6000806000905060008090505b600180549050811015611bf4576000809054906101000a900473ffffffffffffffffffffffffffffffffffffffff1673ffffffffffffffffffffffffffffffffffffffff166346bdca9a8560018481548110611a7257fe5b906000526020600020016040518363ffffffff1660e01b8152600401808060200180602001838103835285818151815260200191508051906020019080838360005b83811015611acf578082015181840152602081019050611ab4565b50505050905090810190601f168015611afc5780820380516001836020036101000a031916815260200191505b50838103825284818154600181600116156101000203166002900481526020019150805460018160011615610100020316600290048015611b7e5780601f10611b5357610100808354040283529160200191611b7e565b820191906000526020600020905b815481529060010190602001808311611b6157829003601f168201915b505094505050505060206040518083038186803b158015611b9e57600080fd5b505afa158015611bb2573d6000803e3d6000fd5b505050506040513d6020811015611bc857600080fd5b810190808051906020019092919050505015611be75760019150611bf4565b8080600101915050611a1a565b5080915050919050565b6000806000905060008090505b6003866040518082805190602001908083835b60208310611c415780518252602082019150602081019050602083039250611c1e565b6001836020036101000a03801982511681845116808217855250505050505090500191505090815260200160405180910390206000018054905081101561218b57611c8a613d49565b6003876040518082805190602001908083835b60208310611cc05780518252602082019150602081019050602083039250611c9d565b6001836020036101000a03801982511681845116808217855250505050505090500191505090815260200160405180910390206000018281548110611d0157fe5b9060005260206000209060020201604051806040016040529081600082018054600181600116156101000203166002900480601f016020809104026020016040519081016040528092919081815260200182805460018160011615610100020316600290048015611db35780601f10611d8857610100808354040283529160200191611db3565b820191906000526020600020905b815481529060010190602001808311611d9657829003601f168201915b50505050508152602001600182018054600181600116156101000203166002900480601f016020809104026020016040519081016040528092919081815260200182805460018160011615610100020316600290048015611e555780601f10611e2a57610100808354040283529160200191611e55565b820191906000526020600020905b815481529060010190602001808311611e3857829003601f168201915b50505050508152505090506000809054906101000a900473ffffffffffffffffffffffffffffffffffffffff1673ffffffffffffffffffffffffffffffffffffffff166346bdca9a8260000151886040518363ffffffff1660e01b8152600401808060200180602001838103835285818151815260200191508051906020019080838360005b83811015611ef6578082015181840152602081019050611edb565b50505050905090810190601f168015611f235780820380516001836020036101000a031916815260200191505b50838103825284818151815260200191508051906020019080838360005b83811015611f5c578082015181840152602081019050611f41565b50505050905090810190601f168015611f895780820380516001836020036101000a031916815260200191505b5094505050505060206040518083038186803b158015611fa857600080fd5b505afa158015611fbc573d6000803e3d6000fd5b505050506040513d6020811015611fd257600080fd5b8101908080519060200190929190505050801561216e57506000809054906101000a900473ffffffffffffffffffffffffffffffffffffffff1673ffffffffffffffffffffffffffffffffffffffff166346bdca9a8260200151876040518363ffffffff1660e01b8152600401808060200180602001838103835285818151815260200191508051906020019080838360005b83811015612080578082015181840152602081019050612065565b50505050905090810190601f1680156120ad5780820380516001836020036101000a031916815260200191505b50838103825284818151815260200191508051906020019080838360005b838110156120e65780820151818401526020810190506120cb565b50505050905090810190601f1680156121135780820380516001836020036101000a031916815260200191505b5094505050505060206040518083038186803b15801561213257600080fd5b505afa158015612146573d6000803e3d6000fd5b505050506040513d602081101561215c57600080fd5b81019080805190602001909291905050505b1561217d57600192505061218b565b508080600101915050611c0b565b50809150509392505050565b6060806003836040518082805190602001908083835b602083106121d057805182526020820191506020810190506020830392506121ad565b6001836020036101000a03801982511681845116808217855250505050505090500191505090815260200160405180910390206001016003846040518082805190602001908083835b6020831061223c5780518252602082019150602081019050602083039250612219565b6001836020036101000a0380198251168184511680821785525050505050509050019150509081526020016040518091039020600201818054600181600116156101000203166002900480601f0160208091040260200160405190810160405280929190818152602001828054600181600116156101000203166002900480156123075780601f106122dc57610100808354040283529160200191612307565b820191906000526020600020905b8154815290600101906020018083116122ea57829003601f168201915b50505050509150808054600181600116156101000203166002900480601f0160208091040260200160405190810160405280929190818152602001828054600181600116156101000203166002900480156123a35780601f10612378576101008083540402835291602001916123a3565b820191906000526020600020905b81548152906001019060200180831161238657829003601f168201915b5050505050905091509150915091565b6123be838383611bfe565b15612431576040517f08c379a00000000000000000000000000000000000000000000000000000000081526004018080602001828103825260208152602001807f7468652070726f7065727469657320697320616c72656164792065786973747381525060200191505060405180910390fd5b612439613d49565b8281600001819052508181602001819052506003846040518082805190602001908083835b60208310612481578051825260208201915060208101905060208303925061245e565b6001836020036101000a0380198251168184511680821785525050505050509050019150509081526020016040518091039020600001819080600181540180825580915050906001820390600052602060002090600202016000909192909190915060008201518160000190805190602001906124ff929190613d63565b50602082015181600101908051906020019061251c929190613d63565b505050507fc8f4639aca483626ff5cc4248d2988e8cca98f19c753b54a9868d7a0c86d27d184848460405180806020018060200180602001848103845287818151815260200191508051906020019080838360005b8381101561258c578082015181840152602081019050612571565b50505050905090810190601f1680156125b95780820380516001836020036101000a031916815260200191505b50848103835286818151815260200191508051906020019080838360005b838110156125f25780820151818401526020810190506125d7565b50505050905090810190601f16801561261f5780820380516001836020036101000a031916815260200191505b50848103825285818151815260200191508051906020019080838360005b8381101561265857808201518184015260208101905061263d565b50505050905090810190601f1680156126855780820380516001836020036101000a031916815260200191505b50965050505050505060405180910390a150505050565b6126a682826129cb565b15612719576040517f08c379a000000000000000000000000000000000000000000000000000000000815260040180806020018281038252601b8152602001807f746865206576656e7420697320616c726561647920657869737473000000000081525060200191505060405180910390fd5b6003826040518082805190602001908083835b6020831061274f578051825260208201915060208101905060208303925061272c565b6001836020036101000a03801982511681845116808217855250505050505090500191505090815260200160405180910390206003018190806001815401808255809150509060018203906000526020600020016000909192909190915090805190602001906127c0929190613de3565b50507faf6ba4042ae0bec89739af5da5f7bd8c599cd94c911cba42996fc57a4dca11c78282604051808060200180602001838103835285818151815260200191508051906020019080838360005b8381101561282957808201518184015260208101905061280e565b50505050905090810190601f1680156128565780820380516001836020036101000a031916815260200191505b50838103825284818151815260200191508051906020019080838360005b8381101561288f578082015181840152602081019050612874565b50505050905090810190601f1680156128bc5780820380516001836020036101000a031916815260200191505b5094505050505060405180910390a15050565b60006003826040518082805190602001908083835b6020831061290757805182526020820191506020810190506020830392506128e4565b6001836020036101000a038019825116818451168082178552505050505050905001915050908152602001604051809103902060050160009054906101000a900460ff169050919050565b60006003826040518082805190602001908083835b6020831061298a5780518252602082019150602081019050602083039250612967565b6001836020036101000a0380198251168184511680821785525050505050509050019150509081526020016040518091039020600401805490509050919050565b6000806003846040518082805190602001908083835b60208310612a0457805182526020820191506020810190506020830392506129e1565b6001836020036101000a038019825116818451168082178552505050505050905001915050908152602001604051809103902060050160009054906101000a900460ff169050600080905060008090505b6003866040518082805190602001908083835b60208310612a8b5780518252602082019150602081019050602083039250612a68565b6001836020036101000a038019825116818451168082178552505050505050905001915050908152602001604051809103902060030180549050811015612d03576000809054906101000a900473ffffffffffffffffffffffffffffffffffffffff1673ffffffffffffffffffffffffffffffffffffffff166346bdca9a866003896040518082805190602001908083835b60208310612b405780518252602082019150602081019050602083039250612b1d565b6001836020036101000a03801982511681845116808217855250505050505090500191505090815260200160405180910390206003018481548110612b8157fe5b906000526020600020016040518363ffffffff1660e01b8152600401808060200180602001838103835285818151815260200191508051906020019080838360005b83811015612bde578082015181840152602081019050612bc3565b50505050905090810190601f168015612c0b5780820380516001836020036101000a031916815260200191505b50838103825284818154600181600116156101000203166002900481526020019150805460018160011615610100020316600290048015612c8d5780601f10612c6257610100808354040283529160200191612c8d565b820191906000526020600020905b815481529060010190602001808311612c7057829003601f168201915b505094505050505060206040518083038186803b158015612cad57600080fd5b505afa158015612cc1573d6000803e3d6000fd5b505050506040513d6020811015612cd757600080fd5b810190808051906020019092919050505015612cf65760019150612d03565b8080600101915050612a55565b50818015612d0e5750805b9250505092915050565b612d2181611a0d565b15612d77576040517f08c379a0000000000000000000000000000000000000000000000000000000008152600401808060200182810382526022815260200180613e896022913960400191505060405180910390fd5b6001819080600181540180825580915050906001820390600052602060002001600090919290919091509080519060200190612db4929190613de3565b50507f961b734c41327bf9cb361abefb818c2fdaa9534dd6eb5a55626e56501f2b6b6e816040518080602001828103825283818151815260200191508051906020019080838360005b83811015612e18578082015181840152602081019050612dfd565b50505050905090810190601f168015612e455780820380516001836020036101000a031916815260200191505b509250505060405180910390a150565b6000806003846040518082805190602001908083835b60208310612e8e5780518252602082019150602081019050602083039250612e6b565b6001836020036101000a038019825116818451168082178552505050505050905001915050908152602001604051809103902060050160009054906101000a900460ff169050600080905060008090505b6003866040518082805190602001908083835b60208310612f155780518252602082019150602081019050602083039250612ef2565b6001836020036101000a0380198251168184511680821785525050505050509050019150509081526020016040518091039020600301805490508110156130de576003866040518082805190602001908083835b60208310612f8c5780518252602082019150602081019050602083039250612f69565b6001836020036101000a03801982511681845116808217855250505050505090500191505090815260200160405180910390206003018181548110612fcd57fe5b9060005260206000200160405160200180828054600181600116156101000203166002900480156130355780601f10613013576101008083540402835291820191613035565b820191906000526020600020905b815481529060010190602001808311613021575b505091505060405160208183030381529060405280519060200120856040516020018082805190602001908083835b602083106130875780518252602082019150602081019050602083039250613064565b6001836020036101000a0380198251168184511680821785525050505050509050019150506040516020818303038152906040528051906020012014156130d157600191506130de565b8080600101915050612edf565b508180156130e95750805b9250505092915050565b606080836003856040518082805190602001908083835b6020831061312d578051825260208201915060208101905060208303925061310a565b6001836020036101000a0380198251168184511680821785525050505050509050019150509081526020016040518091039020600301848154811061316e57fe5b90600052602060002001808054600181600116156101000203166002900480601f01602080910402602001604051908101604052809291908181526020018280546001816001161561010002031660029004801561320d5780601f106131e25761010080835404028352916020019161320d565b820191906000526020600020905b8154815290600101906020018083116131f057829003601f168201915b50505050509050915091509250929050565b6000600280549050905090565b60006003826040518082805190602001908083835b602083106132645780518252602082019150602081019050602083039250613241565b6001836020036101000a0380198251168184511680821785525050505050509050019150509081526020016040518091039020600001805490509050919050565b60006003826040518082805190602001908083835b602083106132dd57805182526020820191506020810190506020830392506132ba565b6001836020036101000a0380198251168184511680821785525050505050509050019150509081526020016040518091039020600301805490509050919050565b606080836003856040518082805190602001908083835b602083106133585780518252602082019150602081019050602083039250613335565b6001836020036101000a0380198251168184511680821785525050505050509050019150509081526020016040518091039020600401848154811061339957fe5b90600052602060002001808054600181600116156101000203166002900480601f0160208091040260200160405190810160405280929190818152602001828054600181600116156101000203166002900480156134385780601f1061340d57610100808354040283529160200191613438565b820191906000526020600020905b81548152906001019060200180831161341b57829003601f168201915b50505050509050915091509250929050565b6134548282612e55565b156134c7576040517f08c379a000000000000000000000000000000000000000000000000000000000815260040180806020018281038252601b8152602001807f746865206167656e7420697320616c726561647920657869737473000000000081525060200191505060405180910390fd5b6003826040518082805190602001908083835b602083106134fd57805182526020820191506020810190506020830392506134da565b6001836020036101000a038019825116818451168082178552505050505050905001915050908152602001604051809103902060030181908060018154018082558091505090600182039060005260206000200160009091929091909150908051906020019061356e929190613de3565b50507fce134c2f6749a7c8c27263fd44938e75a902092c93fbc45a5bbee3f362f9361e8282604051808060200180602001838103835285818151815260200191508051906020019080838360005b838110156135d75780820151818401526020810190506135bc565b50505050905090810190601f1680156136045780820380516001836020036101000a031916815260200191505b50838103825284818151815260200191508051906020019080838360005b8381101561363d578082015181840152602081019050613622565b50505050905090810190601f16801561366a5780820380516001836020036101000a031916815260200191505b5094505050505060405180910390a15050565b6002818154811061368a57fe5b906000526020600020016000915090508054600181600116156101000203166002900480601f01602080910402602001604051908101604052809291908181526020018280546001816001161561010002031660029004801561372e5780601f106137035761010080835404028352916020019161372e565b820191906000526020600020905b81548152906001019060200180831161371157829003601f168201915b505050505081565b6060806003846040518082805190602001908083835b6020831061376f578051825260208201915060208101905060208303925061374c565b6001836020036101000a038019825116818451168082178552505050505050905001915050908152602001604051809103902060000183815481106137b057fe5b90600052602060002090600202016000016003856040518082805190602001908083835b602083106137f757805182526020820191506020810190506020830392506137d4565b6001836020036101000a0380198251168184511680821785525050505050509050019150509081526020016040518091039020600001848154811061383857fe5b9060005260206000209060020201600101818054600181600116156101000203166002900480601f0160208091040260200160405190810160405280929190818152602001828054600181600116156101000203166002900480156138de5780601f106138b3576101008083540402835291602001916138de565b820191906000526020600020905b8154815290600101906020018083116138c157829003601f168201915b50505050509150808054600181600116156101000203166002900480601f01602080910402602001604051908101604052809291908181526020018280546001816001161561010002031660029004801561397a5780601f1061394f5761010080835404028352916020019161397a565b820191906000526020600020905b81548152906001019060200180831161395d57829003601f168201915b50505050509050915091509250929050565b613995836128cf565b15613a08576040517f08c379a000000000000000000000000000000000000000000000000000000000815260040180806020018281038252601c8152602001807f746865206f626a65637420697320616c7265616479206578697374730000000081525060200191505060405180910390fd5b60016003846040518082805190602001908083835b60208310613a405780518252602082019150602081019050602083039250613a1d565b6001836020036101000a038019825116818451168082178552505050505050905001915050908152602001604051809103902060050160006101000a81548160ff021916908315150217905550816003846040518082805190602001908083835b60208310613ac45780518252602082019150602081019050602083039250613aa1565b6001836020036101000a03801982511681845116808217855250505050505090500191505090815260200160405180910390206001019080519060200190613b0d929190613de3565b50806003846040518082805190602001908083835b60208310613b455780518252602082019150602081019050602083039250613b22565b6001836020036101000a03801982511681845116808217855250505050505090500191505090815260200160405180910390206002019080519060200190613b8e929190613de3565b506002839080600181540180825580915050906001820390600052602060002001600090919290919091509080519060200190613bcc929190613de3565b50507f5f1407d55cfb9234116ab0968b1ac0eb46b3a3e00530145812e7a97026f3b1cd83838360405180806020018060200180602001848103845287818151815260200191508051906020019080838360005b83811015613c3a578082015181840152602081019050613c1f565b50505050905090810190601f168015613c675780820380516001836020036101000a031916815260200191505b50848103835286818151815260200191508051906020019080838360005b83811015613ca0578082015181840152602081019050613c85565b50505050905090810190601f168015613ccd5780820380516001836020036101000a031916815260200191505b50848103825285818151815260200191508051906020019080838360005b83811015613d06578082015181840152602081019050613ceb565b50505050905090810190601f168015613d335780820380516001836020036101000a031916815260200191505b50965050505050505060405180910390a1505050565b604051806040016040528060608152602001606081525090565b828054600181600116156101000203166002900490600052602060002090601f016020900481019282601f10613da457805160ff1916838001178555613dd2565b82800160010185558215613dd2579182015b82811115613dd1578251825591602001919060010190613db6565b5b509050613ddf9190613e63565b5090565b828054600181600116156101000203166002900490600052602060002090601f016020900481019282601f10613e2457805160ff1916838001178555613e52565b82800160010185558215613e52579182015b82811115613e51578251825591602001919060010190613e36565b5b509050613e5f9190613e63565b5090565b613e8591905b80821115613e81576000816000905550600101613e69565b5090565b9056fe7468652070726f70657274795479706520697320616c726561647920657869737473a265627a7a72315820a4263f08ebcbe0841b6d28d5004b7eff926ec827695411e66c1dfdd821c9fe4664736f6c63430005100032",
  "source": "pragma solidity >=0.4.21 <0.7.0;\nimport \"./Strings.sol\";\n\ncontract Object {\n    function setPropertyType(string memory _propType)public;\n    function setProperties(string memory _objectHash, string memory _propType,string memory _propValue)public;\n    function setObject(string memory _objectHash,string memory _category,string memory _format)public;\n    function setEvent(string memory _objectHash,string memory _eventId)public;\n    function setAgent(string memory _objectHash,string memory _agentId)public;\n\n    function getPropertyTypeExists(string memory _propType)public view returns (bool);\n    function getObjectPropertiesExists(string memory _objectHash,string memory _propType,string memory _propValue)public view returns (bool);\n    function getObjectExists(string memory _objectHash)public view returns (bool);\n    function getObjectEventExists(string memory _objectHash, string memory _eventId)public view returns (bool);\n    function getObjectAgentExists(string memory _objectHash, string memory _agentId)public view returns (bool);\n\n    function getNumEvents(string memory _objectHash) public view returns (uint256);\n    function getNumAgents(string memory _objectHash) public view returns (uint256);\n    function getNumObject() public view returns (uint256);\n\n    function getObject(uint256 _index) public view returns (string memory);\n    function getObjectPropertiesLength(string memory _objectHash) public view returns (uint256);\n    function getObjectPropertiesLength(string memory _objectHash,uint256 _propertiesIndex) public view returns (string memory, string memory);\n    function getObjectCategoryAndFormat(string memory _objectHash) public view returns (string memory,string memory);\n    function getEvent(string memory _objectHash, uint256 _eventIndex) public view returns (string memory, string memory);\n    function getAgent(string memory _objectHash, uint256 _agentIndex) public view returns (string memory, string memory);\n}\n\n\ncontract ProvObject is Object {\n    Strings st;\n    struct ObjectProperties {\n        string propType;\n        string propValue;\n    }\n\n    struct ObjectData {\n        ObjectProperties[] properties;\n        string category;\n        string format;\n        string[] events; //id\n        string[] agents; //id\n        bool isValid; //shi fou yi cun zai\n    }\n\n    string[] propTypes;\n    string[] public objects;\n\n    mapping(string => ObjectData) private provObjects;\n\n    event ObjectSet(string _objectHash, string _category, string _format);\n    event ObjectSetPropertyType(string  _propType);\n    event ObjectSetProperties(string _objectHash, string _propType, string _propValue);\n    event ObjectSetEvent(string _objectHash, string _eventId);\n    event ObjectSetAgent(string _objectHash, string _agentId);\n\n    function setPropertyType(string memory _propType) public {\n        if (getPropertyTypeExists(_propType)){\n            revert(\"the propertyType is already exists\");\n        }\n        propTypes.push(_propType);\n        emit ObjectSetPropertyType(_propType);\n    }\n\n    function setProperties(string memory _objectHash,string memory _propType,string memory _propValue )public {\n        if (getObjectPropertiesExists(_objectHash,_propType, _propValue)) {\n            revert(\"the properties is already exists\");\n        }\n        ObjectProperties memory i;\n        i.propType = _propType;\n        i.propValue = _propValue;\n        provObjects[_objectHash].properties.push(i);\n        emit ObjectSetProperties(_objectHash,_propType,_propValue);\n    }\n\n    function setObject(string memory _objectHash,string memory _category,string memory _format) public {\n        if (getObjectExists(_objectHash)) {\n            revert(\"the object is already exists\");\n        }\n        provObjects[_objectHash].isValid = true;\n        provObjects[_objectHash].category = _category;\n        provObjects[_objectHash].format = _format;\n        objects.push(_objectHash);\n        emit ObjectSet(_objectHash,_category,_format);\n    }\n\n    function setEvent(string memory _objectHash,string memory _eventId) public {\n        if (getObjectEventExists(_objectHash, _eventId)) {\n            revert(\"the event is already exists\");\n        }\n        provObjects[_objectHash].events.push(_eventId);\n        emit ObjectSetEvent(_objectHash,_eventId);\n    }\n\n    function setAgent(string memory _objectHash,string memory _agentId )public {\n        if (getObjectAgentExists(_objectHash, _agentId)) {\n            revert(\"the agent is already exists\");\n        }\n        provObjects[_objectHash].events.push(_agentId);\n        emit ObjectSetAgent(_objectHash,_agentId);\n    }\n\n    function getPropertyTypeExists(string memory _propType)public view returns (bool){\n        bool flag = false;\n        for (uint index = 0; index < propTypes.length; index++) {\n            if(st.equal(_propType,propTypes[index])) {\n                flag = true;\n                break;\n            }\n        }\n        return flag;\n    }\n    function getObjectPropertiesExists(string memory _objectHash,string memory _propType,string memory _propValue)public view returns (bool){\n        bool flag = false;\n        for (uint index = 0; index < provObjects[_objectHash].properties.length; index++) {\n            ObjectProperties memory i = provObjects[_objectHash].properties[index];\n            if(st.equal(i.propType,_propType) && st.equal(i.propValue,_propValue)) {\n                flag = true;\n                break;\n            }\n        }\n        return flag;\n    }\n\n    function getObjectExists(string memory _objectHash)public view returns (bool) {\n        return provObjects[_objectHash].isValid;\n    }\n\n    function getObjectEventExists(string memory _objectHash, string memory _eventId)public view returns (bool) {\n        bool objectExists = provObjects[_objectHash].isValid;\n        bool eventExists = false;\n        for (uint index = 0; index < provObjects[_objectHash].events.length; index++) {\n            if (st.equal(_eventId,provObjects[_objectHash].events[index]))\n            // if (keccak256(abi.encodePacked(_eventId)) == keccak256(abi.encodePacked(provObjects[_objectHash].events[index])))\n            {\n                eventExists = true;\n                break;\n            }\n        }\n        return objectExists&&eventExists;\n    }\n\n    function getObjectAgentExists(string memory _objectHash, string memory _agentId)public view returns (bool) {\n        bool objectExists = provObjects[_objectHash].isValid;\n        bool agentExists = false;\n        for (uint index = 0; index < provObjects[_objectHash].events.length; index++) {\n            if (keccak256(abi.encodePacked(_agentId)) == keccak256(abi.encodePacked(provObjects[_objectHash].events[index])))\n            {\n                agentExists = true;\n                break;\n            }\n        }\n        return objectExists&&agentExists;\n    }\n\n    function getNumEvents(string memory _objectHash) public view returns (uint256) {\n        return provObjects[_objectHash].events.length;\n    }\n\n    function getNumAgents(string memory _objectHash) public view returns (uint256) {\n        return provObjects[_objectHash].agents.length;\n    }\n\n    function getNumObject() public view returns (uint256){\n        return objects.length;\n    }\n\n\n    function getObject(uint256 _index) public view returns (string memory){\n        return objects[_index];\n    }\n\n    function getObjectPropertiesLength(string memory _objectHash) public view returns (uint256) {\n        return provObjects[_objectHash].properties.length;\n    }\n    function getObjectPropertiesLength(string memory _objectHash,uint256 _propertiesIndex) public view returns (string memory, string memory){\n        return (provObjects[_objectHash].properties[_propertiesIndex].propType, provObjects[_objectHash].properties[_propertiesIndex].propValue);\n    }\n\n    function getObjectCategoryAndFormat(string memory _objectHash) public view returns (string memory,string memory){\n        return (provObjects[_objectHash].category,provObjects[_objectHash].format);\n    }\n    function getEvent(string memory _objectHash, uint256 _eventIndex) public view returns (string memory, string memory) {\n        return (_objectHash, provObjects[_objectHash].events[_eventIndex]);\n    }\n\n    function getAgent(string memory _objectHash, uint256 _agentIndex) public view returns (string memory, string memory) {\n        return (_objectHash, provObjects[_objectHash].agents[_agentIndex]);\n    }\n}",
  "sourcePath": "C:\\DiskF\\Truffle\\Vue-Dapp\\contracts\\Object.sol",
  "compiler": {
    "name": "solc",
    "version": "0.5.16+commit.9c3226ce.Emscripten.clang"
  },
  "schemaVersion": "3.1.0",
  "updatedAt": "2020-04-18T07:25:29.506Z",
  "networkType": "ethereum",
  "devdoc": {
    "methods": {}
  },
  "userdoc": {
    "methods": {}
  }
}