{
  "contractName": "ProvEvent",
  "abi": [
    {
      "anonymous": false,
      "inputs": [
        {
          "indexed": false,
          "internalType": "string",
          "name": "_eventId",
          "type": "string"
        },
        {
          "indexed": false,
          "internalType": "string",
          "name": "_objectHash",
          "type": "string"
        },
        {
          "indexed": false,
          "internalType": "string",
          "name": "_time",
          "type": "string"
        }
      ],
      "name": "EventSet",
      "type": "event"
    },
    {
      "anonymous": false,
      "inputs": [
        {
          "indexed": false,
          "internalType": "string",
          "name": "_eventId",
          "type": "string"
        },
        {
          "indexed": false,
          "internalType": "string",
          "name": "_eventType",
          "type": "string"
        }
      ],
      "name": "EventTypeSet",
      "type": "event"
    },
    {
      "constant": false,
      "inputs": [
        {
          "internalType": "string",
          "name": "_eventId",
          "type": "string"
        },
        {
          "internalType": "string",
          "name": "_eventType",
          "type": "string"
        }
      ],
      "name": "setEventType",
      "outputs": [],
      "payable": false,
      "stateMutability": "nonpayable",
      "type": "function"
    },
    {
      "constant": false,
      "inputs": [
        {
          "internalType": "string",
          "name": "_eventId",
          "type": "string"
        },
        {
          "internalType": "string",
          "name": "_agentId",
          "type": "string"
        },
        {
          "internalType": "string",
          "name": "_objectHash",
          "type": "string"
        },
        {
          "internalType": "string",
          "name": "_time",
          "type": "string"
        },
        {
          "internalType": "string",
          "name": "_eventType",
          "type": "string"
        }
      ],
      "name": "setEvent",
      "outputs": [],
      "payable": false,
      "stateMutability": "nonpayable",
      "type": "function"
    },
    {
      "constant": true,
      "inputs": [
        {
          "internalType": "string",
          "name": "_eventId",
          "type": "string"
        }
      ],
      "name": "getEventExists",
      "outputs": [
        {
          "internalType": "bool",
          "name": "",
          "type": "bool"
        }
      ],
      "payable": false,
      "stateMutability": "view",
      "type": "function"
    },
    {
      "constant": true,
      "inputs": [
        {
          "internalType": "string",
          "name": "_eventId",
          "type": "string"
        },
        {
          "internalType": "string",
          "name": "_eventType",
          "type": "string"
        }
      ],
      "name": "getEventTypeExists",
      "outputs": [
        {
          "internalType": "bool",
          "name": "",
          "type": "bool"
        }
      ],
      "payable": false,
      "stateMutability": "view",
      "type": "function"
    },
    {
      "constant": true,
      "inputs": [
        {
          "internalType": "string",
          "name": "_eventId",
          "type": "string"
        }
      ],
      "name": "getAgent",
      "outputs": [
        {
          "internalType": "string",
          "name": "",
          "type": "string"
        },
        {
          "internalType": "string",
          "name": "",
          "type": "string"
        }
      ],
      "payable": false,
      "stateMutability": "view",
      "type": "function"
    },
    {
      "constant": true,
      "inputs": [
        {
          "internalType": "string",
          "name": "_eventId",
          "type": "string"
        }
      ],
      "name": "getEvent",
      "outputs": [
        {
          "components": [
            {
              "internalType": "string",
              "name": "objectHash",
              "type": "string"
            },
            {
              "internalType": "string",
              "name": "EventType",
              "type": "string"
            },
            {
              "internalType": "string",
              "name": "agentId",
              "type": "string"
            },
            {
              "internalType": "string",
              "name": "time",
              "type": "string"
            },
            {
              "internalType": "bool",
              "name": "isValid",
              "type": "bool"
            }
          ],
          "internalType": "struct ProvEvent.EventData",
          "name": "",
          "type": "tuple"
        }
      ],
      "payable": false,
      "stateMutability": "view",
      "type": "function"
    },
    {
      "constant": true,
      "inputs": [
        {
          "internalType": "string",
          "name": "_eventId",
          "type": "string"
        }
      ],
      "name": "getObject",
      "outputs": [
        {
          "internalType": "string",
          "name": "",
          "type": "string"
        },
        {
          "internalType": "string",
          "name": "",
          "type": "string"
        }
      ],
      "payable": false,
      "stateMutability": "view",
      "type": "function"
    },
    {
      "constant": true,
      "inputs": [
        {
          "internalType": "string",
          "name": "_eventId",
          "type": "string"
        }
      ],
      "name": "getEventType",
      "outputs": [
        {
          "internalType": "string",
          "name": "",
          "type": "string"
        },
        {
          "internalType": "string",
          "name": "",
          "type": "string"
        }
      ],
      "payable": false,
      "stateMutability": "view",
      "type": "function"
    },
    {
      "constant": true,
      "inputs": [
        {
          "internalType": "string",
          "name": "_eventId",
          "type": "string"
        }
      ],
      "name": "getTime",
      "outputs": [
        {
          "internalType": "string",
          "name": "",
          "type": "string"
        },
        {
          "internalType": "string",
          "name": "",
          "type": "string"
        }
      ],
      "payable": false,
      "stateMutability": "view",
      "type": "function"
    }
  ],
  "bytecode": "0x608060405234801561001057600080fd5b506113cb806100206000396000f3fe608060405234801561001057600080fd5b50600436106100935760003560e01c8063a4bd55a511610066578063a4bd55a51461015a578063b359cedd1461018b578063c0b3bdae146101bc578063e1902063146101d8578063eaf391ae1461020857610093565b80630153ea91146100985780630cfd0813146100c95780637011b99e146100f9578063794464e914610129575b600080fd5b6100b260048036036100ad9190810190610cf6565b610224565b6040516100c0929190611145565b60405180910390f35b6100e360048036036100de9190810190610d37565b6102ee565b6040516100f0919061112a565b60405180910390f35b610113600480360361010e9190810190610cf6565b6103c4565b604051610120919061112a565b60405180910390f35b610143600480360361013e9190810190610cf6565b6103fc565b604051610151929190611145565b60405180910390f35b610174600480360361016f9190810190610cf6565b6104c6565b604051610182929190611145565b60405180910390f35b6101a560048036036101a09190810190610cf6565b610590565b6040516101b3929190611145565b60405180910390f35b6101d660048036036101d19190810190610d37565b61065a565b005b6101f260048036036101ed9190810190610cf6565b610717565b6040516101ff919061123f565b60405180910390f35b610222600480360361021d9190810190610da3565b6109f2565b005b606080826001846040516102389190611113565b9081526020016040518091039020600001808054600181600116156101000203166002900480601f0160208091040260200160405190810160405280929190818152602001828054600181600116156101000203166002900480156102de5780601f106102b3576101008083540402835291602001916102de565b820191906000526020600020905b8154815290600101906020018083116102c157829003601f168201915b5050505050905091509150915091565b60008060009054906101000a900473ffffffffffffffffffffffffffffffffffffffff1673ffffffffffffffffffffffffffffffffffffffff166346bdca9a8360018660405161033e9190611113565b90815260200160405180910390206001016040518363ffffffff1660e01b815260040161036c9291906111c8565b60206040518083038186803b15801561038457600080fd5b505afa158015610398573d6000803e3d6000fd5b505050506040513d601f19601f820116820180604052506103bc9190810190610ccd565b905092915050565b60006001826040516103d69190611113565b908152602001604051809103902060040160009054906101000a900460ff169050919050565b606080826001846040516104109190611113565b9081526020016040518091039020600201808054600181600116156101000203166002900480601f0160208091040260200160405190810160405280929190818152602001828054600181600116156101000203166002900480156104b65780601f1061048b576101008083540402835291602001916104b6565b820191906000526020600020905b81548152906001019060200180831161049957829003601f168201915b5050505050905091509150915091565b606080826001846040516104da9190611113565b9081526020016040518091039020600101808054600181600116156101000203166002900480601f0160208091040260200160405190810160405280929190818152602001828054600181600116156101000203166002900480156105805780601f1061055557610100808354040283529160200191610580565b820191906000526020600020905b81548152906001019060200180831161056357829003601f168201915b5050505050905091509150915091565b606080826001846040516105a49190611113565b9081526020016040518091039020600301808054600181600116156101000203166002900480601f01602080910402602001604051908101604052809291908181526020018280546001816001161561010002031660029004801561064a5780601f1061061f5761010080835404028352916020019161064a565b820191906000526020600020905b81548152906001019060200180831161062d57829003601f168201915b5050505050905091509150915091565b61066482826102ee565b156106a4576040517f08c379a000000000000000000000000000000000000000000000000000000000815260040161069b906111ff565b60405180910390fd5b806001836040516106b59190611113565b908152602001604051809103902060010190805190602001906106d9929190610b8e565b507f45de8a3a386f147ecc6f79b278ac4b04599fd5688743793dbcc508fee38ceeae828260405161070b929190611145565b60405180910390a15050565b61071f610c0e565b60018260405161072f9190611113565b90815260200160405180910390206040518060a0016040529081600082018054600181600116156101000203166002900480601f0160208091040260200160405190810160405280929190818152602001828054600181600116156101000203166002900480156107e15780601f106107b6576101008083540402835291602001916107e1565b820191906000526020600020905b8154815290600101906020018083116107c457829003601f168201915b50505050508152602001600182018054600181600116156101000203166002900480601f0160208091040260200160405190810160405280929190818152602001828054600181600116156101000203166002900480156108835780601f1061085857610100808354040283529160200191610883565b820191906000526020600020905b81548152906001019060200180831161086657829003601f168201915b50505050508152602001600282018054600181600116156101000203166002900480601f0160208091040260200160405190810160405280929190818152602001828054600181600116156101000203166002900480156109255780601f106108fa57610100808354040283529160200191610925565b820191906000526020600020905b81548152906001019060200180831161090857829003601f168201915b50505050508152602001600382018054600181600116156101000203166002900480601f0160208091040260200160405190810160405280929190818152602001828054600181600116156101000203166002900480156109c75780601f1061099c576101008083540402835291602001916109c7565b820191906000526020600020905b8154815290600101906020018083116109aa57829003601f168201915b505050505081526020016004820160009054906101000a900460ff1615151515815250509050919050565b6109fb856103c4565b15610a3b576040517f08c379a0000000000000000000000000000000000000000000000000000000008152600401610a329061121f565b60405180910390fd5b60018086604051610a4c9190611113565b908152602001604051809103902060040160006101000a81548160ff02191690831515021790555082600186604051610a859190611113565b90815260200160405180910390206000019080519060200190610aa9929190610b8e565b5083600186604051610abb9190611113565b90815260200160405180910390206002019080519060200190610adf929190610b8e565b5081600186604051610af19190611113565b90815260200160405180910390206003019080519060200190610b15929190610b8e565b5080600186604051610b279190611113565b90815260200160405180910390206001019080519060200190610b4b929190610b8e565b507f3692a44416952a7085314c0310cfcf2ffd6db600f0b833b7b8a0c11daaa0b85b858484604051610b7f9392919061117c565b60405180910390a15050505050565b828054600181600116156101000203166002900490600052602060002090601f016020900481019282601f10610bcf57805160ff1916838001178555610bfd565b82800160010185558215610bfd579182015b82811115610bfc578251825591602001919060010190610be1565b5b509050610c0a9190610c3f565b5090565b6040518060a00160405280606081526020016060815260200160608152602001606081526020016000151581525090565b610c6191905b80821115610c5d576000816000905550600101610c45565b5090565b90565b600081519050610c7381611371565b92915050565b600082601f830112610c8a57600080fd5b8135610c9d610c988261128e565b611261565b91508082526020830160208301858383011115610cb957600080fd5b610cc483828461131e565b50505092915050565b600060208284031215610cdf57600080fd5b6000610ced84828501610c64565b91505092915050565b600060208284031215610d0857600080fd5b600082013567ffffffffffffffff811115610d2257600080fd5b610d2e84828501610c79565b91505092915050565b60008060408385031215610d4a57600080fd5b600083013567ffffffffffffffff811115610d6457600080fd5b610d7085828601610c79565b925050602083013567ffffffffffffffff811115610d8d57600080fd5b610d9985828601610c79565b9150509250929050565b600080600080600060a08688031215610dbb57600080fd5b600086013567ffffffffffffffff811115610dd557600080fd5b610de188828901610c79565b955050602086013567ffffffffffffffff811115610dfe57600080fd5b610e0a88828901610c79565b945050604086013567ffffffffffffffff811115610e2757600080fd5b610e3388828901610c79565b935050606086013567ffffffffffffffff811115610e5057600080fd5b610e5c88828901610c79565b925050608086013567ffffffffffffffff811115610e7957600080fd5b610e8588828901610c79565b9150509295509295909350565b610e9b81611312565b82525050565b610eaa81611312565b82525050565b6000610ebb826112da565b610ec581856112f6565b9350610ed581856020860161132d565b610ede81611360565b840191505092915050565b6000610ef4826112da565b610efe8185611307565b9350610f0e81856020860161132d565b80840191505092915050565b6000610f25826112cf565b610f2f81856112e5565b9350610f3f81856020860161132d565b610f4881611360565b840191505092915050565b600081546001811660008114610f705760018114610f9657610fda565b607f6002830416610f8181876112f6565b955060ff198316865260208601935050610fda565b60028204610fa481876112f6565b9550610faf856112ba565b60005b82811015610fd157815481890152600182019150602081019050610fb2565b80880195505050505b505092915050565b6000610fef6021836112f6565b91507f20746865206576656e74207479706520697320616c726561647920657869737460008301527f73000000000000000000000000000000000000000000000000000000000000006020830152604082019050919050565b6000611055601c836112f6565b91507f20746865206576656e7420697320616c726561647920657869737473000000006000830152602082019050919050565b600060a08301600083015184820360008601526110a58282610f1a565b915050602083015184820360208601526110bf8282610f1a565b915050604083015184820360408601526110d98282610f1a565b915050606083015184820360608601526110f38282610f1a565b91505060808301516111086080860182610e92565b508091505092915050565b600061111f8284610ee9565b915081905092915050565b600060208201905061113f6000830184610ea1565b92915050565b6000604082019050818103600083015261115f8185610eb0565b905081810360208301526111738184610eb0565b90509392505050565b600060608201905081810360008301526111968186610eb0565b905081810360208301526111aa8185610eb0565b905081810360408301526111be8184610eb0565b9050949350505050565b600060408201905081810360008301526111e28185610eb0565b905081810360208301526111f68184610f53565b90509392505050565b6000602082019050818103600083015261121881610fe2565b9050919050565b6000602082019050818103600083015261123881611048565b9050919050565b600060208201905081810360008301526112598184611088565b905092915050565b6000604051905081810181811067ffffffffffffffff8211171561128457600080fd5b8060405250919050565b600067ffffffffffffffff8211156112a557600080fd5b601f19601f8301169050602081019050919050565b60008190508160005260206000209050919050565b600081519050919050565b600081519050919050565b600082825260208201905092915050565b600082825260208201905092915050565b600081905092915050565b60008115159050919050565b82818337600083830152505050565b60005b8381101561134b578082015181840152602081019050611330565b8381111561135a576000848401525b50505050565b6000601f19601f8301169050919050565b61137a81611312565b811461138557600080fd5b5056fea365627a7a7231582001700227997f2760ac8f6b8621884c13849a0894efe609ed8264fb4c59eb89aa6c6578706572696d656e74616cf564736f6c63430005100040",
  "source": "pragma solidity >=0.4.21 <0.7.0;\npragma experimental ABIEncoderV2;\nimport \"./Strings.sol\";\n\ncontract Event {\n    function setEventType(string memory _eventId, string memory _eventType)public;\n    function setEvent(string memory _eventId,string memory _agentId,\n                    string memory _objectHash,string memory _time,string memory _eventType)public;\n\n    function getEventExists(string memory _eventId)public view returns (bool);\n    function getEventTypeExists(string memory _eventId, string memory _eventType)public view returns (bool);\n\n    function getAgent(string memory _eventId) public view returns (string memory, string memory);\n    function getObject(string memory _eventId) public view returns (string memory, string memory);\n    function getEventType(string memory _eventId) public view returns (string memory, string memory);\n    function getTime(string memory _eventId) public view returns (string memory, string memory);\n}\n\n\ncontract ProvEvent is Event {\n    Strings st;\n    struct EventData {\n        string objectHash;\n        string EventType;\n        string agentId;\n        string time;\n        bool isValid;\n    }\n\n\n    mapping(string => EventData) private provEvents;\n    string[] events;\n    event EventTypeSet(string _eventId, string _eventType);\n    event EventSet(string _eventId, string _objectHash, string _time);\n\n    function setEventType(string memory _eventId, string memory _eventType) public {\n        if (getEventTypeExists(_eventId, _eventType)) {\n            revert(\" the event type is already exists\");\n        }\n        provEvents[_eventId].EventType = _eventType;\n        emit EventTypeSet(_eventId,_eventType);\n    }\n\n    function setEvent(string memory _eventId,string memory _agentId,\n                        string memory _objectHash,string memory _time,string memory _eventType) public {\n        if (getEventExists(_eventId)) {\n            revert(\" the event is already exists\");\n        }\n        provEvents[_eventId].isValid = true;\n        provEvents[_eventId].objectHash = _objectHash;\n        provEvents[_eventId].agentId = _agentId;\n        provEvents[_eventId].time = _time;\n        provEvents[_eventId].EventType = _eventType;\n        emit EventSet(_eventId,_objectHash,_time);\n\n    }\n\n    function getEventExists(string memory _eventId)public view returns (bool) {\n        return  provEvents[_eventId].isValid;\n    }\n\n    function getEventTypeExists(string memory _eventId, string memory _eventType)public view returns (bool){\n        return st.equal(_eventType,provEvents[_eventId].EventType);\n    }\n\n    function getAgent(string memory _eventId) public view returns (string memory,string memory) {\n        return (_eventId,provEvents[_eventId].agentId);\n    }\n\n    function getEvent(string memory _eventId) public view returns (EventData memory){\n        return provEvents[_eventId];\n    }\n\n    function getObject(string memory _eventId) public view returns (string memory, string memory){\n        return (_eventId,provEvents[_eventId].objectHash);\n    }\n    function getEventType(string memory _eventId) public view returns (string memory, string memory){\n        return (_eventId,provEvents[_eventId].EventType);\n    }\n\n    function getTime(string memory _eventId) public view returns (string memory, string memory) {\n        return (_eventId,provEvents[_eventId].time);\n    }\n}",
  "sourcePath": "C:\\DiskF\\Truffle\\Vue-Dapp\\contracts\\Event.sol",
  "compiler": {
    "name": "solc",
    "version": "0.5.16+commit.9c3226ce.Emscripten.clang"
  },
  "schemaVersion": "3.1.0",
  "updatedAt": "2020-04-19T14:02:59.573Z",
  "networkType": "ethereum",
  "devdoc": {
    "methods": {}
  },
  "userdoc": {
    "methods": {}
  }
}