{
  "contractName": "Strings",
  "abi": [
    {
      "constant": true,
      "inputs": [
        {
          "internalType": "string",
          "name": "s1",
          "type": "string"
        },
        {
          "internalType": "string",
          "name": "s2",
          "type": "string"
        }
      ],
      "name": "equal",
      "outputs": [
        {
          "internalType": "bool",
          "name": "",
          "type": "bool"
        }
      ],
      "payable": false,
      "stateMutability": "pure",
      "type": "function"
    }
  ],
  "bytecode": "0x608060405234801561001057600080fd5b506102cf806100206000396000f3fe608060405234801561001057600080fd5b506004361061002b5760003560e01c806346bdca9a14610030575b600080fd5b6101806004803603604081101561004657600080fd5b810190808035906020019064010000000081111561006357600080fd5b82018360208201111561007557600080fd5b8035906020019184600183028401116401000000008311171561009757600080fd5b91908080601f016020809104026020016040519081016040528093929190818152602001838380828437600081840152601f19601f820116905080830192505050505050509192919290803590602001906401000000008111156100fa57600080fd5b82018360208201111561010c57600080fd5b8035906020019184600183028401116401000000008311171561012e57600080fd5b91908080601f016020809104026020016040519081016040528093929190818152602001838380828437600081840152601f19601f82011690508083019250505050505050919291929050505061019a565b604051808215151515815260200191505060405180910390f35b6000816040516020018082805190602001908083835b602083106101d357805182526020820191506020810190506020830392506101b0565b6001836020036101000a03801982511681845116808217855250505050505090500191505060405160208183030381529060405280519060200120836040516020018082805190602001908083835b602083106102455780518252602082019150602081019050602083039250610222565b6001836020036101000a03801982511681845116808217855250505050505090500191505060405160208183030381529060405280519060200120141561028f5760019050610294565b600090505b9291505056fea265627a7a72315820f32045cf32f122d2c95467168c0306f869acd1ae7e59fb68649ad77f5919cc3264736f6c63430005100032",
  "source": "pragma solidity >=0.4.21 <0.7.0;\n\ncontract Strings {\n    function equal (string memory s1, string memory s2 ) public pure returns(bool) {\n        if(keccak256(abi.encodePacked(s1)) == keccak256(abi.encodePacked(s2))) {\n            return true;\n        }\n        else {\n            return false;\n        }\n    }\n\n    // function append( string memory s1, string memory s2) public pure returns (string memory) {\n    //     return abi.encodePacked(s1,s2);\n    // }\n}",
  "sourcePath": "C:\\DiskF\\Truffle\\Vue-Dapp\\contracts\\Strings.sol",
  "compiler": {
    "name": "solc",
    "version": "0.5.16+commit.9c3226ce.Emscripten.clang"
  },
  "schemaVersion": "3.1.0",
  "updatedAt": "2020-04-18T07:25:21.837Z",
  "devdoc": {
    "methods": {}
  },
  "userdoc": {
    "methods": {}
  }
}